{
  "_format": "hh-sol-artifact-1",
  "contractName": "MultiSigWallet",
  "sourceName": "contracts/MultiSigWallet.sol",
  "abi": [
    {
      "inputs": [
        {
          "internalType": "address[]",
          "name": "_owners",
          "type": "address[]"
        },
        {
          "internalType": "uint256",
          "name": "_quoremRequired",
          "type": "uint256"
        }
      ],
      "stateMutability": "nonpayable",
      "type": "constructor"
    },
    {
      "inputs": [
        {
          "internalType": "uint256",
          "name": "transactionIndex",
          "type": "uint256"
        }
      ],
      "name": "TxAlreadyApproved",
      "type": "error"
    },
    {
      "inputs": [
        {
          "internalType": "uint256",
          "name": "transactionIndex",
          "type": "uint256"
        }
      ],
      "name": "TxAlreadySent",
      "type": "error"
    },
    {
      "inputs": [
        {
          "internalType": "uint256",
          "name": "transactionIndex",
          "type": "uint256"
        }
      ],
      "name": "TxNotExists",
      "type": "error"
    },
    {
      "anonymous": false,
      "inputs": [
        {
          "indexed": true,
          "internalType": "address",
          "name": "owner",
          "type": "address"
        },
        {
          "indexed": true,
          "internalType": "uint256",
          "name": "transactionIndex",
          "type": "uint256"
        }
      ],
      "name": "ApproveWithdrawTx",
      "type": "event"
    },
    {
      "anonymous": false,
      "inputs": [
        {
          "indexed": true,
          "internalType": "address",
          "name": "owner",
          "type": "address"
        },
        {
          "indexed": true,
          "internalType": "uint256",
          "name": "transactionindex",
          "type": "uint256"
        },
        {
          "indexed": true,
          "internalType": "address",
          "name": "to",
          "type": "address"
        },
        {
          "indexed": false,
          "internalType": "uint256",
          "name": "amount",
          "type": "uint256"
        }
      ],
      "name": "CreateWithdrawTx",
      "type": "event"
    },
    {
      "anonymous": false,
      "inputs": [
        {
          "indexed": true,
          "internalType": "address",
          "name": "sender",
          "type": "address"
        },
        {
          "indexed": false,
          "internalType": "uint256",
          "name": "amount",
          "type": "uint256"
        },
        {
          "indexed": false,
          "internalType": "uint256",
          "name": "balance",
          "type": "uint256"
        }
      ],
      "name": "Deposit",
      "type": "event"
    },
    {
      "inputs": [
        {
          "internalType": "uint256",
          "name": "_txnIndex",
          "type": "uint256"
        }
      ],
      "name": "approveWithdrawTx",
      "outputs": [],
      "stateMutability": "nonpayable",
      "type": "function"
    },
    {
      "inputs": [],
      "name": "balanceOf",
      "outputs": [
        {
          "internalType": "uint256",
          "name": "",
          "type": "uint256"
        }
      ],
      "stateMutability": "view",
      "type": "function"
    },
    {
      "inputs": [
        {
          "internalType": "address payable",
          "name": "_to",
          "type": "address"
        },
        {
          "internalType": "uint256",
          "name": "_amount",
          "type": "uint256"
        }
      ],
      "name": "createWithdrawTx",
      "outputs": [],
      "stateMutability": "nonpayable",
      "type": "function"
    },
    {
      "inputs": [],
      "name": "deposit",
      "outputs": [],
      "stateMutability": "payable",
      "type": "function"
    },
    {
      "inputs": [],
      "name": "getOwners",
      "outputs": [
        {
          "internalType": "address[]",
          "name": "",
          "type": "address[]"
        }
      ],
      "stateMutability": "view",
      "type": "function"
    },
    {
      "inputs": [
        {
          "internalType": "uint256",
          "name": "txnIndex",
          "type": "uint256"
        }
      ],
      "name": "getWithdrawTx",
      "outputs": [
        {
          "internalType": "address",
          "name": "",
          "type": "address"
        },
        {
          "internalType": "uint256",
          "name": "",
          "type": "uint256"
        },
        {
          "internalType": "uint256",
          "name": "",
          "type": "uint256"
        },
        {
          "internalType": "bool",
          "name": "",
          "type": "bool"
        }
      ],
      "stateMutability": "view",
      "type": "function"
    },
    {
      "inputs": [],
      "name": "getWithdrawTxCount",
      "outputs": [
        {
          "internalType": "uint256",
          "name": "",
          "type": "uint256"
        }
      ],
      "stateMutability": "view",
      "type": "function"
    },
    {
      "inputs": [],
      "name": "getWithdrawTxes",
      "outputs": [
        {
          "components": [
            {
              "internalType": "address payable",
              "name": "to",
              "type": "address"
            },
            {
              "internalType": "uint256",
              "name": "amount",
              "type": "uint256"
            },
            {
              "internalType": "uint256",
              "name": "approvals",
              "type": "uint256"
            },
            {
              "internalType": "bool",
              "name": "sent",
              "type": "bool"
            }
          ],
          "internalType": "struct MultiSigWallet.WithdrawTx[]",
          "name": "",
          "type": "tuple[]"
        }
      ],
      "stateMutability": "view",
      "type": "function"
    },
    {
      "inputs": [
        {
          "internalType": "uint256",
          "name": "",
          "type": "uint256"
        },
        {
          "internalType": "address",
          "name": "",
          "type": "address"
        }
      ],
      "name": "isApproved",
      "outputs": [
        {
          "internalType": "bool",
          "name": "",
          "type": "bool"
        }
      ],
      "stateMutability": "view",
      "type": "function"
    },
    {
      "inputs": [
        {
          "internalType": "address",
          "name": "",
          "type": "address"
        }
      ],
      "name": "isOwner",
      "outputs": [
        {
          "internalType": "bool",
          "name": "",
          "type": "bool"
        }
      ],
      "stateMutability": "view",
      "type": "function"
    },
    {
      "inputs": [
        {
          "internalType": "uint256",
          "name": "",
          "type": "uint256"
        }
      ],
      "name": "owners",
      "outputs": [
        {
          "internalType": "address",
          "name": "",
          "type": "address"
        }
      ],
      "stateMutability": "view",
      "type": "function"
    },
    {
      "inputs": [],
      "name": "quoremRequired",
      "outputs": [
        {
          "internalType": "uint256",
          "name": "",
          "type": "uint256"
        }
      ],
      "stateMutability": "view",
      "type": "function"
    },
    {
      "inputs": [
        {
          "internalType": "uint256",
          "name": "",
          "type": "uint256"
        }
      ],
      "name": "withdrawals",
      "outputs": [
        {
          "internalType": "address payable",
          "name": "to",
          "type": "address"
        },
        {
          "internalType": "uint256",
          "name": "amount",
          "type": "uint256"
        },
        {
          "internalType": "uint256",
          "name": "approvals",
          "type": "uint256"
        },
        {
          "internalType": "bool",
          "name": "sent",
          "type": "bool"
        }
      ],
      "stateMutability": "view",
      "type": "function"
    },
    {
      "stateMutability": "payable",
      "type": "receive"
    }
  ],
  "bytecode": "0x60a06040523480156200001157600080fd5b5060405162002748380380620027488339818101604052810190620000379190620007c5565b62000053679a3501c4f24d92f760c01b6200059960201b60201c565b6200006f679405006347c2bacf60c01b6200059960201b60201c565b6200008b67fafe303f6188df2b60c01b6200059960201b60201c565b620000a7674228de60dc6cd39560c01b6200059960201b60201c565b6000825111620000ee576040517f08c379a0000000000000000000000000000000000000000000000000000000008152600401620000e5906200088c565b60405180910390fd5b6200010a679f41a444e3b48ac760c01b6200059960201b60201c565b62000126671def365669992f0160c01b6200059960201b60201c565b6200014267e1bf961522b6026260c01b6200059960201b60201c565b6200015e67dd40c59854e481d360c01b6200059960201b60201c565b60008111801562000170575081518111155b620001b2576040517f08c379a0000000000000000000000000000000000000000000000000000000008152600401620001a99062000924565b60405180910390fd5b620001ce674a04155b2440e39b60c01b6200059960201b60201c565b620001ea67c28b74028ea993e060c01b6200059960201b60201c565b6200020667e1ff14cb7ed2353e60c01b6200059960201b60201c565b60005b82518110156200056c576200022f67db9facb5271c0b6c60c01b6200059960201b60201c565b6200024b67b913a6cdb74cb2ec60c01b6200059960201b60201c565b600083828151811062000263576200026262000946565b5b602002602001015190506200028967138ccc31bfd89af560c01b6200059960201b60201c565b620002a5672fb7e4fa97e8c65160c01b6200059960201b60201c565b620002c1675311a44d1a96f28a60c01b6200059960201b60201c565b600073ffffffffffffffffffffffffffffffffffffffff168173ffffffffffffffffffffffffffffffffffffffff160362000333576040517f08c379a00000000000000000000000000000000000000000000000000000000081526004016200032a90620009c5565b60405180910390fd5b6200034f67f43d6ba53857d6c860c01b6200059960201b60201c565b6200036b67961a360982f5cee960c01b6200059960201b60201c565b62000387672ee30915e732c81f60c01b6200059960201b60201c565b620003a367e95bece66863632260c01b6200059960201b60201c565b600160008273ffffffffffffffffffffffffffffffffffffffff1673ffffffffffffffffffffffffffffffffffffffff16815260200190815260200160002060009054906101000a900460ff161562000433576040517f08c379a00000000000000000000000000000000000000000000000000000000081526004016200042a9062000a37565b60405180910390fd5b6200044f677e5e43438a7f78a360c01b6200059960201b60201c565b6200046b679abcea1ed140656b60c01b6200059960201b60201c565b60018060008373ffffffffffffffffffffffffffffffffffffffff1673ffffffffffffffffffffffffffffffffffffffff16815260200190815260200160002060006101000a81548160ff021916908315150217905550620004de6742af4173fa3ce21560c01b6200059960201b60201c565b620004fa67def054ac5e0e1d9460c01b6200059960201b60201c565b6000819080600181540180825580915050600190039060005260206000200160009091909190916101000a81548173ffffffffffffffffffffffffffffffffffffffff021916908373ffffffffffffffffffffffffffffffffffffffff16021790555050808060010191505062000209565b506200058967bb4529980de537e860c01b6200059960201b60201c565b8060808181525050505062000a59565b50565b6000604051905090565b600080fd5b600080fd5b600080fd5b6000601f19601f8301169050919050565b7f4e487b7100000000000000000000000000000000000000000000000000000000600052604160045260246000fd5b6200060082620005b5565b810181811067ffffffffffffffff82111715620006225762000621620005c6565b5b80604052505050565b6000620006376200059c565b9050620006458282620005f5565b919050565b600067ffffffffffffffff821115620006685762000667620005c6565b5b602082029050602081019050919050565b600080fd5b600073ffffffffffffffffffffffffffffffffffffffff82169050919050565b6000620006ab826200067e565b9050919050565b620006bd816200069e565b8114620006c957600080fd5b50565b600081519050620006dd81620006b2565b92915050565b6000620006fa620006f4846200064a565b6200062b565b9050808382526020820190506020840283018581111562000720576200071f62000679565b5b835b818110156200074d5780620007388882620006cc565b84526020840193505060208101905062000722565b5050509392505050565b600082601f8301126200076f576200076e620005b0565b5b815162000781848260208601620006e3565b91505092915050565b6000819050919050565b6200079f816200078a565b8114620007ab57600080fd5b50565b600081519050620007bf8162000794565b92915050565b60008060408385031215620007df57620007de620005a6565b5b600083015167ffffffffffffffff8111156200080057620007ff620005ab565b5b6200080e8582860162000757565b92505060206200082185828601620007ae565b9150509250929050565b600082825260208201905092915050565b7f6f776e6572732072657175697265640000000000000000000000000000000000600082015250565b600062000874600f836200082b565b915062000881826200083c565b602082019050919050565b60006020820190508181036000830152620008a78162000865565b9050919050565b7f696e76616c6964206e756d626572206f662072657175697265642071756f727560008201527f6d00000000000000000000000000000000000000000000000000000000000000602082015250565b60006200090c6021836200082b565b91506200091982620008ae565b604082019050919050565b600060208201905081810360008301526200093f81620008fd565b9050919050565b7f4e487b7100000000000000000000000000000000000000000000000000000000600052603260045260246000fd5b7f696e76616c6964206f776e657200000000000000000000000000000000000000600082015250565b6000620009ad600d836200082b565b9150620009ba8262000975565b602082019050919050565b60006020820190508181036000830152620009e0816200099e565b9050919050565b7f6f776e6572206e6f7420756e6971756500000000000000000000000000000000600082015250565b600062000a1f6010836200082b565b915062000a2c82620009e7565b602082019050919050565b6000602082019050818103600083015262000a528162000a10565b9050919050565b608051611ccc62000a7c600039600081816109ca01526111c20152611ccc6000f3fe6080604052600436106100c65760003560e01c80635cc070761161007f5780639522059c116100595780639522059c14610300578063a0e67e2b1461032b578063a9d3106614610356578063d0e30db01461039657610131565b80635cc070761461026a5780636747dad7146102aa578063722713f7146102d557610131565b8063025e7c27146101365780631b671a40146101735780632f54bf6e1461019c5780633ebae36f146101d95780634b465d741461020257806356c316371461022d57610131565b36610131576100df67afc2aaef91cafd9460c01b6103a0565b3373ffffffffffffffffffffffffffffffffffffffff167f90890809c654f11d6e72a28fa60149770a0d11ec6c92319d6ceb2bb0a4ea1a153447604051610127929190611598565b60405180910390a2005b600080fd5b34801561014257600080fd5b5061015d600480360381019061015891906115f2565b6103a3565b60405161016a9190611660565b60405180910390f35b34801561017f57600080fd5b5061019a600480360381019061019591906115f2565b6103e2565b005b3480156101a857600080fd5b506101c360048036038101906101be91906116a7565b610c12565b6040516101d091906116ef565b60405180910390f35b3480156101e557600080fd5b5061020060048036038101906101fb9190611748565b610c32565b005b34801561020e57600080fd5b50610217610f77565b60405161022491906118b9565b60405180910390f35b34801561023957600080fd5b50610254600480360381019061024f91906118db565b611097565b60405161026191906116ef565b60405180910390f35b34801561027657600080fd5b50610291600480360381019061028c91906115f2565b6110c6565b6040516102a1949392919061192a565b60405180910390f35b3480156102b657600080fd5b506102bf611133565b6040516102cc919061196f565b60405180910390f35b3480156102e157600080fd5b506102ea61117c565b6040516102f7919061196f565b60405180910390f35b34801561030c57600080fd5b506103156111c0565b604051610322919061196f565b60405180910390f35b34801561033757600080fd5b506103406111e4565b60405161034d9190611a48565b60405180910390f35b34801561036257600080fd5b5061037d600480360381019061037891906115f2565b6112ae565b60405161038d9493929190611a6a565b60405180910390f35b61039e6114f1565b005b50565b600081815481106103b357600080fd5b906000526020600020016000915054906101000a900473ffffffffffffffffffffffffffffffffffffffff1681565b6103f667c6b0c37e7f2fcf8860c01b6103a0565b61040a677d2247673929fe9660c01b6103a0565b61041e67ce8969155c4c087160c01b6103a0565b610432677547571930d53be460c01b6103a0565b6104466717ed5e91ba98b1b060c01b6103a0565b60011515600160003373ffffffffffffffffffffffffffffffffffffffff1673ffffffffffffffffffffffffffffffffffffffff16815260200190815260200160002060009054906101000a900460ff161515146104d9576040517f08c379a00000000000000000000000000000000000000000000000000000000081526004016104d090611b32565b60405180910390fd5b6104ed67eb1ffb9fb9d64f9560c01b6103a0565b61050167a1b3b05510f42ab460c01b6103a0565b610514668044be119d3c3960c01b6103a0565b610528678b5386a65481e36260c01b6103a0565b8061053d679dc26228891fb10560c01b6103a0565b61055167720430045e88029960c01b6103a0565b610565671431d3aae02436d860c01b6103a0565b60038054905081106105d6576105856775ce65a8cda8475460c01b6103a0565b6105996719315068db02c9c860c01b6103a0565b806040517fcfcd3b320000000000000000000000000000000000000000000000000000000081526004016105cd919061196f565b60405180910390fd5b6105ea6709f2c9cc2e721b4160c01b6103a0565b6105fe67f193d53272e0e63660c01b6103a0565b61061267b61f24b317e0077060c01b6103a0565b6106266789040d3b58cea1b960c01b6103a0565b8161063b678f22e625dc1ca2fb60c01b6103a0565b61064f67f5b3a09feee5c37660c01b6103a0565b610663679af7b94a2d1fa3a960c01b6103a0565b6002600082815260200190815260200160002060003373ffffffffffffffffffffffffffffffffffffffff1673ffffffffffffffffffffffffffffffffffffffff16815260200190815260200160002060009054906101000a900460ff161561072b576106da6789c40505ec4aa27560c01b6103a0565b6106ee67273ffdc4931358dc60c01b6103a0565b806040517f6b771e4a000000000000000000000000000000000000000000000000000000008152600401610722919061196f565b60405180910390fd5b61073f67759299b6559043e660c01b6103a0565b6107536793c54a18c55f9f0c60c01b6103a0565b610767675951f49df5b7110e60c01b6103a0565b61077b6732f07a969fa4204460c01b6103a0565b8261079067e6792a28689a2b3c60c01b6103a0565b6107a46724fb0c5e1c263f4260c01b6103a0565b6107b8674a3316422592215460c01b6103a0565b600381815481106107cc576107cb611b52565b5b906000526020600020906004020160030160009054906101000a900460ff161561085557610804671cd09ce96115609760c01b6103a0565b61081867a8b33037cfb8f88260c01b6103a0565b806040517f1b344ee700000000000000000000000000000000000000000000000000000000815260040161084c919061196f565b60405180910390fd5b6108696799f0dc1aab79328e60c01b6103a0565b61087d6708eee2854d646a7f60c01b6103a0565b6108916741c1c36b83b977b760c01b6103a0565b6108a567778dce6ce0b6591b60c01b6103a0565b6108b967d3ab07bc4045f21660c01b6103a0565b60016002600086815260200190815260200160002060003373ffffffffffffffffffffffffffffffffffffffff1673ffffffffffffffffffffffffffffffffffffffff16815260200190815260200160002060006101000a81548160ff021916908315150217905550610936678bf764929111dc7d60c01b6103a0565b61094a67fc62074512b8ebb460c01b6103a0565b6000600385815481106109605761095f611b52565b5b9060005260206000209060040201905061098467709b889ee35d606e60c01b6103a0565b60018160020160008282546109999190611bb0565b925050819055506109b4678bd8217ce53cbac060c01b6103a0565b6109c867fdb5ad2891915e9c60c01b6103a0565b7f0000000000000000000000000000000000000000000000000000000000000000816002015410610bf657610a076760474023ee365ff560c01b6103a0565b610a1b677f7993a7d58056d660c01b6103a0565b60018160030160006101000a81548160ff021916908315150217905550610a4c67e72c1cf26b8a617260c01b6103a0565b610a6067d09a9ac66074e8fb60c01b6103a0565b60008160000160009054906101000a900473ffffffffffffffffffffffffffffffffffffffff1673ffffffffffffffffffffffffffffffffffffffff168260010154604051610aae90611c15565b60006040518083038185875af1925050503d8060008114610aeb576040519150601f19603f3d011682016040523d82523d6000602084013e610af0565b606091505b50509050610b086797ce254ba028580160c01b6103a0565b610b1c67c6c74ab7cd52acd860c01b6103a0565b610b3067cd8d1834c9944fff60c01b6103a0565b80610b70576040517f08c379a0000000000000000000000000000000000000000000000000000000008152600401610b6790611c76565b60405180910390fd5b610b8467c0ef0aa01b53628060c01b6103a0565b610b98675f298aa271cd10fa60c01b6103a0565b610bac67425e3458b838bfd260c01b6103a0565b853373ffffffffffffffffffffffffffffffffffffffff167fe6266574c540a6eace832e59bc4fa1d3c8a6c570042f03f6eb69c252cb71395560405160405180910390a350610c0b565b610c0a679526f48defda0c8560c01b6103a0565b5b5050505050565b60016020528060005260406000206000915054906101000a900460ff1681565b610c4667111bb068072af3f060c01b6103a0565b610c5a677d2247673929fe9660c01b6103a0565b610c6e67ce8969155c4c087160c01b6103a0565b610c82677547571930d53be460c01b6103a0565b610c966717ed5e91ba98b1b060c01b6103a0565b60011515600160003373ffffffffffffffffffffffffffffffffffffffff1673ffffffffffffffffffffffffffffffffffffffff16815260200190815260200160002060009054906101000a900460ff16151514610d29576040517f08c379a0000000000000000000000000000000000000000000000000000000008152600401610d2090611b32565b60405180910390fd5b610d3d67eb1ffb9fb9d64f9560c01b6103a0565b610d5167a1b3b05510f42ab460c01b6103a0565b610d6567fbbe4a7c13e3bef060c01b6103a0565b610d7967ba0c5de7d04434f560c01b6103a0565b610d8d6758892319041e585760c01b6103a0565b610da167691440a331a105d360c01b6103a0565b600060405180608001604052808473ffffffffffffffffffffffffffffffffffffffff16815260200183815260200160008152602001600015158152509050610df4672debee46e3be1d2260c01b6103a0565b610e086789138a722b221db460c01b6103a0565b60006003805490509050610e2667d94955c84ff9831a60c01b6103a0565b610e3a672b20992c092b10ac60c01b6103a0565b600382908060018154018082558091505060019003906000526020600020906004020160009091909190915060008201518160000160006101000a81548173ffffffffffffffffffffffffffffffffffffffff021916908373ffffffffffffffffffffffffffffffffffffffff160217905550602082015181600101556040820151816002015560608201518160030160006101000a81548160ff0219169083151502179055505050610ef76724df23e7eca3af0a60c01b6103a0565b610f0b6711152f9390f4b53c60c01b6103a0565b8373ffffffffffffffffffffffffffffffffffffffff16813373ffffffffffffffffffffffffffffffffffffffff167f101a85d062d4f96045d6889441dd96dda5e818771df426a14e74d54b0ee9e1ce86604051610f69919061196f565b60405180910390a450505050565b6060610f8d673af2b05aa8aedb7f60c01b6103a0565b610fa167c4b5a91f95d24df260c01b6103a0565b610fb5673b02f711f5adf38e60c01b6103a0565b6003805480602002602001604051908101604052809291908181526020016000905b8282101561108e57838290600052602060002090600402016040518060800160405290816000820160009054906101000a900473ffffffffffffffffffffffffffffffffffffffff1673ffffffffffffffffffffffffffffffffffffffff1673ffffffffffffffffffffffffffffffffffffffff16815260200160018201548152602001600282015481526020016003820160009054906101000a900460ff16151515158152505081526020019060010190610fd7565b50505050905090565b60026020528160005260406000206020528060005260406000206000915091509054906101000a900460ff1681565b600381815481106110d657600080fd5b90600052602060002090600402016000915090508060000160009054906101000a900473ffffffffffffffffffffffffffffffffffffffff16908060010154908060020154908060030160009054906101000a900460ff16905084565b6000611149677d361815f9d2b64360c01b6103a0565b61115d67d888b274cb304f0b60c01b6103a0565b611171676940fdcfc6a18be260c01b6103a0565b600380549050905090565b60006111926746cfcec8799d054c60c01b6103a0565b6111a6671759216998cdab3f60c01b6103a0565b6111ba6751088e030d9733b460c01b6103a0565b47905090565b7f000000000000000000000000000000000000000000000000000000000000000081565b60606111fa67da52e8a71fa776ce60c01b6103a0565b61120e67e2e4007bec18ea2e60c01b6103a0565b61122267ea1a2aff73c6095e60c01b6103a0565b60008054806020026020016040519081016040528092919081815260200182805480156112a457602002820191906000526020600020905b8160009054906101000a900473ffffffffffffffffffffffffffffffffffffffff1673ffffffffffffffffffffffffffffffffffffffff168152602001906001019080831161125a575b5050505050905090565b6000806000806112c8674da793e8c23a84f060c01b6103a0565b846112dd679dc26228891fb10560c01b6103a0565b6112f167720430045e88029960c01b6103a0565b611305671431d3aae02436d860c01b6103a0565b6003805490508110611376576113256775ce65a8cda8475460c01b6103a0565b6113396719315068db02c9c860c01b6103a0565b806040517fcfcd3b3200000000000000000000000000000000000000000000000000000000815260040161136d919061196f565b60405180910390fd5b61138a6709f2c9cc2e721b4160c01b6103a0565b61139e67f193d53272e0e63660c01b6103a0565b6113b267f4cdc5d720a5b08f60c01b6103a0565b6113c6675f237427dfa0d55260c01b6103a0565b6113da6780d69dcd31af7f0d60c01b6103a0565b6113ee671e8ab7496ef1d51260c01b6103a0565b60006003878154811061140457611403611b52565b5b90600052602060002090600402016040518060800160405290816000820160009054906101000a900473ffffffffffffffffffffffffffffffffffffffff1673ffffffffffffffffffffffffffffffffffffffff1673ffffffffffffffffffffffffffffffffffffffff16815260200160018201548152602001600282015481526020016003820160009054906101000a900460ff16151515158152505090506114b867fe69a2c192e2c70f60c01b6103a0565b6114cc6712557a5b360df5d460c01b6103a0565b8060000151816020015182604001518360600151955095509550955050509193509193565b61150567e2958de8621da7cf60c01b6103a0565b611519678e37ae7586cfe30260c01b6103a0565b61152d67590eaab18de8409560c01b6103a0565b3373ffffffffffffffffffffffffffffffffffffffff167f90890809c654f11d6e72a28fa60149770a0d11ec6c92319d6ceb2bb0a4ea1a153447604051611575929190611598565b60405180910390a2565b6000819050919050565b6115928161157f565b82525050565b60006040820190506115ad6000830185611589565b6115ba6020830184611589565b9392505050565b600080fd5b6115cf8161157f565b81146115da57600080fd5b50565b6000813590506115ec816115c6565b92915050565b600060208284031215611608576116076115c1565b5b6000611616848285016115dd565b91505092915050565b600073ffffffffffffffffffffffffffffffffffffffff82169050919050565b600061164a8261161f565b9050919050565b61165a8161163f565b82525050565b60006020820190506116756000830184611651565b92915050565b6116848161163f565b811461168f57600080fd5b50565b6000813590506116a18161167b565b92915050565b6000602082840312156116bd576116bc6115c1565b5b60006116cb84828501611692565b91505092915050565b60008115159050919050565b6116e9816116d4565b82525050565b600060208201905061170460008301846116e0565b92915050565b60006117158261161f565b9050919050565b6117258161170a565b811461173057600080fd5b50565b6000813590506117428161171c565b92915050565b6000806040838503121561175f5761175e6115c1565b5b600061176d85828601611733565b925050602061177e858286016115dd565b9150509250929050565b600081519050919050565b600082825260208201905092915050565b6000819050602082019050919050565b6117bd8161170a565b82525050565b6117cc8161157f565b82525050565b6117db816116d4565b82525050565b6080820160008201516117f760008501826117b4565b50602082015161180a60208501826117c3565b50604082015161181d60408501826117c3565b50606082015161183060608501826117d2565b50505050565b600061184283836117e1565b60808301905092915050565b6000602082019050919050565b600061186682611788565b6118708185611793565b935061187b836117a4565b8060005b838110156118ac5781516118938882611836565b975061189e8361184e565b92505060018101905061187f565b5085935050505092915050565b600060208201905081810360008301526118d3818461185b565b905092915050565b600080604083850312156118f2576118f16115c1565b5b6000611900858286016115dd565b925050602061191185828601611692565b9150509250929050565b6119248161170a565b82525050565b600060808201905061193f600083018761191b565b61194c6020830186611589565b6119596040830185611589565b61196660608301846116e0565b95945050505050565b60006020820190506119846000830184611589565b92915050565b600081519050919050565b600082825260208201905092915050565b6000819050602082019050919050565b6119bf8161163f565b82525050565b60006119d183836119b6565b60208301905092915050565b6000602082019050919050565b60006119f58261198a565b6119ff8185611995565b9350611a0a836119a6565b8060005b83811015611a3b578151611a2288826119c5565b9750611a2d836119dd565b925050600181019050611a0e565b5085935050505092915050565b60006020820190508181036000830152611a6281846119ea565b905092915050565b6000608082019050611a7f6000830187611651565b611a8c6020830186611589565b611a996040830185611589565b611aa660608301846116e0565b95945050505050565b600082825260208201905092915050565b7f41646472657373206d757374206265206f6e65206f6620746865206f776e657260008201527f7300000000000000000000000000000000000000000000000000000000000000602082015250565b6000611b1c602183611aaf565b9150611b2782611ac0565b604082019050919050565b60006020820190508181036000830152611b4b81611b0f565b9050919050565b7f4e487b7100000000000000000000000000000000000000000000000000000000600052603260045260246000fd5b7f4e487b7100000000000000000000000000000000000000000000000000000000600052601160045260246000fd5b6000611bbb8261157f565b9150611bc68361157f565b9250828201905080821115611bde57611bdd611b81565b5b92915050565b600081905092915050565b50565b6000611bff600083611be4565b9150611c0a82611bef565b600082019050919050565b6000611c2082611bf2565b9150819050919050565b7f7472616e73616374696f6e206661696c65640000000000000000000000000000600082015250565b6000611c60601283611aaf565b9150611c6b82611c2a565b602082019050919050565b60006020820190508181036000830152611c8f81611c53565b905091905056fea26469706673582212206a0cdfc3692e4808fccbf8bc359f0a574302acd3137eb6d7b50ff5e5b02d3e2e64736f6c63430008170033",
  "linkReferences": {},
  "deployedLinkReferences": {}
}