{"contracts/Factory.sol":{"Factory":{"abi":[{"inputs":[{"internalType":"address[]","name":"_addresses","type":"address[]"},{"internalType":"uint256","name":"_quorem","type":"uint256"}],"stateMutability":"nonpayable","type":"constructor"},{"anonymous":false,"inputs":[{"indexed":false,"internalType":"uint256","name":"index","type":"uint256"},{"indexed":true,"internalType":"address","name":"sender","type":"address"}],"name":"WalletCreated","type":"event"},{"inputs":[{"internalType":"address[]","name":"_addresses","type":"address[]"},{"internalType":"uint256","name":"_quorem","type":"uint256"}],"name":"createNewWallet","outputs":[],"stateMutability":"nonpayable","type":"function"},{"inputs":[],"name":"getWalletCount","outputs":[{"internalType":"uint256","name":"","type":"uint256"}],"stateMutability":"view","type":"function"},{"inputs":[],"name":"getWalletList","outputs":[{"internalType":"address[]","name":"","type":"address[]"}],"stateMutability":"view","type":"function"},{"inputs":[{"internalType":"uint256","name":"","type":"uint256"}],"name":"walletArray","outputs":[{"internalType":"contract MultiSigWallet","name":"","type":"address"}],"stateMutability":"view","type":"function"}],"evm":{"bytecode":{"linkReferences":{},"object":"60806040523480156200001157600080fd5b5060405162005f2c38038062005f2c8339818101604052810190620000379190620004dc565b62000053671d037d90ccd6a46760c01b620000a560201b60201c565b6200006f673c1fc2a2ce149fa760c01b620000a560201b60201c565b6200008b67a3679f7d36bd837260c01b620000a560201b60201c565b6200009d8282620000a860201b60201c565b505062000672565b50565b620000c4673f9917347d8797b760c01b620000a560201b60201c565b620000e067a8d8778f40e0583f60c01b620000a560201b60201c565b620000fc670a44fa42066d94f160c01b620000a560201b60201c565b600082826040516200010e90620002a5565b6200011b92919062000621565b604051809103906000f08015801562000138573d6000803e3d6000fd5b50905062000157678e1e20b226bbff4f60c01b620000a560201b60201c565b620001736788b174da6ed0b5ca60c01b620000a560201b60201c565b6000808054905090506200019867d3e8a758b136951160c01b620000a560201b60201c565b620001b4677c0b5b6203e2898360c01b620000a560201b60201c565b6000829080600181540180825580915050600190039060005260206000200160009091909190916101000a81548173ffffffffffffffffffffffffffffffffffffffff021916908373ffffffffffffffffffffffffffffffffffffffff1602179055506200023367ccab58b8c637751d60c01b620000a560201b60201c565b6200024f674b7e711adda8287960c01b620000a560201b60201c565b3373ffffffffffffffffffffffffffffffffffffffff167f470292d5e9c87e6d5a100a14c56a434c9f25e9e2be1d5efa70c3b5f9aeda505f8260405162000297919062000655565b60405180910390a250505050565b61274880620037e483390190565b6000604051905090565b600080fd5b600080fd5b600080fd5b6000601f19601f8301169050919050565b7f4e487b7100000000000000000000000000000000000000000000000000000000600052604160045260246000fd5b6200031782620002cc565b810181811067ffffffffffffffff82111715620003395762000338620002dd565b5b80604052505050565b60006200034e620002b3565b90506200035c82826200030c565b919050565b600067ffffffffffffffff8211156200037f576200037e620002dd565b5b602082029050602081019050919050565b600080fd5b600073ffffffffffffffffffffffffffffffffffffffff82169050919050565b6000620003c28262000395565b9050919050565b620003d481620003b5565b8114620003e057600080fd5b50565b600081519050620003f481620003c9565b92915050565b6000620004116200040b8462000361565b62000342565b9050808382526020820190506020840283018581111562000437576200043662000390565b5b835b818110156200046457806200044f8882620003e3565b84526020840193505060208101905062000439565b5050509392505050565b600082601f830112620004865762000485620002c7565b5b815162000498848260208601620003fa565b91505092915050565b6000819050919050565b620004b681620004a1565b8114620004c257600080fd5b50565b600081519050620004d681620004ab565b92915050565b60008060408385031215620004f657620004f5620002bd565b5b600083015167ffffffffffffffff811115620005175762000516620002c2565b5b62000525858286016200046e565b92505060206200053885828601620004c5565b9150509250929050565b600081519050919050565b600082825260208201905092915050565b6000819050602082019050919050565b6200057981620003b5565b82525050565b60006200058d83836200056e565b60208301905092915050565b6000602082019050919050565b6000620005b38262000542565b620005bf81856200054d565b9350620005cc836200055e565b8060005b8381101562000603578151620005e788826200057f565b9750620005f48362000599565b925050600181019050620005d0565b5085935050505092915050565b6200061b81620004a1565b82525050565b600060408201905081810360008301526200063d8185620005a6565b90506200064e602083018462000610565b9392505050565b60006020820190506200066c600083018462000610565b92915050565b61316280620006826000396000f3fe60806040523480156200001157600080fd5b5060043610620000525760003560e01c8063745bd5a21462000057578063cebac5e31462000079578063d2de50721462000099578063fc9ffe0214620000cf575b600080fd5b62000061620000f1565b60405162000070919062000533565b60405180910390f35b6200009760048036038101906200009191906200076f565b62000140565b005b620000b76004803603810190620000b19190620007d5565b62000307565b604051620000c6919062000872565b60405180910390f35b620000d962000347565b604051620000e891906200095d565b60405180910390f35b600062000109674efb663839295b3c60c01b62000507565b6200011f67ffaaac87d3de0a5f60c01b62000507565b62000135670d2892350a4f0fc660c01b62000507565b600080549050905090565b62000156673f9917347d8797b760c01b62000507565b6200016c67a8d8778f40e0583f60c01b62000507565b62000182670a44fa42066d94f160c01b62000507565b6000828260405162000194906200050a565b620001a192919062000981565b604051809103906000f080158015620001be573d6000803e3d6000fd5b509050620001d7678e1e20b226bbff4f60c01b62000507565b620001ed6788b174da6ed0b5ca60c01b62000507565b6000808054905090506200020c67d3e8a758b136951160c01b62000507565b62000222677c0b5b6203e2898360c01b62000507565b6000829080600181540180825580915050600190039060005260206000200160009091909190916101000a81548173ffffffffffffffffffffffffffffffffffffffff021916908373ffffffffffffffffffffffffffffffffffffffff1602179055506200029b67ccab58b8c637751d60c01b62000507565b620002b1674b7e711adda8287960c01b62000507565b3373ffffffffffffffffffffffffffffffffffffffff167f470292d5e9c87e6d5a100a14c56a434c9f25e9e2be1d5efa70c3b5f9aeda505f82604051620002f9919062000533565b60405180910390a250505050565b600081815481106200031857600080fd5b906000526020600020016000915054906101000a900473ffffffffffffffffffffffffffffffffffffffff1681565b60606200035f67b4dda0183336604c60c01b62000507565b62000375673be3a818d7bfd02e60c01b62000507565b6200038b67a586790d26c239ac60c01b62000507565b6000808054905067ffffffffffffffff811115620003ae57620003ad6200057a565b5b604051908082528060200260200182016040528015620003dd5781602001602082028036833780820191505090505b509050620003f66705f5cc037eeb1efa60c01b62000507565b6200040c67e19227a607660ff760c01b62000507565b60005b600080549050811015620004d357620004336788873a2ff420490e60c01b62000507565b600081815481106200044a5762000449620009b5565b5b9060005260206000200160009054906101000a900473ffffffffffffffffffffffffffffffffffffffff168282815181106200048b576200048a620009b5565b5b602002602001019073ffffffffffffffffffffffffffffffffffffffff16908173ffffffffffffffffffffffffffffffffffffffff168152505080806001019150506200040f565b50620004ea67045d5016b96cbf5460c01b62000507565b6200050067e59d88c4afe829aa60c01b62000507565b8091505090565b50565b61274880620009e583390190565b6000819050919050565b6200052d8162000518565b82525050565b60006020820190506200054a600083018462000522565b92915050565b6000604051905090565b600080fd5b600080fd5b600080fd5b6000601f19601f8301169050919050565b7f4e487b7100000000000000000000000000000000000000000000000000000000600052604160045260246000fd5b620005b48262000569565b810181811067ffffffffffffffff82111715620005d657620005d56200057a565b5b80604052505050565b6000620005eb62000550565b9050620005f98282620005a9565b919050565b600067ffffffffffffffff8211156200061c576200061b6200057a565b5b602082029050602081019050919050565b600080fd5b600073ffffffffffffffffffffffffffffffffffffffff82169050919050565b60006200065f8262000632565b9050919050565b620006718162000652565b81146200067d57600080fd5b50565b600081359050620006918162000666565b92915050565b6000620006ae620006a884620005fe565b620005df565b90508083825260208201905060208402830185811115620006d457620006d36200062d565b5b835b81811015620007015780620006ec888262000680565b845260208401935050602081019050620006d6565b5050509392505050565b600082601f83011262000723576200072262000564565b5b81356200073584826020860162000697565b91505092915050565b620007498162000518565b81146200075557600080fd5b50565b60008135905062000769816200073e565b92915050565b600080604083850312156200078957620007886200055a565b5b600083013567ffffffffffffffff811115620007aa57620007a96200055f565b5b620007b8858286016200070b565b9250506020620007cb8582860162000758565b9150509250929050565b600060208284031215620007ee57620007ed6200055a565b5b6000620007fe8482850162000758565b91505092915050565b6000819050919050565b6000620008326200082c620008268462000632565b62000807565b62000632565b9050919050565b6000620008468262000811565b9050919050565b60006200085a8262000839565b9050919050565b6200086c816200084d565b82525050565b600060208201905062000889600083018462000861565b92915050565b600081519050919050565b600082825260208201905092915050565b6000819050602082019050919050565b620008c68162000652565b82525050565b6000620008da8383620008bb565b60208301905092915050565b6000602082019050919050565b600062000900826200088f565b6200090c81856200089a565b93506200091983620008ab565b8060005b8381101562000950578151620009348882620008cc565b97506200094183620008e6565b9250506001810190506200091d565b5085935050505092915050565b60006020820190508181036000830152620009798184620008f3565b905092915050565b600060408201905081810360008301526200099d8185620008f3565b9050620009ae602083018462000522565b9392505050565b7f4e487b7100000000000000000000000000000000000000000000000000000000600052603260045260246000fdfe60a06040523480156200001157600080fd5b5060405162002748380380620027488339818101604052810190620000379190620007c5565b62000053679a3501c4f24d92f760c01b6200059960201b60201c565b6200006f679405006347c2bacf60c01b6200059960201b60201c565b6200008b67fafe303f6188df2b60c01b6200059960201b60201c565b620000a7674228de60dc6cd39560c01b6200059960201b60201c565b6000825111620000ee576040517f08c379a0000000000000000000000000000000000000000000000000000000008152600401620000e5906200088c565b60405180910390fd5b6200010a679f41a444e3b48ac760c01b6200059960201b60201c565b62000126671def365669992f0160c01b6200059960201b60201c565b6200014267e1bf961522b6026260c01b6200059960201b60201c565b6200015e67dd40c59854e481d360c01b6200059960201b60201c565b60008111801562000170575081518111155b620001b2576040517f08c379a0000000000000000000000000000000000000000000000000000000008152600401620001a99062000924565b60405180910390fd5b620001ce674a04155b2440e39b60c01b6200059960201b60201c565b620001ea67c28b74028ea993e060c01b6200059960201b60201c565b6200020667e1ff14cb7ed2353e60c01b6200059960201b60201c565b60005b82518110156200056c576200022f67db9facb5271c0b6c60c01b6200059960201b60201c565b6200024b67b913a6cdb74cb2ec60c01b6200059960201b60201c565b600083828151811062000263576200026262000946565b5b602002602001015190506200028967138ccc31bfd89af560c01b6200059960201b60201c565b620002a5672fb7e4fa97e8c65160c01b6200059960201b60201c565b620002c1675311a44d1a96f28a60c01b6200059960201b60201c565b600073ffffffffffffffffffffffffffffffffffffffff168173ffffffffffffffffffffffffffffffffffffffff160362000333576040517f08c379a00000000000000000000000000000000000000000000000000000000081526004016200032a90620009c5565b60405180910390fd5b6200034f67f43d6ba53857d6c860c01b6200059960201b60201c565b6200036b67961a360982f5cee960c01b6200059960201b60201c565b62000387672ee30915e732c81f60c01b6200059960201b60201c565b620003a367e95bece66863632260c01b6200059960201b60201c565b600160008273ffffffffffffffffffffffffffffffffffffffff1673ffffffffffffffffffffffffffffffffffffffff16815260200190815260200160002060009054906101000a900460ff161562000433576040517f08c379a00000000000000000000000000000000000000000000000000000000081526004016200042a9062000a37565b60405180910390fd5b6200044f677e5e43438a7f78a360c01b6200059960201b60201c565b6200046b679abcea1ed140656b60c01b6200059960201b60201c565b60018060008373ffffffffffffffffffffffffffffffffffffffff1673ffffffffffffffffffffffffffffffffffffffff16815260200190815260200160002060006101000a81548160ff021916908315150217905550620004de6742af4173fa3ce21560c01b6200059960201b60201c565b620004fa67def054ac5e0e1d9460c01b6200059960201b60201c565b6000819080600181540180825580915050600190039060005260206000200160009091909190916101000a81548173ffffffffffffffffffffffffffffffffffffffff021916908373ffffffffffffffffffffffffffffffffffffffff16021790555050808060010191505062000209565b506200058967bb4529980de537e860c01b6200059960201b60201c565b8060808181525050505062000a59565b50565b6000604051905090565b600080fd5b600080fd5b600080fd5b6000601f19601f8301169050919050565b7f4e487b7100000000000000000000000000000000000000000000000000000000600052604160045260246000fd5b6200060082620005b5565b810181811067ffffffffffffffff82111715620006225762000621620005c6565b5b80604052505050565b6000620006376200059c565b9050620006458282620005f5565b919050565b600067ffffffffffffffff821115620006685762000667620005c6565b5b602082029050602081019050919050565b600080fd5b600073ffffffffffffffffffffffffffffffffffffffff82169050919050565b6000620006ab826200067e565b9050919050565b620006bd816200069e565b8114620006c957600080fd5b50565b600081519050620006dd81620006b2565b92915050565b6000620006fa620006f4846200064a565b6200062b565b9050808382526020820190506020840283018581111562000720576200071f62000679565b5b835b818110156200074d5780620007388882620006cc565b84526020840193505060208101905062000722565b5050509392505050565b600082601f8301126200076f576200076e620005b0565b5b815162000781848260208601620006e3565b91505092915050565b6000819050919050565b6200079f816200078a565b8114620007ab57600080fd5b50565b600081519050620007bf8162000794565b92915050565b60008060408385031215620007df57620007de620005a6565b5b600083015167ffffffffffffffff8111156200080057620007ff620005ab565b5b6200080e8582860162000757565b92505060206200082185828601620007ae565b9150509250929050565b600082825260208201905092915050565b7f6f776e6572732072657175697265640000000000000000000000000000000000600082015250565b600062000874600f836200082b565b915062000881826200083c565b602082019050919050565b60006020820190508181036000830152620008a78162000865565b9050919050565b7f696e76616c6964206e756d626572206f662072657175697265642071756f727560008201527f6d00000000000000000000000000000000000000000000000000000000000000602082015250565b60006200090c6021836200082b565b91506200091982620008ae565b604082019050919050565b600060208201905081810360008301526200093f81620008fd565b9050919050565b7f4e487b7100000000000000000000000000000000000000000000000000000000600052603260045260246000fd5b7f696e76616c6964206f776e657200000000000000000000000000000000000000600082015250565b6000620009ad600d836200082b565b9150620009ba8262000975565b602082019050919050565b60006020820190508181036000830152620009e0816200099e565b9050919050565b7f6f776e6572206e6f7420756e6971756500000000000000000000000000000000600082015250565b600062000a1f6010836200082b565b915062000a2c82620009e7565b602082019050919050565b6000602082019050818103600083015262000a528162000a10565b9050919050565b608051611ccc62000a7c600039600081816109ca01526111c20152611ccc6000f3fe6080604052600436106100c65760003560e01c80635cc070761161007f5780639522059c116100595780639522059c14610300578063a0e67e2b1461032b578063a9d3106614610356578063d0e30db01461039657610131565b80635cc070761461026a5780636747dad7146102aa578063722713f7146102d557610131565b8063025e7c27146101365780631b671a40146101735780632f54bf6e1461019c5780633ebae36f146101d95780634b465d741461020257806356c316371461022d57610131565b36610131576100df67afc2aaef91cafd9460c01b6103a0565b3373ffffffffffffffffffffffffffffffffffffffff167f90890809c654f11d6e72a28fa60149770a0d11ec6c92319d6ceb2bb0a4ea1a153447604051610127929190611598565b60405180910390a2005b600080fd5b34801561014257600080fd5b5061015d600480360381019061015891906115f2565b6103a3565b60405161016a9190611660565b60405180910390f35b34801561017f57600080fd5b5061019a600480360381019061019591906115f2565b6103e2565b005b3480156101a857600080fd5b506101c360048036038101906101be91906116a7565b610c12565b6040516101d091906116ef565b60405180910390f35b3480156101e557600080fd5b5061020060048036038101906101fb9190611748565b610c32565b005b34801561020e57600080fd5b50610217610f77565b60405161022491906118b9565b60405180910390f35b34801561023957600080fd5b50610254600480360381019061024f91906118db565b611097565b60405161026191906116ef565b60405180910390f35b34801561027657600080fd5b50610291600480360381019061028c91906115f2565b6110c6565b6040516102a1949392919061192a565b60405180910390f35b3480156102b657600080fd5b506102bf611133565b6040516102cc919061196f565b60405180910390f35b3480156102e157600080fd5b506102ea61117c565b6040516102f7919061196f565b60405180910390f35b34801561030c57600080fd5b506103156111c0565b604051610322919061196f565b60405180910390f35b34801561033757600080fd5b506103406111e4565b60405161034d9190611a48565b60405180910390f35b34801561036257600080fd5b5061037d600480360381019061037891906115f2565b6112ae565b60405161038d9493929190611a6a565b60405180910390f35b61039e6114f1565b005b50565b600081815481106103b357600080fd5b906000526020600020016000915054906101000a900473ffffffffffffffffffffffffffffffffffffffff1681565b6103f667c6b0c37e7f2fcf8860c01b6103a0565b61040a677d2247673929fe9660c01b6103a0565b61041e67ce8969155c4c087160c01b6103a0565b610432677547571930d53be460c01b6103a0565b6104466717ed5e91ba98b1b060c01b6103a0565b60011515600160003373ffffffffffffffffffffffffffffffffffffffff1673ffffffffffffffffffffffffffffffffffffffff16815260200190815260200160002060009054906101000a900460ff161515146104d9576040517f08c379a00000000000000000000000000000000000000000000000000000000081526004016104d090611b32565b60405180910390fd5b6104ed67eb1ffb9fb9d64f9560c01b6103a0565b61050167a1b3b05510f42ab460c01b6103a0565b610514668044be119d3c3960c01b6103a0565b610528678b5386a65481e36260c01b6103a0565b8061053d679dc26228891fb10560c01b6103a0565b61055167720430045e88029960c01b6103a0565b610565671431d3aae02436d860c01b6103a0565b60038054905081106105d6576105856775ce65a8cda8475460c01b6103a0565b6105996719315068db02c9c860c01b6103a0565b806040517fcfcd3b320000000000000000000000000000000000000000000000000000000081526004016105cd919061196f565b60405180910390fd5b6105ea6709f2c9cc2e721b4160c01b6103a0565b6105fe67f193d53272e0e63660c01b6103a0565b61061267b61f24b317e0077060c01b6103a0565b6106266789040d3b58cea1b960c01b6103a0565b8161063b678f22e625dc1ca2fb60c01b6103a0565b61064f67f5b3a09feee5c37660c01b6103a0565b610663679af7b94a2d1fa3a960c01b6103a0565b6002600082815260200190815260200160002060003373ffffffffffffffffffffffffffffffffffffffff1673ffffffffffffffffffffffffffffffffffffffff16815260200190815260200160002060009054906101000a900460ff161561072b576106da6789c40505ec4aa27560c01b6103a0565b6106ee67273ffdc4931358dc60c01b6103a0565b806040517f6b771e4a000000000000000000000000000000000000000000000000000000008152600401610722919061196f565b60405180910390fd5b61073f67759299b6559043e660c01b6103a0565b6107536793c54a18c55f9f0c60c01b6103a0565b610767675951f49df5b7110e60c01b6103a0565b61077b6732f07a969fa4204460c01b6103a0565b8261079067e6792a28689a2b3c60c01b6103a0565b6107a46724fb0c5e1c263f4260c01b6103a0565b6107b8674a3316422592215460c01b6103a0565b600381815481106107cc576107cb611b52565b5b906000526020600020906004020160030160009054906101000a900460ff161561085557610804671cd09ce96115609760c01b6103a0565b61081867a8b33037cfb8f88260c01b6103a0565b806040517f1b344ee700000000000000000000000000000000000000000000000000000000815260040161084c919061196f565b60405180910390fd5b6108696799f0dc1aab79328e60c01b6103a0565b61087d6708eee2854d646a7f60c01b6103a0565b6108916741c1c36b83b977b760c01b6103a0565b6108a567778dce6ce0b6591b60c01b6103a0565b6108b967d3ab07bc4045f21660c01b6103a0565b60016002600086815260200190815260200160002060003373ffffffffffffffffffffffffffffffffffffffff1673ffffffffffffffffffffffffffffffffffffffff16815260200190815260200160002060006101000a81548160ff021916908315150217905550610936678bf764929111dc7d60c01b6103a0565b61094a67fc62074512b8ebb460c01b6103a0565b6000600385815481106109605761095f611b52565b5b9060005260206000209060040201905061098467709b889ee35d606e60c01b6103a0565b60018160020160008282546109999190611bb0565b925050819055506109b4678bd8217ce53cbac060c01b6103a0565b6109c867fdb5ad2891915e9c60c01b6103a0565b7f0000000000000000000000000000000000000000000000000000000000000000816002015410610bf657610a076760474023ee365ff560c01b6103a0565b610a1b677f7993a7d58056d660c01b6103a0565b60018160030160006101000a81548160ff021916908315150217905550610a4c67e72c1cf26b8a617260c01b6103a0565b610a6067d09a9ac66074e8fb60c01b6103a0565b60008160000160009054906101000a900473ffffffffffffffffffffffffffffffffffffffff1673ffffffffffffffffffffffffffffffffffffffff168260010154604051610aae90611c15565b60006040518083038185875af1925050503d8060008114610aeb576040519150601f19603f3d011682016040523d82523d6000602084013e610af0565b606091505b50509050610b086797ce254ba028580160c01b6103a0565b610b1c67c6c74ab7cd52acd860c01b6103a0565b610b3067cd8d1834c9944fff60c01b6103a0565b80610b70576040517f08c379a0000000000000000000000000000000000000000000000000000000008152600401610b6790611c76565b60405180910390fd5b610b8467c0ef0aa01b53628060c01b6103a0565b610b98675f298aa271cd10fa60c01b6103a0565b610bac67425e3458b838bfd260c01b6103a0565b853373ffffffffffffffffffffffffffffffffffffffff167fe6266574c540a6eace832e59bc4fa1d3c8a6c570042f03f6eb69c252cb71395560405160405180910390a350610c0b565b610c0a679526f48defda0c8560c01b6103a0565b5b5050505050565b60016020528060005260406000206000915054906101000a900460ff1681565b610c4667111bb068072af3f060c01b6103a0565b610c5a677d2247673929fe9660c01b6103a0565b610c6e67ce8969155c4c087160c01b6103a0565b610c82677547571930d53be460c01b6103a0565b610c966717ed5e91ba98b1b060c01b6103a0565b60011515600160003373ffffffffffffffffffffffffffffffffffffffff1673ffffffffffffffffffffffffffffffffffffffff16815260200190815260200160002060009054906101000a900460ff16151514610d29576040517f08c379a0000000000000000000000000000000000000000000000000000000008152600401610d2090611b32565b60405180910390fd5b610d3d67eb1ffb9fb9d64f9560c01b6103a0565b610d5167a1b3b05510f42ab460c01b6103a0565b610d6567fbbe4a7c13e3bef060c01b6103a0565b610d7967ba0c5de7d04434f560c01b6103a0565b610d8d6758892319041e585760c01b6103a0565b610da167691440a331a105d360c01b6103a0565b600060405180608001604052808473ffffffffffffffffffffffffffffffffffffffff16815260200183815260200160008152602001600015158152509050610df4672debee46e3be1d2260c01b6103a0565b610e086789138a722b221db460c01b6103a0565b60006003805490509050610e2667d94955c84ff9831a60c01b6103a0565b610e3a672b20992c092b10ac60c01b6103a0565b600382908060018154018082558091505060019003906000526020600020906004020160009091909190915060008201518160000160006101000a81548173ffffffffffffffffffffffffffffffffffffffff021916908373ffffffffffffffffffffffffffffffffffffffff160217905550602082015181600101556040820151816002015560608201518160030160006101000a81548160ff0219169083151502179055505050610ef76724df23e7eca3af0a60c01b6103a0565b610f0b6711152f9390f4b53c60c01b6103a0565b8373ffffffffffffffffffffffffffffffffffffffff16813373ffffffffffffffffffffffffffffffffffffffff167f101a85d062d4f96045d6889441dd96dda5e818771df426a14e74d54b0ee9e1ce86604051610f69919061196f565b60405180910390a450505050565b6060610f8d673af2b05aa8aedb7f60c01b6103a0565b610fa167c4b5a91f95d24df260c01b6103a0565b610fb5673b02f711f5adf38e60c01b6103a0565b6003805480602002602001604051908101604052809291908181526020016000905b8282101561108e57838290600052602060002090600402016040518060800160405290816000820160009054906101000a900473ffffffffffffffffffffffffffffffffffffffff1673ffffffffffffffffffffffffffffffffffffffff1673ffffffffffffffffffffffffffffffffffffffff16815260200160018201548152602001600282015481526020016003820160009054906101000a900460ff16151515158152505081526020019060010190610fd7565b50505050905090565b60026020528160005260406000206020528060005260406000206000915091509054906101000a900460ff1681565b600381815481106110d657600080fd5b90600052602060002090600402016000915090508060000160009054906101000a900473ffffffffffffffffffffffffffffffffffffffff16908060010154908060020154908060030160009054906101000a900460ff16905084565b6000611149677d361815f9d2b64360c01b6103a0565b61115d67d888b274cb304f0b60c01b6103a0565b611171676940fdcfc6a18be260c01b6103a0565b600380549050905090565b60006111926746cfcec8799d054c60c01b6103a0565b6111a6671759216998cdab3f60c01b6103a0565b6111ba6751088e030d9733b460c01b6103a0565b47905090565b7f000000000000000000000000000000000000000000000000000000000000000081565b60606111fa67da52e8a71fa776ce60c01b6103a0565b61120e67e2e4007bec18ea2e60c01b6103a0565b61122267ea1a2aff73c6095e60c01b6103a0565b60008054806020026020016040519081016040528092919081815260200182805480156112a457602002820191906000526020600020905b8160009054906101000a900473ffffffffffffffffffffffffffffffffffffffff1673ffffffffffffffffffffffffffffffffffffffff168152602001906001019080831161125a575b5050505050905090565b6000806000806112c8674da793e8c23a84f060c01b6103a0565b846112dd679dc26228891fb10560c01b6103a0565b6112f167720430045e88029960c01b6103a0565b611305671431d3aae02436d860c01b6103a0565b6003805490508110611376576113256775ce65a8cda8475460c01b6103a0565b6113396719315068db02c9c860c01b6103a0565b806040517fcfcd3b3200000000000000000000000000000000000000000000000000000000815260040161136d919061196f565b60405180910390fd5b61138a6709f2c9cc2e721b4160c01b6103a0565b61139e67f193d53272e0e63660c01b6103a0565b6113b267f4cdc5d720a5b08f60c01b6103a0565b6113c6675f237427dfa0d55260c01b6103a0565b6113da6780d69dcd31af7f0d60c01b6103a0565b6113ee671e8ab7496ef1d51260c01b6103a0565b60006003878154811061140457611403611b52565b5b90600052602060002090600402016040518060800160405290816000820160009054906101000a900473ffffffffffffffffffffffffffffffffffffffff1673ffffffffffffffffffffffffffffffffffffffff1673ffffffffffffffffffffffffffffffffffffffff16815260200160018201548152602001600282015481526020016003820160009054906101000a900460ff16151515158152505090506114b867fe69a2c192e2c70f60c01b6103a0565b6114cc6712557a5b360df5d460c01b6103a0565b8060000151816020015182604001518360600151955095509550955050509193509193565b61150567e2958de8621da7cf60c01b6103a0565b611519678e37ae7586cfe30260c01b6103a0565b61152d67590eaab18de8409560c01b6103a0565b3373ffffffffffffffffffffffffffffffffffffffff167f90890809c654f11d6e72a28fa60149770a0d11ec6c92319d6ceb2bb0a4ea1a153447604051611575929190611598565b60405180910390a2565b6000819050919050565b6115928161157f565b82525050565b60006040820190506115ad6000830185611589565b6115ba6020830184611589565b9392505050565b600080fd5b6115cf8161157f565b81146115da57600080fd5b50565b6000813590506115ec816115c6565b92915050565b600060208284031215611608576116076115c1565b5b6000611616848285016115dd565b91505092915050565b600073ffffffffffffffffffffffffffffffffffffffff82169050919050565b600061164a8261161f565b9050919050565b61165a8161163f565b82525050565b60006020820190506116756000830184611651565b92915050565b6116848161163f565b811461168f57600080fd5b50565b6000813590506116a18161167b565b92915050565b6000602082840312156116bd576116bc6115c1565b5b60006116cb84828501611692565b91505092915050565b60008115159050919050565b6116e9816116d4565b82525050565b600060208201905061170460008301846116e0565b92915050565b60006117158261161f565b9050919050565b6117258161170a565b811461173057600080fd5b50565b6000813590506117428161171c565b92915050565b6000806040838503121561175f5761175e6115c1565b5b600061176d85828601611733565b925050602061177e858286016115dd565b9150509250929050565b600081519050919050565b600082825260208201905092915050565b6000819050602082019050919050565b6117bd8161170a565b82525050565b6117cc8161157f565b82525050565b6117db816116d4565b82525050565b6080820160008201516117f760008501826117b4565b50602082015161180a60208501826117c3565b50604082015161181d60408501826117c3565b50606082015161183060608501826117d2565b50505050565b600061184283836117e1565b60808301905092915050565b6000602082019050919050565b600061186682611788565b6118708185611793565b935061187b836117a4565b8060005b838110156118ac5781516118938882611836565b975061189e8361184e565b92505060018101905061187f565b5085935050505092915050565b600060208201905081810360008301526118d3818461185b565b905092915050565b600080604083850312156118f2576118f16115c1565b5b6000611900858286016115dd565b925050602061191185828601611692565b9150509250929050565b6119248161170a565b82525050565b600060808201905061193f600083018761191b565b61194c6020830186611589565b6119596040830185611589565b61196660608301846116e0565b95945050505050565b60006020820190506119846000830184611589565b92915050565b600081519050919050565b600082825260208201905092915050565b6000819050602082019050919050565b6119bf8161163f565b82525050565b60006119d183836119b6565b60208301905092915050565b6000602082019050919050565b60006119f58261198a565b6119ff8185611995565b9350611a0a836119a6565b8060005b83811015611a3b578151611a2288826119c5565b9750611a2d836119dd565b925050600181019050611a0e565b5085935050505092915050565b60006020820190508181036000830152611a6281846119ea565b905092915050565b6000608082019050611a7f6000830187611651565b611a8c6020830186611589565b611a996040830185611589565b611aa660608301846116e0565b95945050505050565b600082825260208201905092915050565b7f41646472657373206d757374206265206f6e65206f6620746865206f776e657260008201527f7300000000000000000000000000000000000000000000000000000000000000602082015250565b6000611b1c602183611aaf565b9150611b2782611ac0565b604082019050919050565b60006020820190508181036000830152611b4b81611b0f565b9050919050565b7f4e487b7100000000000000000000000000000000000000000000000000000000600052603260045260246000fd5b7f4e487b7100000000000000000000000000000000000000000000000000000000600052601160045260246000fd5b6000611bbb8261157f565b9150611bc68361157f565b9250828201905080821115611bde57611bdd611b81565b5b92915050565b600081905092915050565b50565b6000611bff600083611be4565b9150611c0a82611bef565b600082019050919050565b6000611c2082611bf2565b9150819050919050565b7f7472616e73616374696f6e206661696c65640000000000000000000000000000600082015250565b6000611c60601283611aaf565b9150611c6b82611c2a565b602082019050919050565b60006020820190508181036000830152611c8f81611c53565b905091905056fea26469706673582212206a0cdfc3692e4808fccbf8bc359f0a574302acd3137eb6d7b50ff5e5b02d3e2e64736f6c63430008170033a2646970667358221220ace79c001387b2926dece0082fd7695ce57fe5f1cb025a499b1d3b3a4d9a364a64736f6c6343000817003360a06040523480156200001157600080fd5b5060405162002748380380620027488339818101604052810190620000379190620007c5565b62000053679a3501c4f24d92f760c01b6200059960201b60201c565b6200006f679405006347c2bacf60c01b6200059960201b60201c565b6200008b67fafe303f6188df2b60c01b6200059960201b60201c565b620000a7674228de60dc6cd39560c01b6200059960201b60201c565b6000825111620000ee576040517f08c379a0000000000000000000000000000000000000000000000000000000008152600401620000e5906200088c565b60405180910390fd5b6200010a679f41a444e3b48ac760c01b6200059960201b60201c565b62000126671def365669992f0160c01b6200059960201b60201c565b6200014267e1bf961522b6026260c01b6200059960201b60201c565b6200015e67dd40c59854e481d360c01b6200059960201b60201c565b60008111801562000170575081518111155b620001b2576040517f08c379a0000000000000000000000000000000000000000000000000000000008152600401620001a99062000924565b60405180910390fd5b620001ce674a04155b2440e39b60c01b6200059960201b60201c565b620001ea67c28b74028ea993e060c01b6200059960201b60201c565b6200020667e1ff14cb7ed2353e60c01b6200059960201b60201c565b60005b82518110156200056c576200022f67db9facb5271c0b6c60c01b6200059960201b60201c565b6200024b67b913a6cdb74cb2ec60c01b6200059960201b60201c565b600083828151811062000263576200026262000946565b5b602002602001015190506200028967138ccc31bfd89af560c01b6200059960201b60201c565b620002a5672fb7e4fa97e8c65160c01b6200059960201b60201c565b620002c1675311a44d1a96f28a60c01b6200059960201b60201c565b600073ffffffffffffffffffffffffffffffffffffffff168173ffffffffffffffffffffffffffffffffffffffff160362000333576040517f08c379a00000000000000000000000000000000000000000000000000000000081526004016200032a90620009c5565b60405180910390fd5b6200034f67f43d6ba53857d6c860c01b6200059960201b60201c565b6200036b67961a360982f5cee960c01b6200059960201b60201c565b62000387672ee30915e732c81f60c01b6200059960201b60201c565b620003a367e95bece66863632260c01b6200059960201b60201c565b600160008273ffffffffffffffffffffffffffffffffffffffff1673ffffffffffffffffffffffffffffffffffffffff16815260200190815260200160002060009054906101000a900460ff161562000433576040517f08c379a00000000000000000000000000000000000000000000000000000000081526004016200042a9062000a37565b60405180910390fd5b6200044f677e5e43438a7f78a360c01b6200059960201b60201c565b6200046b679abcea1ed140656b60c01b6200059960201b60201c565b60018060008373ffffffffffffffffffffffffffffffffffffffff1673ffffffffffffffffffffffffffffffffffffffff16815260200190815260200160002060006101000a81548160ff021916908315150217905550620004de6742af4173fa3ce21560c01b6200059960201b60201c565b620004fa67def054ac5e0e1d9460c01b6200059960201b60201c565b6000819080600181540180825580915050600190039060005260206000200160009091909190916101000a81548173ffffffffffffffffffffffffffffffffffffffff021916908373ffffffffffffffffffffffffffffffffffffffff16021790555050808060010191505062000209565b506200058967bb4529980de537e860c01b6200059960201b60201c565b8060808181525050505062000a59565b50565b6000604051905090565b600080fd5b600080fd5b600080fd5b6000601f19601f8301169050919050565b7f4e487b7100000000000000000000000000000000000000000000000000000000600052604160045260246000fd5b6200060082620005b5565b810181811067ffffffffffffffff82111715620006225762000621620005c6565b5b80604052505050565b6000620006376200059c565b9050620006458282620005f5565b919050565b600067ffffffffffffffff821115620006685762000667620005c6565b5b602082029050602081019050919050565b600080fd5b600073ffffffffffffffffffffffffffffffffffffffff82169050919050565b6000620006ab826200067e565b9050919050565b620006bd816200069e565b8114620006c957600080fd5b50565b600081519050620006dd81620006b2565b92915050565b6000620006fa620006f4846200064a565b6200062b565b9050808382526020820190506020840283018581111562000720576200071f62000679565b5b835b818110156200074d5780620007388882620006cc565b84526020840193505060208101905062000722565b5050509392505050565b600082601f8301126200076f576200076e620005b0565b5b815162000781848260208601620006e3565b91505092915050565b6000819050919050565b6200079f816200078a565b8114620007ab57600080fd5b50565b600081519050620007bf8162000794565b92915050565b60008060408385031215620007df57620007de620005a6565b5b600083015167ffffffffffffffff8111156200080057620007ff620005ab565b5b6200080e8582860162000757565b92505060206200082185828601620007ae565b9150509250929050565b600082825260208201905092915050565b7f6f776e6572732072657175697265640000000000000000000000000000000000600082015250565b600062000874600f836200082b565b915062000881826200083c565b602082019050919050565b60006020820190508181036000830152620008a78162000865565b9050919050565b7f696e76616c6964206e756d626572206f662072657175697265642071756f727560008201527f6d00000000000000000000000000000000000000000000000000000000000000602082015250565b60006200090c6021836200082b565b91506200091982620008ae565b604082019050919050565b600060208201905081810360008301526200093f81620008fd565b9050919050565b7f4e487b7100000000000000000000000000000000000000000000000000000000600052603260045260246000fd5b7f696e76616c6964206f776e657200000000000000000000000000000000000000600082015250565b6000620009ad600d836200082b565b9150620009ba8262000975565b602082019050919050565b60006020820190508181036000830152620009e0816200099e565b9050919050565b7f6f776e6572206e6f7420756e6971756500000000000000000000000000000000600082015250565b600062000a1f6010836200082b565b915062000a2c82620009e7565b602082019050919050565b6000602082019050818103600083015262000a528162000a10565b9050919050565b608051611ccc62000a7c600039600081816109ca01526111c20152611ccc6000f3fe6080604052600436106100c65760003560e01c80635cc070761161007f5780639522059c116100595780639522059c14610300578063a0e67e2b1461032b578063a9d3106614610356578063d0e30db01461039657610131565b80635cc070761461026a5780636747dad7146102aa578063722713f7146102d557610131565b8063025e7c27146101365780631b671a40146101735780632f54bf6e1461019c5780633ebae36f146101d95780634b465d741461020257806356c316371461022d57610131565b36610131576100df67afc2aaef91cafd9460c01b6103a0565b3373ffffffffffffffffffffffffffffffffffffffff167f90890809c654f11d6e72a28fa60149770a0d11ec6c92319d6ceb2bb0a4ea1a153447604051610127929190611598565b60405180910390a2005b600080fd5b34801561014257600080fd5b5061015d600480360381019061015891906115f2565b6103a3565b60405161016a9190611660565b60405180910390f35b34801561017f57600080fd5b5061019a600480360381019061019591906115f2565b6103e2565b005b3480156101a857600080fd5b506101c360048036038101906101be91906116a7565b610c12565b6040516101d091906116ef565b60405180910390f35b3480156101e557600080fd5b5061020060048036038101906101fb9190611748565b610c32565b005b34801561020e57600080fd5b50610217610f77565b60405161022491906118b9565b60405180910390f35b34801561023957600080fd5b50610254600480360381019061024f91906118db565b611097565b60405161026191906116ef565b60405180910390f35b34801561027657600080fd5b50610291600480360381019061028c91906115f2565b6110c6565b6040516102a1949392919061192a565b60405180910390f35b3480156102b657600080fd5b506102bf611133565b6040516102cc919061196f565b60405180910390f35b3480156102e157600080fd5b506102ea61117c565b6040516102f7919061196f565b60405180910390f35b34801561030c57600080fd5b506103156111c0565b604051610322919061196f565b60405180910390f35b34801561033757600080fd5b506103406111e4565b60405161034d9190611a48565b60405180910390f35b34801561036257600080fd5b5061037d600480360381019061037891906115f2565b6112ae565b60405161038d9493929190611a6a565b60405180910390f35b61039e6114f1565b005b50565b600081815481106103b357600080fd5b906000526020600020016000915054906101000a900473ffffffffffffffffffffffffffffffffffffffff1681565b6103f667c6b0c37e7f2fcf8860c01b6103a0565b61040a677d2247673929fe9660c01b6103a0565b61041e67ce8969155c4c087160c01b6103a0565b610432677547571930d53be460c01b6103a0565b6104466717ed5e91ba98b1b060c01b6103a0565b60011515600160003373ffffffffffffffffffffffffffffffffffffffff1673ffffffffffffffffffffffffffffffffffffffff16815260200190815260200160002060009054906101000a900460ff161515146104d9576040517f08c379a00000000000000000000000000000000000000000000000000000000081526004016104d090611b32565b60405180910390fd5b6104ed67eb1ffb9fb9d64f9560c01b6103a0565b61050167a1b3b05510f42ab460c01b6103a0565b610514668044be119d3c3960c01b6103a0565b610528678b5386a65481e36260c01b6103a0565b8061053d679dc26228891fb10560c01b6103a0565b61055167720430045e88029960c01b6103a0565b610565671431d3aae02436d860c01b6103a0565b60038054905081106105d6576105856775ce65a8cda8475460c01b6103a0565b6105996719315068db02c9c860c01b6103a0565b806040517fcfcd3b320000000000000000000000000000000000000000000000000000000081526004016105cd919061196f565b60405180910390fd5b6105ea6709f2c9cc2e721b4160c01b6103a0565b6105fe67f193d53272e0e63660c01b6103a0565b61061267b61f24b317e0077060c01b6103a0565b6106266789040d3b58cea1b960c01b6103a0565b8161063b678f22e625dc1ca2fb60c01b6103a0565b61064f67f5b3a09feee5c37660c01b6103a0565b610663679af7b94a2d1fa3a960c01b6103a0565b6002600082815260200190815260200160002060003373ffffffffffffffffffffffffffffffffffffffff1673ffffffffffffffffffffffffffffffffffffffff16815260200190815260200160002060009054906101000a900460ff161561072b576106da6789c40505ec4aa27560c01b6103a0565b6106ee67273ffdc4931358dc60c01b6103a0565b806040517f6b771e4a000000000000000000000000000000000000000000000000000000008152600401610722919061196f565b60405180910390fd5b61073f67759299b6559043e660c01b6103a0565b6107536793c54a18c55f9f0c60c01b6103a0565b610767675951f49df5b7110e60c01b6103a0565b61077b6732f07a969fa4204460c01b6103a0565b8261079067e6792a28689a2b3c60c01b6103a0565b6107a46724fb0c5e1c263f4260c01b6103a0565b6107b8674a3316422592215460c01b6103a0565b600381815481106107cc576107cb611b52565b5b906000526020600020906004020160030160009054906101000a900460ff161561085557610804671cd09ce96115609760c01b6103a0565b61081867a8b33037cfb8f88260c01b6103a0565b806040517f1b344ee700000000000000000000000000000000000000000000000000000000815260040161084c919061196f565b60405180910390fd5b6108696799f0dc1aab79328e60c01b6103a0565b61087d6708eee2854d646a7f60c01b6103a0565b6108916741c1c36b83b977b760c01b6103a0565b6108a567778dce6ce0b6591b60c01b6103a0565b6108b967d3ab07bc4045f21660c01b6103a0565b60016002600086815260200190815260200160002060003373ffffffffffffffffffffffffffffffffffffffff1673ffffffffffffffffffffffffffffffffffffffff16815260200190815260200160002060006101000a81548160ff021916908315150217905550610936678bf764929111dc7d60c01b6103a0565b61094a67fc62074512b8ebb460c01b6103a0565b6000600385815481106109605761095f611b52565b5b9060005260206000209060040201905061098467709b889ee35d606e60c01b6103a0565b60018160020160008282546109999190611bb0565b925050819055506109b4678bd8217ce53cbac060c01b6103a0565b6109c867fdb5ad2891915e9c60c01b6103a0565b7f0000000000000000000000000000000000000000000000000000000000000000816002015410610bf657610a076760474023ee365ff560c01b6103a0565b610a1b677f7993a7d58056d660c01b6103a0565b60018160030160006101000a81548160ff021916908315150217905550610a4c67e72c1cf26b8a617260c01b6103a0565b610a6067d09a9ac66074e8fb60c01b6103a0565b60008160000160009054906101000a900473ffffffffffffffffffffffffffffffffffffffff1673ffffffffffffffffffffffffffffffffffffffff168260010154604051610aae90611c15565b60006040518083038185875af1925050503d8060008114610aeb576040519150601f19603f3d011682016040523d82523d6000602084013e610af0565b606091505b50509050610b086797ce254ba028580160c01b6103a0565b610b1c67c6c74ab7cd52acd860c01b6103a0565b610b3067cd8d1834c9944fff60c01b6103a0565b80610b70576040517f08c379a0000000000000000000000000000000000000000000000000000000008152600401610b6790611c76565b60405180910390fd5b610b8467c0ef0aa01b53628060c01b6103a0565b610b98675f298aa271cd10fa60c01b6103a0565b610bac67425e3458b838bfd260c01b6103a0565b853373ffffffffffffffffffffffffffffffffffffffff167fe6266574c540a6eace832e59bc4fa1d3c8a6c570042f03f6eb69c252cb71395560405160405180910390a350610c0b565b610c0a679526f48defda0c8560c01b6103a0565b5b5050505050565b60016020528060005260406000206000915054906101000a900460ff1681565b610c4667111bb068072af3f060c01b6103a0565b610c5a677d2247673929fe9660c01b6103a0565b610c6e67ce8969155c4c087160c01b6103a0565b610c82677547571930d53be460c01b6103a0565b610c966717ed5e91ba98b1b060c01b6103a0565b60011515600160003373ffffffffffffffffffffffffffffffffffffffff1673ffffffffffffffffffffffffffffffffffffffff16815260200190815260200160002060009054906101000a900460ff16151514610d29576040517f08c379a0000000000000000000000000000000000000000000000000000000008152600401610d2090611b32565b60405180910390fd5b610d3d67eb1ffb9fb9d64f9560c01b6103a0565b610d5167a1b3b05510f42ab460c01b6103a0565b610d6567fbbe4a7c13e3bef060c01b6103a0565b610d7967ba0c5de7d04434f560c01b6103a0565b610d8d6758892319041e585760c01b6103a0565b610da167691440a331a105d360c01b6103a0565b600060405180608001604052808473ffffffffffffffffffffffffffffffffffffffff16815260200183815260200160008152602001600015158152509050610df4672debee46e3be1d2260c01b6103a0565b610e086789138a722b221db460c01b6103a0565b60006003805490509050610e2667d94955c84ff9831a60c01b6103a0565b610e3a672b20992c092b10ac60c01b6103a0565b600382908060018154018082558091505060019003906000526020600020906004020160009091909190915060008201518160000160006101000a81548173ffffffffffffffffffffffffffffffffffffffff021916908373ffffffffffffffffffffffffffffffffffffffff160217905550602082015181600101556040820151816002015560608201518160030160006101000a81548160ff0219169083151502179055505050610ef76724df23e7eca3af0a60c01b6103a0565b610f0b6711152f9390f4b53c60c01b6103a0565b8373ffffffffffffffffffffffffffffffffffffffff16813373ffffffffffffffffffffffffffffffffffffffff167f101a85d062d4f96045d6889441dd96dda5e818771df426a14e74d54b0ee9e1ce86604051610f69919061196f565b60405180910390a450505050565b6060610f8d673af2b05aa8aedb7f60c01b6103a0565b610fa167c4b5a91f95d24df260c01b6103a0565b610fb5673b02f711f5adf38e60c01b6103a0565b6003805480602002602001604051908101604052809291908181526020016000905b8282101561108e57838290600052602060002090600402016040518060800160405290816000820160009054906101000a900473ffffffffffffffffffffffffffffffffffffffff1673ffffffffffffffffffffffffffffffffffffffff1673ffffffffffffffffffffffffffffffffffffffff16815260200160018201548152602001600282015481526020016003820160009054906101000a900460ff16151515158152505081526020019060010190610fd7565b50505050905090565b60026020528160005260406000206020528060005260406000206000915091509054906101000a900460ff1681565b600381815481106110d657600080fd5b90600052602060002090600402016000915090508060000160009054906101000a900473ffffffffffffffffffffffffffffffffffffffff16908060010154908060020154908060030160009054906101000a900460ff16905084565b6000611149677d361815f9d2b64360c01b6103a0565b61115d67d888b274cb304f0b60c01b6103a0565b611171676940fdcfc6a18be260c01b6103a0565b600380549050905090565b60006111926746cfcec8799d054c60c01b6103a0565b6111a6671759216998cdab3f60c01b6103a0565b6111ba6751088e030d9733b460c01b6103a0565b47905090565b7f000000000000000000000000000000000000000000000000000000000000000081565b60606111fa67da52e8a71fa776ce60c01b6103a0565b61120e67e2e4007bec18ea2e60c01b6103a0565b61122267ea1a2aff73c6095e60c01b6103a0565b60008054806020026020016040519081016040528092919081815260200182805480156112a457602002820191906000526020600020905b8160009054906101000a900473ffffffffffffffffffffffffffffffffffffffff1673ffffffffffffffffffffffffffffffffffffffff168152602001906001019080831161125a575b5050505050905090565b6000806000806112c8674da793e8c23a84f060c01b6103a0565b846112dd679dc26228891fb10560c01b6103a0565b6112f167720430045e88029960c01b6103a0565b611305671431d3aae02436d860c01b6103a0565b6003805490508110611376576113256775ce65a8cda8475460c01b6103a0565b6113396719315068db02c9c860c01b6103a0565b806040517fcfcd3b3200000000000000000000000000000000000000000000000000000000815260040161136d919061196f565b60405180910390fd5b61138a6709f2c9cc2e721b4160c01b6103a0565b61139e67f193d53272e0e63660c01b6103a0565b6113b267f4cdc5d720a5b08f60c01b6103a0565b6113c6675f237427dfa0d55260c01b6103a0565b6113da6780d69dcd31af7f0d60c01b6103a0565b6113ee671e8ab7496ef1d51260c01b6103a0565b60006003878154811061140457611403611b52565b5b90600052602060002090600402016040518060800160405290816000820160009054906101000a900473ffffffffffffffffffffffffffffffffffffffff1673ffffffffffffffffffffffffffffffffffffffff1673ffffffffffffffffffffffffffffffffffffffff16815260200160018201548152602001600282015481526020016003820160009054906101000a900460ff16151515158152505090506114b867fe69a2c192e2c70f60c01b6103a0565b6114cc6712557a5b360df5d460c01b6103a0565b8060000151816020015182604001518360600151955095509550955050509193509193565b61150567e2958de8621da7cf60c01b6103a0565b611519678e37ae7586cfe30260c01b6103a0565b61152d67590eaab18de8409560c01b6103a0565b3373ffffffffffffffffffffffffffffffffffffffff167f90890809c654f11d6e72a28fa60149770a0d11ec6c92319d6ceb2bb0a4ea1a153447604051611575929190611598565b60405180910390a2565b6000819050919050565b6115928161157f565b82525050565b60006040820190506115ad6000830185611589565b6115ba6020830184611589565b9392505050565b600080fd5b6115cf8161157f565b81146115da57600080fd5b50565b6000813590506115ec816115c6565b92915050565b600060208284031215611608576116076115c1565b5b6000611616848285016115dd565b91505092915050565b600073ffffffffffffffffffffffffffffffffffffffff82169050919050565b600061164a8261161f565b9050919050565b61165a8161163f565b82525050565b60006020820190506116756000830184611651565b92915050565b6116848161163f565b811461168f57600080fd5b50565b6000813590506116a18161167b565b92915050565b6000602082840312156116bd576116bc6115c1565b5b60006116cb84828501611692565b91505092915050565b60008115159050919050565b6116e9816116d4565b82525050565b600060208201905061170460008301846116e0565b92915050565b60006117158261161f565b9050919050565b6117258161170a565b811461173057600080fd5b50565b6000813590506117428161171c565b92915050565b6000806040838503121561175f5761175e6115c1565b5b600061176d85828601611733565b925050602061177e858286016115dd565b9150509250929050565b600081519050919050565b600082825260208201905092915050565b6000819050602082019050919050565b6117bd8161170a565b82525050565b6117cc8161157f565b82525050565b6117db816116d4565b82525050565b6080820160008201516117f760008501826117b4565b50602082015161180a60208501826117c3565b50604082015161181d60408501826117c3565b50606082015161183060608501826117d2565b50505050565b600061184283836117e1565b60808301905092915050565b6000602082019050919050565b600061186682611788565b6118708185611793565b935061187b836117a4565b8060005b838110156118ac5781516118938882611836565b975061189e8361184e565b92505060018101905061187f565b5085935050505092915050565b600060208201905081810360008301526118d3818461185b565b905092915050565b600080604083850312156118f2576118f16115c1565b5b6000611900858286016115dd565b925050602061191185828601611692565b9150509250929050565b6119248161170a565b82525050565b600060808201905061193f600083018761191b565b61194c6020830186611589565b6119596040830185611589565b61196660608301846116e0565b95945050505050565b60006020820190506119846000830184611589565b92915050565b600081519050919050565b600082825260208201905092915050565b6000819050602082019050919050565b6119bf8161163f565b82525050565b60006119d183836119b6565b60208301905092915050565b6000602082019050919050565b60006119f58261198a565b6119ff8185611995565b9350611a0a836119a6565b8060005b83811015611a3b578151611a2288826119c5565b9750611a2d836119dd565b925050600181019050611a0e565b5085935050505092915050565b60006020820190508181036000830152611a6281846119ea565b905092915050565b6000608082019050611a7f6000830187611651565b611a8c6020830186611589565b611a996040830185611589565b611aa660608301846116e0565b95945050505050565b600082825260208201905092915050565b7f41646472657373206d757374206265206f6e65206f6620746865206f776e657260008201527f7300000000000000000000000000000000000000000000000000000000000000602082015250565b6000611b1c602183611aaf565b9150611b2782611ac0565b604082019050919050565b60006020820190508181036000830152611b4b81611b0f565b9050919050565b7f4e487b7100000000000000000000000000000000000000000000000000000000600052603260045260246000fd5b7f4e487b7100000000000000000000000000000000000000000000000000000000600052601160045260246000fd5b6000611bbb8261157f565b9150611bc68361157f565b9250828201905080821115611bde57611bdd611b81565b5b92915050565b600081905092915050565b50565b6000611bff600083611be4565b9150611c0a82611bef565b600082019050919050565b6000611c2082611bf2565b9150819050919050565b7f7472616e73616374696f6e206661696c65640000000000000000000000000000600082015250565b6000611c60601283611aaf565b9150611c6b82611c2a565b602082019050919050565b60006020820190508181036000830152611c8f81611c53565b905091905056fea26469706673582212206a0cdfc3692e4808fccbf8bc359f0a574302acd3137eb6d7b50ff5e5b02d3e2e64736f6c63430008170033","opcodes":"PUSH1 0x80 PUSH1 0x40 MSTORE CALLVALUE DUP1 ISZERO PUSH3 0x11 JUMPI PUSH1 0x0 DUP1 REVERT JUMPDEST POP PUSH1 0x40 MLOAD PUSH3 0x5F2C CODESIZE SUB DUP1 PUSH3 0x5F2C DUP4 CODECOPY DUP2 DUP2 ADD PUSH1 0x40 MSTORE DUP2 ADD SWAP1 PUSH3 0x37 SWAP2 SWAP1 PUSH3 0x4DC JUMP JUMPDEST PUSH3 0x53 PUSH8 0x1D037D90CCD6A467 PUSH1 0xC0 SHL PUSH3 0xA5 PUSH1 0x20 SHL PUSH1 0x20 SHR JUMP JUMPDEST PUSH3 0x6F PUSH8 0x3C1FC2A2CE149FA7 PUSH1 0xC0 SHL PUSH3 0xA5 PUSH1 0x20 SHL PUSH1 0x20 SHR JUMP JUMPDEST PUSH3 0x8B PUSH8 0xA3679F7D36BD8372 PUSH1 0xC0 SHL PUSH3 0xA5 PUSH1 0x20 SHL PUSH1 0x20 SHR JUMP JUMPDEST PUSH3 0x9D DUP3 DUP3 PUSH3 0xA8 PUSH1 0x20 SHL PUSH1 0x20 SHR JUMP JUMPDEST POP POP PUSH3 0x672 JUMP JUMPDEST POP JUMP JUMPDEST PUSH3 0xC4 PUSH8 0x3F9917347D8797B7 PUSH1 0xC0 SHL PUSH3 0xA5 PUSH1 0x20 SHL PUSH1 0x20 SHR JUMP JUMPDEST PUSH3 0xE0 PUSH8 0xA8D8778F40E0583F PUSH1 0xC0 SHL PUSH3 0xA5 PUSH1 0x20 SHL PUSH1 0x20 SHR JUMP JUMPDEST PUSH3 0xFC PUSH8 0xA44FA42066D94F1 PUSH1 0xC0 SHL PUSH3 0xA5 PUSH1 0x20 SHL PUSH1 0x20 SHR JUMP JUMPDEST PUSH1 0x0 DUP3 DUP3 PUSH1 0x40 MLOAD PUSH3 0x10E SWAP1 PUSH3 0x2A5 JUMP JUMPDEST PUSH3 0x11B SWAP3 SWAP2 SWAP1 PUSH3 0x621 JUMP JUMPDEST PUSH1 0x40 MLOAD DUP1 SWAP2 SUB SWAP1 PUSH1 0x0 CREATE DUP1 ISZERO DUP1 ISZERO PUSH3 0x138 JUMPI RETURNDATASIZE PUSH1 0x0 DUP1 RETURNDATACOPY RETURNDATASIZE PUSH1 0x0 REVERT JUMPDEST POP SWAP1 POP PUSH3 0x157 PUSH8 0x8E1E20B226BBFF4F PUSH1 0xC0 SHL PUSH3 0xA5 PUSH1 0x20 SHL PUSH1 0x20 SHR JUMP JUMPDEST PUSH3 0x173 PUSH8 0x88B174DA6ED0B5CA PUSH1 0xC0 SHL PUSH3 0xA5 PUSH1 0x20 SHL PUSH1 0x20 SHR JUMP JUMPDEST PUSH1 0x0 DUP1 DUP1 SLOAD SWAP1 POP SWAP1 POP PUSH3 0x198 PUSH8 0xD3E8A758B1369511 PUSH1 0xC0 SHL PUSH3 0xA5 PUSH1 0x20 SHL PUSH1 0x20 SHR JUMP JUMPDEST PUSH3 0x1B4 PUSH8 0x7C0B5B6203E28983 PUSH1 0xC0 SHL PUSH3 0xA5 PUSH1 0x20 SHL PUSH1 0x20 SHR JUMP JUMPDEST PUSH1 0x0 DUP3 SWAP1 DUP1 PUSH1 0x1 DUP2 SLOAD ADD DUP1 DUP3 SSTORE DUP1 SWAP2 POP POP PUSH1 0x1 SWAP1 SUB SWAP1 PUSH1 0x0 MSTORE PUSH1 0x20 PUSH1 0x0 KECCAK256 ADD PUSH1 0x0 SWAP1 SWAP2 SWAP1 SWAP2 SWAP1 SWAP2 PUSH2 0x100 EXP DUP2 SLOAD DUP2 PUSH20 0xFFFFFFFFFFFFFFFFFFFFFFFFFFFFFFFFFFFFFFFF MUL NOT AND SWAP1 DUP4 PUSH20 0xFFFFFFFFFFFFFFFFFFFFFFFFFFFFFFFFFFFFFFFF AND MUL OR SWAP1 SSTORE POP PUSH3 0x233 PUSH8 0xCCAB58B8C637751D PUSH1 0xC0 SHL PUSH3 0xA5 PUSH1 0x20 SHL PUSH1 0x20 SHR JUMP JUMPDEST PUSH3 0x24F PUSH8 0x4B7E711ADDA82879 PUSH1 0xC0 SHL PUSH3 0xA5 PUSH1 0x20 SHL PUSH1 0x20 SHR JUMP JUMPDEST CALLER PUSH20 0xFFFFFFFFFFFFFFFFFFFFFFFFFFFFFFFFFFFFFFFF AND PUSH32 0x470292D5E9C87E6D5A100A14C56A434C9F25E9E2BE1D5EFA70C3B5F9AEDA505F DUP3 PUSH1 0x40 MLOAD PUSH3 0x297 SWAP2 SWAP1 PUSH3 0x655 JUMP JUMPDEST PUSH1 0x40 MLOAD DUP1 SWAP2 SUB SWAP1 LOG2 POP POP POP POP JUMP JUMPDEST PUSH2 0x2748 DUP1 PUSH3 0x37E4 DUP4 CODECOPY ADD SWAP1 JUMP JUMPDEST PUSH1 0x0 PUSH1 0x40 MLOAD SWAP1 POP SWAP1 JUMP JUMPDEST PUSH1 0x0 DUP1 REVERT JUMPDEST PUSH1 0x0 DUP1 REVERT JUMPDEST PUSH1 0x0 DUP1 REVERT JUMPDEST PUSH1 0x0 PUSH1 0x1F NOT PUSH1 0x1F DUP4 ADD AND SWAP1 POP SWAP2 SWAP1 POP JUMP JUMPDEST PUSH32 0x4E487B7100000000000000000000000000000000000000000000000000000000 PUSH1 0x0 MSTORE PUSH1 0x41 PUSH1 0x4 MSTORE PUSH1 0x24 PUSH1 0x0 REVERT JUMPDEST PUSH3 0x317 DUP3 PUSH3 0x2CC JUMP JUMPDEST DUP2 ADD DUP2 DUP2 LT PUSH8 0xFFFFFFFFFFFFFFFF DUP3 GT OR ISZERO PUSH3 0x339 JUMPI PUSH3 0x338 PUSH3 0x2DD JUMP JUMPDEST JUMPDEST DUP1 PUSH1 0x40 MSTORE POP POP POP JUMP JUMPDEST PUSH1 0x0 PUSH3 0x34E PUSH3 0x2B3 JUMP JUMPDEST SWAP1 POP PUSH3 0x35C DUP3 DUP3 PUSH3 0x30C JUMP JUMPDEST SWAP2 SWAP1 POP JUMP JUMPDEST PUSH1 0x0 PUSH8 0xFFFFFFFFFFFFFFFF DUP3 GT ISZERO PUSH3 0x37F JUMPI PUSH3 0x37E PUSH3 0x2DD JUMP JUMPDEST JUMPDEST PUSH1 0x20 DUP3 MUL SWAP1 POP PUSH1 0x20 DUP2 ADD SWAP1 POP SWAP2 SWAP1 POP JUMP JUMPDEST PUSH1 0x0 DUP1 REVERT JUMPDEST PUSH1 0x0 PUSH20 0xFFFFFFFFFFFFFFFFFFFFFFFFFFFFFFFFFFFFFFFF DUP3 AND SWAP1 POP SWAP2 SWAP1 POP JUMP JUMPDEST PUSH1 0x0 PUSH3 0x3C2 DUP3 PUSH3 0x395 JUMP JUMPDEST SWAP1 POP SWAP2 SWAP1 POP JUMP JUMPDEST PUSH3 0x3D4 DUP2 PUSH3 0x3B5 JUMP JUMPDEST DUP2 EQ PUSH3 0x3E0 JUMPI PUSH1 0x0 DUP1 REVERT JUMPDEST POP JUMP JUMPDEST PUSH1 0x0 DUP2 MLOAD SWAP1 POP PUSH3 0x3F4 DUP2 PUSH3 0x3C9 JUMP JUMPDEST SWAP3 SWAP2 POP POP JUMP JUMPDEST PUSH1 0x0 PUSH3 0x411 PUSH3 0x40B DUP5 PUSH3 0x361 JUMP JUMPDEST PUSH3 0x342 JUMP JUMPDEST SWAP1 POP DUP1 DUP4 DUP3 MSTORE PUSH1 0x20 DUP3 ADD SWAP1 POP PUSH1 0x20 DUP5 MUL DUP4 ADD DUP6 DUP2 GT ISZERO PUSH3 0x437 JUMPI PUSH3 0x436 PUSH3 0x390 JUMP JUMPDEST JUMPDEST DUP4 JUMPDEST DUP2 DUP2 LT ISZERO PUSH3 0x464 JUMPI DUP1 PUSH3 0x44F DUP9 DUP3 PUSH3 0x3E3 JUMP JUMPDEST DUP5 MSTORE PUSH1 0x20 DUP5 ADD SWAP4 POP POP PUSH1 0x20 DUP2 ADD SWAP1 POP PUSH3 0x439 JUMP JUMPDEST POP POP POP SWAP4 SWAP3 POP POP POP JUMP JUMPDEST PUSH1 0x0 DUP3 PUSH1 0x1F DUP4 ADD SLT PUSH3 0x486 JUMPI PUSH3 0x485 PUSH3 0x2C7 JUMP JUMPDEST JUMPDEST DUP2 MLOAD PUSH3 0x498 DUP5 DUP3 PUSH1 0x20 DUP7 ADD PUSH3 0x3FA JUMP JUMPDEST SWAP2 POP POP SWAP3 SWAP2 POP POP JUMP JUMPDEST PUSH1 0x0 DUP2 SWAP1 POP SWAP2 SWAP1 POP JUMP JUMPDEST PUSH3 0x4B6 DUP2 PUSH3 0x4A1 JUMP JUMPDEST DUP2 EQ PUSH3 0x4C2 JUMPI PUSH1 0x0 DUP1 REVERT JUMPDEST POP JUMP JUMPDEST PUSH1 0x0 DUP2 MLOAD SWAP1 POP PUSH3 0x4D6 DUP2 PUSH3 0x4AB JUMP JUMPDEST SWAP3 SWAP2 POP POP JUMP JUMPDEST PUSH1 0x0 DUP1 PUSH1 0x40 DUP4 DUP6 SUB SLT ISZERO PUSH3 0x4F6 JUMPI PUSH3 0x4F5 PUSH3 0x2BD JUMP JUMPDEST JUMPDEST PUSH1 0x0 DUP4 ADD MLOAD PUSH8 0xFFFFFFFFFFFFFFFF DUP2 GT ISZERO PUSH3 0x517 JUMPI PUSH3 0x516 PUSH3 0x2C2 JUMP JUMPDEST JUMPDEST PUSH3 0x525 DUP6 DUP3 DUP7 ADD PUSH3 0x46E JUMP JUMPDEST SWAP3 POP POP PUSH1 0x20 PUSH3 0x538 DUP6 DUP3 DUP7 ADD PUSH3 0x4C5 JUMP JUMPDEST SWAP2 POP POP SWAP3 POP SWAP3 SWAP1 POP JUMP JUMPDEST PUSH1 0x0 DUP2 MLOAD SWAP1 POP SWAP2 SWAP1 POP JUMP JUMPDEST PUSH1 0x0 DUP3 DUP3 MSTORE PUSH1 0x20 DUP3 ADD SWAP1 POP SWAP3 SWAP2 POP POP JUMP JUMPDEST PUSH1 0x0 DUP2 SWAP1 POP PUSH1 0x20 DUP3 ADD SWAP1 POP SWAP2 SWAP1 POP JUMP JUMPDEST PUSH3 0x579 DUP2 PUSH3 0x3B5 JUMP JUMPDEST DUP3 MSTORE POP POP JUMP JUMPDEST PUSH1 0x0 PUSH3 0x58D DUP4 DUP4 PUSH3 0x56E JUMP JUMPDEST PUSH1 0x20 DUP4 ADD SWAP1 POP SWAP3 SWAP2 POP POP JUMP JUMPDEST PUSH1 0x0 PUSH1 0x20 DUP3 ADD SWAP1 POP SWAP2 SWAP1 POP JUMP JUMPDEST PUSH1 0x0 PUSH3 0x5B3 DUP3 PUSH3 0x542 JUMP JUMPDEST PUSH3 0x5BF DUP2 DUP6 PUSH3 0x54D JUMP JUMPDEST SWAP4 POP PUSH3 0x5CC DUP4 PUSH3 0x55E JUMP JUMPDEST DUP1 PUSH1 0x0 JUMPDEST DUP4 DUP2 LT ISZERO PUSH3 0x603 JUMPI DUP2 MLOAD PUSH3 0x5E7 DUP9 DUP3 PUSH3 0x57F JUMP JUMPDEST SWAP8 POP PUSH3 0x5F4 DUP4 PUSH3 0x599 JUMP JUMPDEST SWAP3 POP POP PUSH1 0x1 DUP2 ADD SWAP1 POP PUSH3 0x5D0 JUMP JUMPDEST POP DUP6 SWAP4 POP POP POP POP SWAP3 SWAP2 POP POP JUMP JUMPDEST PUSH3 0x61B DUP2 PUSH3 0x4A1 JUMP JUMPDEST DUP3 MSTORE POP POP JUMP JUMPDEST PUSH1 0x0 PUSH1 0x40 DUP3 ADD SWAP1 POP DUP2 DUP2 SUB PUSH1 0x0 DUP4 ADD MSTORE PUSH3 0x63D DUP2 DUP6 PUSH3 0x5A6 JUMP JUMPDEST SWAP1 POP PUSH3 0x64E PUSH1 0x20 DUP4 ADD DUP5 PUSH3 0x610 JUMP JUMPDEST SWAP4 SWAP3 POP POP POP JUMP JUMPDEST PUSH1 0x0 PUSH1 0x20 DUP3 ADD SWAP1 POP PUSH3 0x66C PUSH1 0x0 DUP4 ADD DUP5 PUSH3 0x610 JUMP JUMPDEST SWAP3 SWAP2 POP POP JUMP JUMPDEST PUSH2 0x3162 DUP1 PUSH3 0x682 PUSH1 0x0 CODECOPY PUSH1 0x0 RETURN INVALID PUSH1 0x80 PUSH1 0x40 MSTORE CALLVALUE DUP1 ISZERO PUSH3 0x11 JUMPI PUSH1 0x0 DUP1 REVERT JUMPDEST POP PUSH1 0x4 CALLDATASIZE LT PUSH3 0x52 JUMPI PUSH1 0x0 CALLDATALOAD PUSH1 0xE0 SHR DUP1 PUSH4 0x745BD5A2 EQ PUSH3 0x57 JUMPI DUP1 PUSH4 0xCEBAC5E3 EQ PUSH3 0x79 JUMPI DUP1 PUSH4 0xD2DE5072 EQ PUSH3 0x99 JUMPI DUP1 PUSH4 0xFC9FFE02 EQ PUSH3 0xCF JUMPI JUMPDEST PUSH1 0x0 DUP1 REVERT JUMPDEST PUSH3 0x61 PUSH3 0xF1 JUMP JUMPDEST PUSH1 0x40 MLOAD PUSH3 0x70 SWAP2 SWAP1 PUSH3 0x533 JUMP JUMPDEST PUSH1 0x40 MLOAD DUP1 SWAP2 SUB SWAP1 RETURN JUMPDEST PUSH3 0x97 PUSH1 0x4 DUP1 CALLDATASIZE SUB DUP2 ADD SWAP1 PUSH3 0x91 SWAP2 SWAP1 PUSH3 0x76F JUMP JUMPDEST PUSH3 0x140 JUMP JUMPDEST STOP JUMPDEST PUSH3 0xB7 PUSH1 0x4 DUP1 CALLDATASIZE SUB DUP2 ADD SWAP1 PUSH3 0xB1 SWAP2 SWAP1 PUSH3 0x7D5 JUMP JUMPDEST PUSH3 0x307 JUMP JUMPDEST PUSH1 0x40 MLOAD PUSH3 0xC6 SWAP2 SWAP1 PUSH3 0x872 JUMP JUMPDEST PUSH1 0x40 MLOAD DUP1 SWAP2 SUB SWAP1 RETURN JUMPDEST PUSH3 0xD9 PUSH3 0x347 JUMP JUMPDEST PUSH1 0x40 MLOAD PUSH3 0xE8 SWAP2 SWAP1 PUSH3 0x95D JUMP JUMPDEST PUSH1 0x40 MLOAD DUP1 SWAP2 SUB SWAP1 RETURN JUMPDEST PUSH1 0x0 PUSH3 0x109 PUSH8 0x4EFB663839295B3C PUSH1 0xC0 SHL PUSH3 0x507 JUMP JUMPDEST PUSH3 0x11F PUSH8 0xFFAAAC87D3DE0A5F PUSH1 0xC0 SHL PUSH3 0x507 JUMP JUMPDEST PUSH3 0x135 PUSH8 0xD2892350A4F0FC6 PUSH1 0xC0 SHL PUSH3 0x507 JUMP JUMPDEST PUSH1 0x0 DUP1 SLOAD SWAP1 POP SWAP1 POP SWAP1 JUMP JUMPDEST PUSH3 0x156 PUSH8 0x3F9917347D8797B7 PUSH1 0xC0 SHL PUSH3 0x507 JUMP JUMPDEST PUSH3 0x16C PUSH8 0xA8D8778F40E0583F PUSH1 0xC0 SHL PUSH3 0x507 JUMP JUMPDEST PUSH3 0x182 PUSH8 0xA44FA42066D94F1 PUSH1 0xC0 SHL PUSH3 0x507 JUMP JUMPDEST PUSH1 0x0 DUP3 DUP3 PUSH1 0x40 MLOAD PUSH3 0x194 SWAP1 PUSH3 0x50A JUMP JUMPDEST PUSH3 0x1A1 SWAP3 SWAP2 SWAP1 PUSH3 0x981 JUMP JUMPDEST PUSH1 0x40 MLOAD DUP1 SWAP2 SUB SWAP1 PUSH1 0x0 CREATE DUP1 ISZERO DUP1 ISZERO PUSH3 0x1BE JUMPI RETURNDATASIZE PUSH1 0x0 DUP1 RETURNDATACOPY RETURNDATASIZE PUSH1 0x0 REVERT JUMPDEST POP SWAP1 POP PUSH3 0x1D7 PUSH8 0x8E1E20B226BBFF4F PUSH1 0xC0 SHL PUSH3 0x507 JUMP JUMPDEST PUSH3 0x1ED PUSH8 0x88B174DA6ED0B5CA PUSH1 0xC0 SHL PUSH3 0x507 JUMP JUMPDEST PUSH1 0x0 DUP1 DUP1 SLOAD SWAP1 POP SWAP1 POP PUSH3 0x20C PUSH8 0xD3E8A758B1369511 PUSH1 0xC0 SHL PUSH3 0x507 JUMP JUMPDEST PUSH3 0x222 PUSH8 0x7C0B5B6203E28983 PUSH1 0xC0 SHL PUSH3 0x507 JUMP JUMPDEST PUSH1 0x0 DUP3 SWAP1 DUP1 PUSH1 0x1 DUP2 SLOAD ADD DUP1 DUP3 SSTORE DUP1 SWAP2 POP POP PUSH1 0x1 SWAP1 SUB SWAP1 PUSH1 0x0 MSTORE PUSH1 0x20 PUSH1 0x0 KECCAK256 ADD PUSH1 0x0 SWAP1 SWAP2 SWAP1 SWAP2 SWAP1 SWAP2 PUSH2 0x100 EXP DUP2 SLOAD DUP2 PUSH20 0xFFFFFFFFFFFFFFFFFFFFFFFFFFFFFFFFFFFFFFFF MUL NOT AND SWAP1 DUP4 PUSH20 0xFFFFFFFFFFFFFFFFFFFFFFFFFFFFFFFFFFFFFFFF AND MUL OR SWAP1 SSTORE POP PUSH3 0x29B PUSH8 0xCCAB58B8C637751D PUSH1 0xC0 SHL PUSH3 0x507 JUMP JUMPDEST PUSH3 0x2B1 PUSH8 0x4B7E711ADDA82879 PUSH1 0xC0 SHL PUSH3 0x507 JUMP JUMPDEST CALLER PUSH20 0xFFFFFFFFFFFFFFFFFFFFFFFFFFFFFFFFFFFFFFFF AND PUSH32 0x470292D5E9C87E6D5A100A14C56A434C9F25E9E2BE1D5EFA70C3B5F9AEDA505F DUP3 PUSH1 0x40 MLOAD PUSH3 0x2F9 SWAP2 SWAP1 PUSH3 0x533 JUMP JUMPDEST PUSH1 0x40 MLOAD DUP1 SWAP2 SUB SWAP1 LOG2 POP POP POP POP JUMP JUMPDEST PUSH1 0x0 DUP2 DUP2 SLOAD DUP2 LT PUSH3 0x318 JUMPI PUSH1 0x0 DUP1 REVERT JUMPDEST SWAP1 PUSH1 0x0 MSTORE PUSH1 0x20 PUSH1 0x0 KECCAK256 ADD PUSH1 0x0 SWAP2 POP SLOAD SWAP1 PUSH2 0x100 EXP SWAP1 DIV PUSH20 0xFFFFFFFFFFFFFFFFFFFFFFFFFFFFFFFFFFFFFFFF AND DUP2 JUMP JUMPDEST PUSH1 0x60 PUSH3 0x35F PUSH8 0xB4DDA0183336604C PUSH1 0xC0 SHL PUSH3 0x507 JUMP JUMPDEST PUSH3 0x375 PUSH8 0x3BE3A818D7BFD02E PUSH1 0xC0 SHL PUSH3 0x507 JUMP JUMPDEST PUSH3 0x38B PUSH8 0xA586790D26C239AC PUSH1 0xC0 SHL PUSH3 0x507 JUMP JUMPDEST PUSH1 0x0 DUP1 DUP1 SLOAD SWAP1 POP PUSH8 0xFFFFFFFFFFFFFFFF DUP2 GT ISZERO PUSH3 0x3AE JUMPI PUSH3 0x3AD PUSH3 0x57A JUMP JUMPDEST JUMPDEST PUSH1 0x40 MLOAD SWAP1 DUP1 DUP3 MSTORE DUP1 PUSH1 0x20 MUL PUSH1 0x20 ADD DUP3 ADD PUSH1 0x40 MSTORE DUP1 ISZERO PUSH3 0x3DD JUMPI DUP2 PUSH1 0x20 ADD PUSH1 0x20 DUP3 MUL DUP1 CALLDATASIZE DUP4 CALLDATACOPY DUP1 DUP3 ADD SWAP2 POP POP SWAP1 POP JUMPDEST POP SWAP1 POP PUSH3 0x3F6 PUSH8 0x5F5CC037EEB1EFA PUSH1 0xC0 SHL PUSH3 0x507 JUMP JUMPDEST PUSH3 0x40C PUSH8 0xE19227A607660FF7 PUSH1 0xC0 SHL PUSH3 0x507 JUMP JUMPDEST PUSH1 0x0 JUMPDEST PUSH1 0x0 DUP1 SLOAD SWAP1 POP DUP2 LT ISZERO PUSH3 0x4D3 JUMPI PUSH3 0x433 PUSH8 0x88873A2FF420490E PUSH1 0xC0 SHL PUSH3 0x507 JUMP JUMPDEST PUSH1 0x0 DUP2 DUP2 SLOAD DUP2 LT PUSH3 0x44A JUMPI PUSH3 0x449 PUSH3 0x9B5 JUMP JUMPDEST JUMPDEST SWAP1 PUSH1 0x0 MSTORE PUSH1 0x20 PUSH1 0x0 KECCAK256 ADD PUSH1 0x0 SWAP1 SLOAD SWAP1 PUSH2 0x100 EXP SWAP1 DIV PUSH20 0xFFFFFFFFFFFFFFFFFFFFFFFFFFFFFFFFFFFFFFFF AND DUP3 DUP3 DUP2 MLOAD DUP2 LT PUSH3 0x48B JUMPI PUSH3 0x48A PUSH3 0x9B5 JUMP JUMPDEST JUMPDEST PUSH1 0x20 MUL PUSH1 0x20 ADD ADD SWAP1 PUSH20 0xFFFFFFFFFFFFFFFFFFFFFFFFFFFFFFFFFFFFFFFF AND SWAP1 DUP2 PUSH20 0xFFFFFFFFFFFFFFFFFFFFFFFFFFFFFFFFFFFFFFFF AND DUP2 MSTORE POP POP DUP1 DUP1 PUSH1 0x1 ADD SWAP2 POP POP PUSH3 0x40F JUMP JUMPDEST POP PUSH3 0x4EA PUSH8 0x45D5016B96CBF54 PUSH1 0xC0 SHL PUSH3 0x507 JUMP JUMPDEST PUSH3 0x500 PUSH8 0xE59D88C4AFE829AA PUSH1 0xC0 SHL PUSH3 0x507 JUMP JUMPDEST DUP1 SWAP2 POP POP SWAP1 JUMP JUMPDEST POP JUMP JUMPDEST PUSH2 0x2748 DUP1 PUSH3 0x9E5 DUP4 CODECOPY ADD SWAP1 JUMP JUMPDEST PUSH1 0x0 DUP2 SWAP1 POP SWAP2 SWAP1 POP JUMP JUMPDEST PUSH3 0x52D DUP2 PUSH3 0x518 JUMP JUMPDEST DUP3 MSTORE POP POP JUMP JUMPDEST PUSH1 0x0 PUSH1 0x20 DUP3 ADD SWAP1 POP PUSH3 0x54A PUSH1 0x0 DUP4 ADD DUP5 PUSH3 0x522 JUMP JUMPDEST SWAP3 SWAP2 POP POP JUMP JUMPDEST PUSH1 0x0 PUSH1 0x40 MLOAD SWAP1 POP SWAP1 JUMP JUMPDEST PUSH1 0x0 DUP1 REVERT JUMPDEST PUSH1 0x0 DUP1 REVERT JUMPDEST PUSH1 0x0 DUP1 REVERT JUMPDEST PUSH1 0x0 PUSH1 0x1F NOT PUSH1 0x1F DUP4 ADD AND SWAP1 POP SWAP2 SWAP1 POP JUMP JUMPDEST PUSH32 0x4E487B7100000000000000000000000000000000000000000000000000000000 PUSH1 0x0 MSTORE PUSH1 0x41 PUSH1 0x4 MSTORE PUSH1 0x24 PUSH1 0x0 REVERT JUMPDEST PUSH3 0x5B4 DUP3 PUSH3 0x569 JUMP JUMPDEST DUP2 ADD DUP2 DUP2 LT PUSH8 0xFFFFFFFFFFFFFFFF DUP3 GT OR ISZERO PUSH3 0x5D6 JUMPI PUSH3 0x5D5 PUSH3 0x57A JUMP JUMPDEST JUMPDEST DUP1 PUSH1 0x40 MSTORE POP POP POP JUMP JUMPDEST PUSH1 0x0 PUSH3 0x5EB PUSH3 0x550 JUMP JUMPDEST SWAP1 POP PUSH3 0x5F9 DUP3 DUP3 PUSH3 0x5A9 JUMP JUMPDEST SWAP2 SWAP1 POP JUMP JUMPDEST PUSH1 0x0 PUSH8 0xFFFFFFFFFFFFFFFF DUP3 GT ISZERO PUSH3 0x61C JUMPI PUSH3 0x61B PUSH3 0x57A JUMP JUMPDEST JUMPDEST PUSH1 0x20 DUP3 MUL SWAP1 POP PUSH1 0x20 DUP2 ADD SWAP1 POP SWAP2 SWAP1 POP JUMP JUMPDEST PUSH1 0x0 DUP1 REVERT JUMPDEST PUSH1 0x0 PUSH20 0xFFFFFFFFFFFFFFFFFFFFFFFFFFFFFFFFFFFFFFFF DUP3 AND SWAP1 POP SWAP2 SWAP1 POP JUMP JUMPDEST PUSH1 0x0 PUSH3 0x65F DUP3 PUSH3 0x632 JUMP JUMPDEST SWAP1 POP SWAP2 SWAP1 POP JUMP JUMPDEST PUSH3 0x671 DUP2 PUSH3 0x652 JUMP JUMPDEST DUP2 EQ PUSH3 0x67D JUMPI PUSH1 0x0 DUP1 REVERT JUMPDEST POP JUMP JUMPDEST PUSH1 0x0 DUP2 CALLDATALOAD SWAP1 POP PUSH3 0x691 DUP2 PUSH3 0x666 JUMP JUMPDEST SWAP3 SWAP2 POP POP JUMP JUMPDEST PUSH1 0x0 PUSH3 0x6AE PUSH3 0x6A8 DUP5 PUSH3 0x5FE JUMP JUMPDEST PUSH3 0x5DF JUMP JUMPDEST SWAP1 POP DUP1 DUP4 DUP3 MSTORE PUSH1 0x20 DUP3 ADD SWAP1 POP PUSH1 0x20 DUP5 MUL DUP4 ADD DUP6 DUP2 GT ISZERO PUSH3 0x6D4 JUMPI PUSH3 0x6D3 PUSH3 0x62D JUMP JUMPDEST JUMPDEST DUP4 JUMPDEST DUP2 DUP2 LT ISZERO PUSH3 0x701 JUMPI DUP1 PUSH3 0x6EC DUP9 DUP3 PUSH3 0x680 JUMP JUMPDEST DUP5 MSTORE PUSH1 0x20 DUP5 ADD SWAP4 POP POP PUSH1 0x20 DUP2 ADD SWAP1 POP PUSH3 0x6D6 JUMP JUMPDEST POP POP POP SWAP4 SWAP3 POP POP POP JUMP JUMPDEST PUSH1 0x0 DUP3 PUSH1 0x1F DUP4 ADD SLT PUSH3 0x723 JUMPI PUSH3 0x722 PUSH3 0x564 JUMP JUMPDEST JUMPDEST DUP2 CALLDATALOAD PUSH3 0x735 DUP5 DUP3 PUSH1 0x20 DUP7 ADD PUSH3 0x697 JUMP JUMPDEST SWAP2 POP POP SWAP3 SWAP2 POP POP JUMP JUMPDEST PUSH3 0x749 DUP2 PUSH3 0x518 JUMP JUMPDEST DUP2 EQ PUSH3 0x755 JUMPI PUSH1 0x0 DUP1 REVERT JUMPDEST POP JUMP JUMPDEST PUSH1 0x0 DUP2 CALLDATALOAD SWAP1 POP PUSH3 0x769 DUP2 PUSH3 0x73E JUMP JUMPDEST SWAP3 SWAP2 POP POP JUMP JUMPDEST PUSH1 0x0 DUP1 PUSH1 0x40 DUP4 DUP6 SUB SLT ISZERO PUSH3 0x789 JUMPI PUSH3 0x788 PUSH3 0x55A JUMP JUMPDEST JUMPDEST PUSH1 0x0 DUP4 ADD CALLDATALOAD PUSH8 0xFFFFFFFFFFFFFFFF DUP2 GT ISZERO PUSH3 0x7AA JUMPI PUSH3 0x7A9 PUSH3 0x55F JUMP JUMPDEST JUMPDEST PUSH3 0x7B8 DUP6 DUP3 DUP7 ADD PUSH3 0x70B JUMP JUMPDEST SWAP3 POP POP PUSH1 0x20 PUSH3 0x7CB DUP6 DUP3 DUP7 ADD PUSH3 0x758 JUMP JUMPDEST SWAP2 POP POP SWAP3 POP SWAP3 SWAP1 POP JUMP JUMPDEST PUSH1 0x0 PUSH1 0x20 DUP3 DUP5 SUB SLT ISZERO PUSH3 0x7EE JUMPI PUSH3 0x7ED PUSH3 0x55A JUMP JUMPDEST JUMPDEST PUSH1 0x0 PUSH3 0x7FE DUP5 DUP3 DUP6 ADD PUSH3 0x758 JUMP JUMPDEST SWAP2 POP POP SWAP3 SWAP2 POP POP JUMP JUMPDEST PUSH1 0x0 DUP2 SWAP1 POP SWAP2 SWAP1 POP JUMP JUMPDEST PUSH1 0x0 PUSH3 0x832 PUSH3 0x82C PUSH3 0x826 DUP5 PUSH3 0x632 JUMP JUMPDEST PUSH3 0x807 JUMP JUMPDEST PUSH3 0x632 JUMP JUMPDEST SWAP1 POP SWAP2 SWAP1 POP JUMP JUMPDEST PUSH1 0x0 PUSH3 0x846 DUP3 PUSH3 0x811 JUMP JUMPDEST SWAP1 POP SWAP2 SWAP1 POP JUMP JUMPDEST PUSH1 0x0 PUSH3 0x85A DUP3 PUSH3 0x839 JUMP JUMPDEST SWAP1 POP SWAP2 SWAP1 POP JUMP JUMPDEST PUSH3 0x86C DUP2 PUSH3 0x84D JUMP JUMPDEST DUP3 MSTORE POP POP JUMP JUMPDEST PUSH1 0x0 PUSH1 0x20 DUP3 ADD SWAP1 POP PUSH3 0x889 PUSH1 0x0 DUP4 ADD DUP5 PUSH3 0x861 JUMP JUMPDEST SWAP3 SWAP2 POP POP JUMP JUMPDEST PUSH1 0x0 DUP2 MLOAD SWAP1 POP SWAP2 SWAP1 POP JUMP JUMPDEST PUSH1 0x0 DUP3 DUP3 MSTORE PUSH1 0x20 DUP3 ADD SWAP1 POP SWAP3 SWAP2 POP POP JUMP JUMPDEST PUSH1 0x0 DUP2 SWAP1 POP PUSH1 0x20 DUP3 ADD SWAP1 POP SWAP2 SWAP1 POP JUMP JUMPDEST PUSH3 0x8C6 DUP2 PUSH3 0x652 JUMP JUMPDEST DUP3 MSTORE POP POP JUMP JUMPDEST PUSH1 0x0 PUSH3 0x8DA DUP4 DUP4 PUSH3 0x8BB JUMP JUMPDEST PUSH1 0x20 DUP4 ADD SWAP1 POP SWAP3 SWAP2 POP POP JUMP JUMPDEST PUSH1 0x0 PUSH1 0x20 DUP3 ADD SWAP1 POP SWAP2 SWAP1 POP JUMP JUMPDEST PUSH1 0x0 PUSH3 0x900 DUP3 PUSH3 0x88F JUMP JUMPDEST PUSH3 0x90C DUP2 DUP6 PUSH3 0x89A JUMP JUMPDEST SWAP4 POP PUSH3 0x919 DUP4 PUSH3 0x8AB JUMP JUMPDEST DUP1 PUSH1 0x0 JUMPDEST DUP4 DUP2 LT ISZERO PUSH3 0x950 JUMPI DUP2 MLOAD PUSH3 0x934 DUP9 DUP3 PUSH3 0x8CC JUMP JUMPDEST SWAP8 POP PUSH3 0x941 DUP4 PUSH3 0x8E6 JUMP JUMPDEST SWAP3 POP POP PUSH1 0x1 DUP2 ADD SWAP1 POP PUSH3 0x91D JUMP JUMPDEST POP DUP6 SWAP4 POP POP POP POP SWAP3 SWAP2 POP POP JUMP JUMPDEST PUSH1 0x0 PUSH1 0x20 DUP3 ADD SWAP1 POP DUP2 DUP2 SUB PUSH1 0x0 DUP4 ADD MSTORE PUSH3 0x979 DUP2 DUP5 PUSH3 0x8F3 JUMP JUMPDEST SWAP1 POP SWAP3 SWAP2 POP POP JUMP JUMPDEST PUSH1 0x0 PUSH1 0x40 DUP3 ADD SWAP1 POP DUP2 DUP2 SUB PUSH1 0x0 DUP4 ADD MSTORE PUSH3 0x99D DUP2 DUP6 PUSH3 0x8F3 JUMP JUMPDEST SWAP1 POP PUSH3 0x9AE PUSH1 0x20 DUP4 ADD DUP5 PUSH3 0x522 JUMP JUMPDEST SWAP4 SWAP3 POP POP POP JUMP JUMPDEST PUSH32 0x4E487B7100000000000000000000000000000000000000000000000000000000 PUSH1 0x0 MSTORE PUSH1 0x32 PUSH1 0x4 MSTORE PUSH1 0x24 PUSH1 0x0 REVERT INVALID PUSH1 0xA0 PUSH1 0x40 MSTORE CALLVALUE DUP1 ISZERO PUSH3 0x11 JUMPI PUSH1 0x0 DUP1 REVERT JUMPDEST POP PUSH1 0x40 MLOAD PUSH3 0x2748 CODESIZE SUB DUP1 PUSH3 0x2748 DUP4 CODECOPY DUP2 DUP2 ADD PUSH1 0x40 MSTORE DUP2 ADD SWAP1 PUSH3 0x37 SWAP2 SWAP1 PUSH3 0x7C5 JUMP JUMPDEST PUSH3 0x53 PUSH8 0x9A3501C4F24D92F7 PUSH1 0xC0 SHL PUSH3 0x599 PUSH1 0x20 SHL PUSH1 0x20 SHR JUMP JUMPDEST PUSH3 0x6F PUSH8 0x9405006347C2BACF PUSH1 0xC0 SHL PUSH3 0x599 PUSH1 0x20 SHL PUSH1 0x20 SHR JUMP JUMPDEST PUSH3 0x8B PUSH8 0xFAFE303F6188DF2B PUSH1 0xC0 SHL PUSH3 0x599 PUSH1 0x20 SHL PUSH1 0x20 SHR JUMP JUMPDEST PUSH3 0xA7 PUSH8 0x4228DE60DC6CD395 PUSH1 0xC0 SHL PUSH3 0x599 PUSH1 0x20 SHL PUSH1 0x20 SHR JUMP JUMPDEST PUSH1 0x0 DUP3 MLOAD GT PUSH3 0xEE JUMPI PUSH1 0x40 MLOAD PUSH32 0x8C379A000000000000000000000000000000000000000000000000000000000 DUP2 MSTORE PUSH1 0x4 ADD PUSH3 0xE5 SWAP1 PUSH3 0x88C JUMP JUMPDEST PUSH1 0x40 MLOAD DUP1 SWAP2 SUB SWAP1 REVERT JUMPDEST PUSH3 0x10A PUSH8 0x9F41A444E3B48AC7 PUSH1 0xC0 SHL PUSH3 0x599 PUSH1 0x20 SHL PUSH1 0x20 SHR JUMP JUMPDEST PUSH3 0x126 PUSH8 0x1DEF365669992F01 PUSH1 0xC0 SHL PUSH3 0x599 PUSH1 0x20 SHL PUSH1 0x20 SHR JUMP JUMPDEST PUSH3 0x142 PUSH8 0xE1BF961522B60262 PUSH1 0xC0 SHL PUSH3 0x599 PUSH1 0x20 SHL PUSH1 0x20 SHR JUMP JUMPDEST PUSH3 0x15E PUSH8 0xDD40C59854E481D3 PUSH1 0xC0 SHL PUSH3 0x599 PUSH1 0x20 SHL PUSH1 0x20 SHR JUMP JUMPDEST PUSH1 0x0 DUP2 GT DUP1 ISZERO PUSH3 0x170 JUMPI POP DUP2 MLOAD DUP2 GT ISZERO JUMPDEST PUSH3 0x1B2 JUMPI PUSH1 0x40 MLOAD PUSH32 0x8C379A000000000000000000000000000000000000000000000000000000000 DUP2 MSTORE PUSH1 0x4 ADD PUSH3 0x1A9 SWAP1 PUSH3 0x924 JUMP JUMPDEST PUSH1 0x40 MLOAD DUP1 SWAP2 SUB SWAP1 REVERT JUMPDEST PUSH3 0x1CE PUSH8 0x4A04155B2440E39B PUSH1 0xC0 SHL PUSH3 0x599 PUSH1 0x20 SHL PUSH1 0x20 SHR JUMP JUMPDEST PUSH3 0x1EA PUSH8 0xC28B74028EA993E0 PUSH1 0xC0 SHL PUSH3 0x599 PUSH1 0x20 SHL PUSH1 0x20 SHR JUMP JUMPDEST PUSH3 0x206 PUSH8 0xE1FF14CB7ED2353E PUSH1 0xC0 SHL PUSH3 0x599 PUSH1 0x20 SHL PUSH1 0x20 SHR JUMP JUMPDEST PUSH1 0x0 JUMPDEST DUP3 MLOAD DUP2 LT ISZERO PUSH3 0x56C JUMPI PUSH3 0x22F PUSH8 0xDB9FACB5271C0B6C PUSH1 0xC0 SHL PUSH3 0x599 PUSH1 0x20 SHL PUSH1 0x20 SHR JUMP JUMPDEST PUSH3 0x24B PUSH8 0xB913A6CDB74CB2EC PUSH1 0xC0 SHL PUSH3 0x599 PUSH1 0x20 SHL PUSH1 0x20 SHR JUMP JUMPDEST PUSH1 0x0 DUP4 DUP3 DUP2 MLOAD DUP2 LT PUSH3 0x263 JUMPI PUSH3 0x262 PUSH3 0x946 JUMP JUMPDEST JUMPDEST PUSH1 0x20 MUL PUSH1 0x20 ADD ADD MLOAD SWAP1 POP PUSH3 0x289 PUSH8 0x138CCC31BFD89AF5 PUSH1 0xC0 SHL PUSH3 0x599 PUSH1 0x20 SHL PUSH1 0x20 SHR JUMP JUMPDEST PUSH3 0x2A5 PUSH8 0x2FB7E4FA97E8C651 PUSH1 0xC0 SHL PUSH3 0x599 PUSH1 0x20 SHL PUSH1 0x20 SHR JUMP JUMPDEST PUSH3 0x2C1 PUSH8 0x5311A44D1A96F28A PUSH1 0xC0 SHL PUSH3 0x599 PUSH1 0x20 SHL PUSH1 0x20 SHR JUMP JUMPDEST PUSH1 0x0 PUSH20 0xFFFFFFFFFFFFFFFFFFFFFFFFFFFFFFFFFFFFFFFF AND DUP2 PUSH20 0xFFFFFFFFFFFFFFFFFFFFFFFFFFFFFFFFFFFFFFFF AND SUB PUSH3 0x333 JUMPI PUSH1 0x40 MLOAD PUSH32 0x8C379A000000000000000000000000000000000000000000000000000000000 DUP2 MSTORE PUSH1 0x4 ADD PUSH3 0x32A SWAP1 PUSH3 0x9C5 JUMP JUMPDEST PUSH1 0x40 MLOAD DUP1 SWAP2 SUB SWAP1 REVERT JUMPDEST PUSH3 0x34F PUSH8 0xF43D6BA53857D6C8 PUSH1 0xC0 SHL PUSH3 0x599 PUSH1 0x20 SHL PUSH1 0x20 SHR JUMP JUMPDEST PUSH3 0x36B PUSH8 0x961A360982F5CEE9 PUSH1 0xC0 SHL PUSH3 0x599 PUSH1 0x20 SHL PUSH1 0x20 SHR JUMP JUMPDEST PUSH3 0x387 PUSH8 0x2EE30915E732C81F PUSH1 0xC0 SHL PUSH3 0x599 PUSH1 0x20 SHL PUSH1 0x20 SHR JUMP JUMPDEST PUSH3 0x3A3 PUSH8 0xE95BECE668636322 PUSH1 0xC0 SHL PUSH3 0x599 PUSH1 0x20 SHL PUSH1 0x20 SHR JUMP JUMPDEST PUSH1 0x1 PUSH1 0x0 DUP3 PUSH20 0xFFFFFFFFFFFFFFFFFFFFFFFFFFFFFFFFFFFFFFFF AND PUSH20 0xFFFFFFFFFFFFFFFFFFFFFFFFFFFFFFFFFFFFFFFF AND DUP2 MSTORE PUSH1 0x20 ADD SWAP1 DUP2 MSTORE PUSH1 0x20 ADD PUSH1 0x0 KECCAK256 PUSH1 0x0 SWAP1 SLOAD SWAP1 PUSH2 0x100 EXP SWAP1 DIV PUSH1 0xFF AND ISZERO PUSH3 0x433 JUMPI PUSH1 0x40 MLOAD PUSH32 0x8C379A000000000000000000000000000000000000000000000000000000000 DUP2 MSTORE PUSH1 0x4 ADD PUSH3 0x42A SWAP1 PUSH3 0xA37 JUMP JUMPDEST PUSH1 0x40 MLOAD DUP1 SWAP2 SUB SWAP1 REVERT JUMPDEST PUSH3 0x44F PUSH8 0x7E5E43438A7F78A3 PUSH1 0xC0 SHL PUSH3 0x599 PUSH1 0x20 SHL PUSH1 0x20 SHR JUMP JUMPDEST PUSH3 0x46B PUSH8 0x9ABCEA1ED140656B PUSH1 0xC0 SHL PUSH3 0x599 PUSH1 0x20 SHL PUSH1 0x20 SHR JUMP JUMPDEST PUSH1 0x1 DUP1 PUSH1 0x0 DUP4 PUSH20 0xFFFFFFFFFFFFFFFFFFFFFFFFFFFFFFFFFFFFFFFF AND PUSH20 0xFFFFFFFFFFFFFFFFFFFFFFFFFFFFFFFFFFFFFFFF AND DUP2 MSTORE PUSH1 0x20 ADD SWAP1 DUP2 MSTORE PUSH1 0x20 ADD PUSH1 0x0 KECCAK256 PUSH1 0x0 PUSH2 0x100 EXP DUP2 SLOAD DUP2 PUSH1 0xFF MUL NOT AND SWAP1 DUP4 ISZERO ISZERO MUL OR SWAP1 SSTORE POP PUSH3 0x4DE PUSH8 0x42AF4173FA3CE215 PUSH1 0xC0 SHL PUSH3 0x599 PUSH1 0x20 SHL PUSH1 0x20 SHR JUMP JUMPDEST PUSH3 0x4FA PUSH8 0xDEF054AC5E0E1D94 PUSH1 0xC0 SHL PUSH3 0x599 PUSH1 0x20 SHL PUSH1 0x20 SHR JUMP JUMPDEST PUSH1 0x0 DUP2 SWAP1 DUP1 PUSH1 0x1 DUP2 SLOAD ADD DUP1 DUP3 SSTORE DUP1 SWAP2 POP POP PUSH1 0x1 SWAP1 SUB SWAP1 PUSH1 0x0 MSTORE PUSH1 0x20 PUSH1 0x0 KECCAK256 ADD PUSH1 0x0 SWAP1 SWAP2 SWAP1 SWAP2 SWAP1 SWAP2 PUSH2 0x100 EXP DUP2 SLOAD DUP2 PUSH20 0xFFFFFFFFFFFFFFFFFFFFFFFFFFFFFFFFFFFFFFFF MUL NOT AND SWAP1 DUP4 PUSH20 0xFFFFFFFFFFFFFFFFFFFFFFFFFFFFFFFFFFFFFFFF AND MUL OR SWAP1 SSTORE POP POP DUP1 DUP1 PUSH1 0x1 ADD SWAP2 POP POP PUSH3 0x209 JUMP JUMPDEST POP PUSH3 0x589 PUSH8 0xBB4529980DE537E8 PUSH1 0xC0 SHL PUSH3 0x599 PUSH1 0x20 SHL PUSH1 0x20 SHR JUMP JUMPDEST DUP1 PUSH1 0x80 DUP2 DUP2 MSTORE POP POP POP POP PUSH3 0xA59 JUMP JUMPDEST POP JUMP JUMPDEST PUSH1 0x0 PUSH1 0x40 MLOAD SWAP1 POP SWAP1 JUMP JUMPDEST PUSH1 0x0 DUP1 REVERT JUMPDEST PUSH1 0x0 DUP1 REVERT JUMPDEST PUSH1 0x0 DUP1 REVERT JUMPDEST PUSH1 0x0 PUSH1 0x1F NOT PUSH1 0x1F DUP4 ADD AND SWAP1 POP SWAP2 SWAP1 POP JUMP JUMPDEST PUSH32 0x4E487B7100000000000000000000000000000000000000000000000000000000 PUSH1 0x0 MSTORE PUSH1 0x41 PUSH1 0x4 MSTORE PUSH1 0x24 PUSH1 0x0 REVERT JUMPDEST PUSH3 0x600 DUP3 PUSH3 0x5B5 JUMP JUMPDEST DUP2 ADD DUP2 DUP2 LT PUSH8 0xFFFFFFFFFFFFFFFF DUP3 GT OR ISZERO PUSH3 0x622 JUMPI PUSH3 0x621 PUSH3 0x5C6 JUMP JUMPDEST JUMPDEST DUP1 PUSH1 0x40 MSTORE POP POP POP JUMP JUMPDEST PUSH1 0x0 PUSH3 0x637 PUSH3 0x59C JUMP JUMPDEST SWAP1 POP PUSH3 0x645 DUP3 DUP3 PUSH3 0x5F5 JUMP JUMPDEST SWAP2 SWAP1 POP JUMP JUMPDEST PUSH1 0x0 PUSH8 0xFFFFFFFFFFFFFFFF DUP3 GT ISZERO PUSH3 0x668 JUMPI PUSH3 0x667 PUSH3 0x5C6 JUMP JUMPDEST JUMPDEST PUSH1 0x20 DUP3 MUL SWAP1 POP PUSH1 0x20 DUP2 ADD SWAP1 POP SWAP2 SWAP1 POP JUMP JUMPDEST PUSH1 0x0 DUP1 REVERT JUMPDEST PUSH1 0x0 PUSH20 0xFFFFFFFFFFFFFFFFFFFFFFFFFFFFFFFFFFFFFFFF DUP3 AND SWAP1 POP SWAP2 SWAP1 POP JUMP JUMPDEST PUSH1 0x0 PUSH3 0x6AB DUP3 PUSH3 0x67E JUMP JUMPDEST SWAP1 POP SWAP2 SWAP1 POP JUMP JUMPDEST PUSH3 0x6BD DUP2 PUSH3 0x69E JUMP JUMPDEST DUP2 EQ PUSH3 0x6C9 JUMPI PUSH1 0x0 DUP1 REVERT JUMPDEST POP JUMP JUMPDEST PUSH1 0x0 DUP2 MLOAD SWAP1 POP PUSH3 0x6DD DUP2 PUSH3 0x6B2 JUMP JUMPDEST SWAP3 SWAP2 POP POP JUMP JUMPDEST PUSH1 0x0 PUSH3 0x6FA PUSH3 0x6F4 DUP5 PUSH3 0x64A JUMP JUMPDEST PUSH3 0x62B JUMP JUMPDEST SWAP1 POP DUP1 DUP4 DUP3 MSTORE PUSH1 0x20 DUP3 ADD SWAP1 POP PUSH1 0x20 DUP5 MUL DUP4 ADD DUP6 DUP2 GT ISZERO PUSH3 0x720 JUMPI PUSH3 0x71F PUSH3 0x679 JUMP JUMPDEST JUMPDEST DUP4 JUMPDEST DUP2 DUP2 LT ISZERO PUSH3 0x74D JUMPI DUP1 PUSH3 0x738 DUP9 DUP3 PUSH3 0x6CC JUMP JUMPDEST DUP5 MSTORE PUSH1 0x20 DUP5 ADD SWAP4 POP POP PUSH1 0x20 DUP2 ADD SWAP1 POP PUSH3 0x722 JUMP JUMPDEST POP POP POP SWAP4 SWAP3 POP POP POP JUMP JUMPDEST PUSH1 0x0 DUP3 PUSH1 0x1F DUP4 ADD SLT PUSH3 0x76F JUMPI PUSH3 0x76E PUSH3 0x5B0 JUMP JUMPDEST JUMPDEST DUP2 MLOAD PUSH3 0x781 DUP5 DUP3 PUSH1 0x20 DUP7 ADD PUSH3 0x6E3 JUMP JUMPDEST SWAP2 POP POP SWAP3 SWAP2 POP POP JUMP JUMPDEST PUSH1 0x0 DUP2 SWAP1 POP SWAP2 SWAP1 POP JUMP JUMPDEST PUSH3 0x79F DUP2 PUSH3 0x78A JUMP JUMPDEST DUP2 EQ PUSH3 0x7AB JUMPI PUSH1 0x0 DUP1 REVERT JUMPDEST POP JUMP JUMPDEST PUSH1 0x0 DUP2 MLOAD SWAP1 POP PUSH3 0x7BF DUP2 PUSH3 0x794 JUMP JUMPDEST SWAP3 SWAP2 POP POP JUMP JUMPDEST PUSH1 0x0 DUP1 PUSH1 0x40 DUP4 DUP6 SUB SLT ISZERO PUSH3 0x7DF JUMPI PUSH3 0x7DE PUSH3 0x5A6 JUMP JUMPDEST JUMPDEST PUSH1 0x0 DUP4 ADD MLOAD PUSH8 0xFFFFFFFFFFFFFFFF DUP2 GT ISZERO PUSH3 0x800 JUMPI PUSH3 0x7FF PUSH3 0x5AB JUMP JUMPDEST JUMPDEST PUSH3 0x80E DUP6 DUP3 DUP7 ADD PUSH3 0x757 JUMP JUMPDEST SWAP3 POP POP PUSH1 0x20 PUSH3 0x821 DUP6 DUP3 DUP7 ADD PUSH3 0x7AE JUMP JUMPDEST SWAP2 POP POP SWAP3 POP SWAP3 SWAP1 POP JUMP JUMPDEST PUSH1 0x0 DUP3 DUP3 MSTORE PUSH1 0x20 DUP3 ADD SWAP1 POP SWAP3 SWAP2 POP POP JUMP JUMPDEST PUSH32 0x6F776E6572732072657175697265640000000000000000000000000000000000 PUSH1 0x0 DUP3 ADD MSTORE POP JUMP JUMPDEST PUSH1 0x0 PUSH3 0x874 PUSH1 0xF DUP4 PUSH3 0x82B JUMP JUMPDEST SWAP2 POP PUSH3 0x881 DUP3 PUSH3 0x83C JUMP JUMPDEST PUSH1 0x20 DUP3 ADD SWAP1 POP SWAP2 SWAP1 POP JUMP JUMPDEST PUSH1 0x0 PUSH1 0x20 DUP3 ADD SWAP1 POP DUP2 DUP2 SUB PUSH1 0x0 DUP4 ADD MSTORE PUSH3 0x8A7 DUP2 PUSH3 0x865 JUMP JUMPDEST SWAP1 POP SWAP2 SWAP1 POP JUMP JUMPDEST PUSH32 0x696E76616C6964206E756D626572206F662072657175697265642071756F7275 PUSH1 0x0 DUP3 ADD MSTORE PUSH32 0x6D00000000000000000000000000000000000000000000000000000000000000 PUSH1 0x20 DUP3 ADD MSTORE POP JUMP JUMPDEST PUSH1 0x0 PUSH3 0x90C PUSH1 0x21 DUP4 PUSH3 0x82B JUMP JUMPDEST SWAP2 POP PUSH3 0x919 DUP3 PUSH3 0x8AE JUMP JUMPDEST PUSH1 0x40 DUP3 ADD SWAP1 POP SWAP2 SWAP1 POP JUMP JUMPDEST PUSH1 0x0 PUSH1 0x20 DUP3 ADD SWAP1 POP DUP2 DUP2 SUB PUSH1 0x0 DUP4 ADD MSTORE PUSH3 0x93F DUP2 PUSH3 0x8FD JUMP JUMPDEST SWAP1 POP SWAP2 SWAP1 POP JUMP JUMPDEST PUSH32 0x4E487B7100000000000000000000000000000000000000000000000000000000 PUSH1 0x0 MSTORE PUSH1 0x32 PUSH1 0x4 MSTORE PUSH1 0x24 PUSH1 0x0 REVERT JUMPDEST PUSH32 0x696E76616C6964206F776E657200000000000000000000000000000000000000 PUSH1 0x0 DUP3 ADD MSTORE POP JUMP JUMPDEST PUSH1 0x0 PUSH3 0x9AD PUSH1 0xD DUP4 PUSH3 0x82B JUMP JUMPDEST SWAP2 POP PUSH3 0x9BA DUP3 PUSH3 0x975 JUMP JUMPDEST PUSH1 0x20 DUP3 ADD SWAP1 POP SWAP2 SWAP1 POP JUMP JUMPDEST PUSH1 0x0 PUSH1 0x20 DUP3 ADD SWAP1 POP DUP2 DUP2 SUB PUSH1 0x0 DUP4 ADD MSTORE PUSH3 0x9E0 DUP2 PUSH3 0x99E JUMP JUMPDEST SWAP1 POP SWAP2 SWAP1 POP JUMP JUMPDEST PUSH32 0x6F776E6572206E6F7420756E6971756500000000000000000000000000000000 PUSH1 0x0 DUP3 ADD MSTORE POP JUMP JUMPDEST PUSH1 0x0 PUSH3 0xA1F PUSH1 0x10 DUP4 PUSH3 0x82B JUMP JUMPDEST SWAP2 POP PUSH3 0xA2C DUP3 PUSH3 0x9E7 JUMP JUMPDEST PUSH1 0x20 DUP3 ADD SWAP1 POP SWAP2 SWAP1 POP JUMP JUMPDEST PUSH1 0x0 PUSH1 0x20 DUP3 ADD SWAP1 POP DUP2 DUP2 SUB PUSH1 0x0 DUP4 ADD MSTORE PUSH3 0xA52 DUP2 PUSH3 0xA10 JUMP JUMPDEST SWAP1 POP SWAP2 SWAP1 POP JUMP JUMPDEST PUSH1 0x80 MLOAD PUSH2 0x1CCC PUSH3 0xA7C PUSH1 0x0 CODECOPY PUSH1 0x0 DUP2 DUP2 PUSH2 0x9CA ADD MSTORE PUSH2 0x11C2 ADD MSTORE PUSH2 0x1CCC PUSH1 0x0 RETURN INVALID PUSH1 0x80 PUSH1 0x40 MSTORE PUSH1 0x4 CALLDATASIZE LT PUSH2 0xC6 JUMPI PUSH1 0x0 CALLDATALOAD PUSH1 0xE0 SHR DUP1 PUSH4 0x5CC07076 GT PUSH2 0x7F JUMPI DUP1 PUSH4 0x9522059C GT PUSH2 0x59 JUMPI DUP1 PUSH4 0x9522059C EQ PUSH2 0x300 JUMPI DUP1 PUSH4 0xA0E67E2B EQ PUSH2 0x32B JUMPI DUP1 PUSH4 0xA9D31066 EQ PUSH2 0x356 JUMPI DUP1 PUSH4 0xD0E30DB0 EQ PUSH2 0x396 JUMPI PUSH2 0x131 JUMP JUMPDEST DUP1 PUSH4 0x5CC07076 EQ PUSH2 0x26A JUMPI DUP1 PUSH4 0x6747DAD7 EQ PUSH2 0x2AA JUMPI DUP1 PUSH4 0x722713F7 EQ PUSH2 0x2D5 JUMPI PUSH2 0x131 JUMP JUMPDEST DUP1 PUSH4 0x25E7C27 EQ PUSH2 0x136 JUMPI DUP1 PUSH4 0x1B671A40 EQ PUSH2 0x173 JUMPI DUP1 PUSH4 0x2F54BF6E EQ PUSH2 0x19C JUMPI DUP1 PUSH4 0x3EBAE36F EQ PUSH2 0x1D9 JUMPI DUP1 PUSH4 0x4B465D74 EQ PUSH2 0x202 JUMPI DUP1 PUSH4 0x56C31637 EQ PUSH2 0x22D JUMPI PUSH2 0x131 JUMP JUMPDEST CALLDATASIZE PUSH2 0x131 JUMPI PUSH2 0xDF PUSH8 0xAFC2AAEF91CAFD94 PUSH1 0xC0 SHL PUSH2 0x3A0 JUMP JUMPDEST CALLER PUSH20 0xFFFFFFFFFFFFFFFFFFFFFFFFFFFFFFFFFFFFFFFF AND PUSH32 0x90890809C654F11D6E72A28FA60149770A0D11EC6C92319D6CEB2BB0A4EA1A15 CALLVALUE SELFBALANCE PUSH1 0x40 MLOAD PUSH2 0x127 SWAP3 SWAP2 SWAP1 PUSH2 0x1598 JUMP JUMPDEST PUSH1 0x40 MLOAD DUP1 SWAP2 SUB SWAP1 LOG2 STOP JUMPDEST PUSH1 0x0 DUP1 REVERT JUMPDEST CALLVALUE DUP1 ISZERO PUSH2 0x142 JUMPI PUSH1 0x0 DUP1 REVERT JUMPDEST POP PUSH2 0x15D PUSH1 0x4 DUP1 CALLDATASIZE SUB DUP2 ADD SWAP1 PUSH2 0x158 SWAP2 SWAP1 PUSH2 0x15F2 JUMP JUMPDEST PUSH2 0x3A3 JUMP JUMPDEST PUSH1 0x40 MLOAD PUSH2 0x16A SWAP2 SWAP1 PUSH2 0x1660 JUMP JUMPDEST PUSH1 0x40 MLOAD DUP1 SWAP2 SUB SWAP1 RETURN JUMPDEST CALLVALUE DUP1 ISZERO PUSH2 0x17F JUMPI PUSH1 0x0 DUP1 REVERT JUMPDEST POP PUSH2 0x19A PUSH1 0x4 DUP1 CALLDATASIZE SUB DUP2 ADD SWAP1 PUSH2 0x195 SWAP2 SWAP1 PUSH2 0x15F2 JUMP JUMPDEST PUSH2 0x3E2 JUMP JUMPDEST STOP JUMPDEST CALLVALUE DUP1 ISZERO PUSH2 0x1A8 JUMPI PUSH1 0x0 DUP1 REVERT JUMPDEST POP PUSH2 0x1C3 PUSH1 0x4 DUP1 CALLDATASIZE SUB DUP2 ADD SWAP1 PUSH2 0x1BE SWAP2 SWAP1 PUSH2 0x16A7 JUMP JUMPDEST PUSH2 0xC12 JUMP JUMPDEST PUSH1 0x40 MLOAD PUSH2 0x1D0 SWAP2 SWAP1 PUSH2 0x16EF JUMP JUMPDEST PUSH1 0x40 MLOAD DUP1 SWAP2 SUB SWAP1 RETURN JUMPDEST CALLVALUE DUP1 ISZERO PUSH2 0x1E5 JUMPI PUSH1 0x0 DUP1 REVERT JUMPDEST POP PUSH2 0x200 PUSH1 0x4 DUP1 CALLDATASIZE SUB DUP2 ADD SWAP1 PUSH2 0x1FB SWAP2 SWAP1 PUSH2 0x1748 JUMP JUMPDEST PUSH2 0xC32 JUMP JUMPDEST STOP JUMPDEST CALLVALUE DUP1 ISZERO PUSH2 0x20E JUMPI PUSH1 0x0 DUP1 REVERT JUMPDEST POP PUSH2 0x217 PUSH2 0xF77 JUMP JUMPDEST PUSH1 0x40 MLOAD PUSH2 0x224 SWAP2 SWAP1 PUSH2 0x18B9 JUMP JUMPDEST PUSH1 0x40 MLOAD DUP1 SWAP2 SUB SWAP1 RETURN JUMPDEST CALLVALUE DUP1 ISZERO PUSH2 0x239 JUMPI PUSH1 0x0 DUP1 REVERT JUMPDEST POP PUSH2 0x254 PUSH1 0x4 DUP1 CALLDATASIZE SUB DUP2 ADD SWAP1 PUSH2 0x24F SWAP2 SWAP1 PUSH2 0x18DB JUMP JUMPDEST PUSH2 0x1097 JUMP JUMPDEST PUSH1 0x40 MLOAD PUSH2 0x261 SWAP2 SWAP1 PUSH2 0x16EF JUMP JUMPDEST PUSH1 0x40 MLOAD DUP1 SWAP2 SUB SWAP1 RETURN JUMPDEST CALLVALUE DUP1 ISZERO PUSH2 0x276 JUMPI PUSH1 0x0 DUP1 REVERT JUMPDEST POP PUSH2 0x291 PUSH1 0x4 DUP1 CALLDATASIZE SUB DUP2 ADD SWAP1 PUSH2 0x28C SWAP2 SWAP1 PUSH2 0x15F2 JUMP JUMPDEST PUSH2 0x10C6 JUMP JUMPDEST PUSH1 0x40 MLOAD PUSH2 0x2A1 SWAP5 SWAP4 SWAP3 SWAP2 SWAP1 PUSH2 0x192A JUMP JUMPDEST PUSH1 0x40 MLOAD DUP1 SWAP2 SUB SWAP1 RETURN JUMPDEST CALLVALUE DUP1 ISZERO PUSH2 0x2B6 JUMPI PUSH1 0x0 DUP1 REVERT JUMPDEST POP PUSH2 0x2BF PUSH2 0x1133 JUMP JUMPDEST PUSH1 0x40 MLOAD PUSH2 0x2CC SWAP2 SWAP1 PUSH2 0x196F JUMP JUMPDEST PUSH1 0x40 MLOAD DUP1 SWAP2 SUB SWAP1 RETURN JUMPDEST CALLVALUE DUP1 ISZERO PUSH2 0x2E1 JUMPI PUSH1 0x0 DUP1 REVERT JUMPDEST POP PUSH2 0x2EA PUSH2 0x117C JUMP JUMPDEST PUSH1 0x40 MLOAD PUSH2 0x2F7 SWAP2 SWAP1 PUSH2 0x196F JUMP JUMPDEST PUSH1 0x40 MLOAD DUP1 SWAP2 SUB SWAP1 RETURN JUMPDEST CALLVALUE DUP1 ISZERO PUSH2 0x30C JUMPI PUSH1 0x0 DUP1 REVERT JUMPDEST POP PUSH2 0x315 PUSH2 0x11C0 JUMP JUMPDEST PUSH1 0x40 MLOAD PUSH2 0x322 SWAP2 SWAP1 PUSH2 0x196F JUMP JUMPDEST PUSH1 0x40 MLOAD DUP1 SWAP2 SUB SWAP1 RETURN JUMPDEST CALLVALUE DUP1 ISZERO PUSH2 0x337 JUMPI PUSH1 0x0 DUP1 REVERT JUMPDEST POP PUSH2 0x340 PUSH2 0x11E4 JUMP JUMPDEST PUSH1 0x40 MLOAD PUSH2 0x34D SWAP2 SWAP1 PUSH2 0x1A48 JUMP JUMPDEST PUSH1 0x40 MLOAD DUP1 SWAP2 SUB SWAP1 RETURN JUMPDEST CALLVALUE DUP1 ISZERO PUSH2 0x362 JUMPI PUSH1 0x0 DUP1 REVERT JUMPDEST POP PUSH2 0x37D PUSH1 0x4 DUP1 CALLDATASIZE SUB DUP2 ADD SWAP1 PUSH2 0x378 SWAP2 SWAP1 PUSH2 0x15F2 JUMP JUMPDEST PUSH2 0x12AE JUMP JUMPDEST PUSH1 0x40 MLOAD PUSH2 0x38D SWAP5 SWAP4 SWAP3 SWAP2 SWAP1 PUSH2 0x1A6A JUMP JUMPDEST PUSH1 0x40 MLOAD DUP1 SWAP2 SUB SWAP1 RETURN JUMPDEST PUSH2 0x39E PUSH2 0x14F1 JUMP JUMPDEST STOP JUMPDEST POP JUMP JUMPDEST PUSH1 0x0 DUP2 DUP2 SLOAD DUP2 LT PUSH2 0x3B3 JUMPI PUSH1 0x0 DUP1 REVERT JUMPDEST SWAP1 PUSH1 0x0 MSTORE PUSH1 0x20 PUSH1 0x0 KECCAK256 ADD PUSH1 0x0 SWAP2 POP SLOAD SWAP1 PUSH2 0x100 EXP SWAP1 DIV PUSH20 0xFFFFFFFFFFFFFFFFFFFFFFFFFFFFFFFFFFFFFFFF AND DUP2 JUMP JUMPDEST PUSH2 0x3F6 PUSH8 0xC6B0C37E7F2FCF88 PUSH1 0xC0 SHL PUSH2 0x3A0 JUMP JUMPDEST PUSH2 0x40A PUSH8 0x7D2247673929FE96 PUSH1 0xC0 SHL PUSH2 0x3A0 JUMP JUMPDEST PUSH2 0x41E PUSH8 0xCE8969155C4C0871 PUSH1 0xC0 SHL PUSH2 0x3A0 JUMP JUMPDEST PUSH2 0x432 PUSH8 0x7547571930D53BE4 PUSH1 0xC0 SHL PUSH2 0x3A0 JUMP JUMPDEST PUSH2 0x446 PUSH8 0x17ED5E91BA98B1B0 PUSH1 0xC0 SHL PUSH2 0x3A0 JUMP JUMPDEST PUSH1 0x1 ISZERO ISZERO PUSH1 0x1 PUSH1 0x0 CALLER PUSH20 0xFFFFFFFFFFFFFFFFFFFFFFFFFFFFFFFFFFFFFFFF AND PUSH20 0xFFFFFFFFFFFFFFFFFFFFFFFFFFFFFFFFFFFFFFFF AND DUP2 MSTORE PUSH1 0x20 ADD SWAP1 DUP2 MSTORE PUSH1 0x20 ADD PUSH1 0x0 KECCAK256 PUSH1 0x0 SWAP1 SLOAD SWAP1 PUSH2 0x100 EXP SWAP1 DIV PUSH1 0xFF AND ISZERO ISZERO EQ PUSH2 0x4D9 JUMPI PUSH1 0x40 MLOAD PUSH32 0x8C379A000000000000000000000000000000000000000000000000000000000 DUP2 MSTORE PUSH1 0x4 ADD PUSH2 0x4D0 SWAP1 PUSH2 0x1B32 JUMP JUMPDEST PUSH1 0x40 MLOAD DUP1 SWAP2 SUB SWAP1 REVERT JUMPDEST PUSH2 0x4ED PUSH8 0xEB1FFB9FB9D64F95 PUSH1 0xC0 SHL PUSH2 0x3A0 JUMP JUMPDEST PUSH2 0x501 PUSH8 0xA1B3B05510F42AB4 PUSH1 0xC0 SHL PUSH2 0x3A0 JUMP JUMPDEST PUSH2 0x514 PUSH7 0x8044BE119D3C39 PUSH1 0xC0 SHL PUSH2 0x3A0 JUMP JUMPDEST PUSH2 0x528 PUSH8 0x8B5386A65481E362 PUSH1 0xC0 SHL PUSH2 0x3A0 JUMP JUMPDEST DUP1 PUSH2 0x53D PUSH8 0x9DC26228891FB105 PUSH1 0xC0 SHL PUSH2 0x3A0 JUMP JUMPDEST PUSH2 0x551 PUSH8 0x720430045E880299 PUSH1 0xC0 SHL PUSH2 0x3A0 JUMP JUMPDEST PUSH2 0x565 PUSH8 0x1431D3AAE02436D8 PUSH1 0xC0 SHL PUSH2 0x3A0 JUMP JUMPDEST PUSH1 0x3 DUP1 SLOAD SWAP1 POP DUP2 LT PUSH2 0x5D6 JUMPI PUSH2 0x585 PUSH8 0x75CE65A8CDA84754 PUSH1 0xC0 SHL PUSH2 0x3A0 JUMP JUMPDEST PUSH2 0x599 PUSH8 0x19315068DB02C9C8 PUSH1 0xC0 SHL PUSH2 0x3A0 JUMP JUMPDEST DUP1 PUSH1 0x40 MLOAD PUSH32 0xCFCD3B3200000000000000000000000000000000000000000000000000000000 DUP2 MSTORE PUSH1 0x4 ADD PUSH2 0x5CD SWAP2 SWAP1 PUSH2 0x196F JUMP JUMPDEST PUSH1 0x40 MLOAD DUP1 SWAP2 SUB SWAP1 REVERT JUMPDEST PUSH2 0x5EA PUSH8 0x9F2C9CC2E721B41 PUSH1 0xC0 SHL PUSH2 0x3A0 JUMP JUMPDEST PUSH2 0x5FE PUSH8 0xF193D53272E0E636 PUSH1 0xC0 SHL PUSH2 0x3A0 JUMP JUMPDEST PUSH2 0x612 PUSH8 0xB61F24B317E00770 PUSH1 0xC0 SHL PUSH2 0x3A0 JUMP JUMPDEST PUSH2 0x626 PUSH8 0x89040D3B58CEA1B9 PUSH1 0xC0 SHL PUSH2 0x3A0 JUMP JUMPDEST DUP2 PUSH2 0x63B PUSH8 0x8F22E625DC1CA2FB PUSH1 0xC0 SHL PUSH2 0x3A0 JUMP JUMPDEST PUSH2 0x64F PUSH8 0xF5B3A09FEEE5C376 PUSH1 0xC0 SHL PUSH2 0x3A0 JUMP JUMPDEST PUSH2 0x663 PUSH8 0x9AF7B94A2D1FA3A9 PUSH1 0xC0 SHL PUSH2 0x3A0 JUMP JUMPDEST PUSH1 0x2 PUSH1 0x0 DUP3 DUP2 MSTORE PUSH1 0x20 ADD SWAP1 DUP2 MSTORE PUSH1 0x20 ADD PUSH1 0x0 KECCAK256 PUSH1 0x0 CALLER PUSH20 0xFFFFFFFFFFFFFFFFFFFFFFFFFFFFFFFFFFFFFFFF AND PUSH20 0xFFFFFFFFFFFFFFFFFFFFFFFFFFFFFFFFFFFFFFFF AND DUP2 MSTORE PUSH1 0x20 ADD SWAP1 DUP2 MSTORE PUSH1 0x20 ADD PUSH1 0x0 KECCAK256 PUSH1 0x0 SWAP1 SLOAD SWAP1 PUSH2 0x100 EXP SWAP1 DIV PUSH1 0xFF AND ISZERO PUSH2 0x72B JUMPI PUSH2 0x6DA PUSH8 0x89C40505EC4AA275 PUSH1 0xC0 SHL PUSH2 0x3A0 JUMP JUMPDEST PUSH2 0x6EE PUSH8 0x273FFDC4931358DC PUSH1 0xC0 SHL PUSH2 0x3A0 JUMP JUMPDEST DUP1 PUSH1 0x40 MLOAD PUSH32 0x6B771E4A00000000000000000000000000000000000000000000000000000000 DUP2 MSTORE PUSH1 0x4 ADD PUSH2 0x722 SWAP2 SWAP1 PUSH2 0x196F JUMP JUMPDEST PUSH1 0x40 MLOAD DUP1 SWAP2 SUB SWAP1 REVERT JUMPDEST PUSH2 0x73F PUSH8 0x759299B6559043E6 PUSH1 0xC0 SHL PUSH2 0x3A0 JUMP JUMPDEST PUSH2 0x753 PUSH8 0x93C54A18C55F9F0C PUSH1 0xC0 SHL PUSH2 0x3A0 JUMP JUMPDEST PUSH2 0x767 PUSH8 0x5951F49DF5B7110E PUSH1 0xC0 SHL PUSH2 0x3A0 JUMP JUMPDEST PUSH2 0x77B PUSH8 0x32F07A969FA42044 PUSH1 0xC0 SHL PUSH2 0x3A0 JUMP JUMPDEST DUP3 PUSH2 0x790 PUSH8 0xE6792A28689A2B3C PUSH1 0xC0 SHL PUSH2 0x3A0 JUMP JUMPDEST PUSH2 0x7A4 PUSH8 0x24FB0C5E1C263F42 PUSH1 0xC0 SHL PUSH2 0x3A0 JUMP JUMPDEST PUSH2 0x7B8 PUSH8 0x4A33164225922154 PUSH1 0xC0 SHL PUSH2 0x3A0 JUMP JUMPDEST PUSH1 0x3 DUP2 DUP2 SLOAD DUP2 LT PUSH2 0x7CC JUMPI PUSH2 0x7CB PUSH2 0x1B52 JUMP JUMPDEST JUMPDEST SWAP1 PUSH1 0x0 MSTORE PUSH1 0x20 PUSH1 0x0 KECCAK256 SWAP1 PUSH1 0x4 MUL ADD PUSH1 0x3 ADD PUSH1 0x0 SWAP1 SLOAD SWAP1 PUSH2 0x100 EXP SWAP1 DIV PUSH1 0xFF AND ISZERO PUSH2 0x855 JUMPI PUSH2 0x804 PUSH8 0x1CD09CE961156097 PUSH1 0xC0 SHL PUSH2 0x3A0 JUMP JUMPDEST PUSH2 0x818 PUSH8 0xA8B33037CFB8F882 PUSH1 0xC0 SHL PUSH2 0x3A0 JUMP JUMPDEST DUP1 PUSH1 0x40 MLOAD PUSH32 0x1B344EE700000000000000000000000000000000000000000000000000000000 DUP2 MSTORE PUSH1 0x4 ADD PUSH2 0x84C SWAP2 SWAP1 PUSH2 0x196F JUMP JUMPDEST PUSH1 0x40 MLOAD DUP1 SWAP2 SUB SWAP1 REVERT JUMPDEST PUSH2 0x869 PUSH8 0x99F0DC1AAB79328E PUSH1 0xC0 SHL PUSH2 0x3A0 JUMP JUMPDEST PUSH2 0x87D PUSH8 0x8EEE2854D646A7F PUSH1 0xC0 SHL PUSH2 0x3A0 JUMP JUMPDEST PUSH2 0x891 PUSH8 0x41C1C36B83B977B7 PUSH1 0xC0 SHL PUSH2 0x3A0 JUMP JUMPDEST PUSH2 0x8A5 PUSH8 0x778DCE6CE0B6591B PUSH1 0xC0 SHL PUSH2 0x3A0 JUMP JUMPDEST PUSH2 0x8B9 PUSH8 0xD3AB07BC4045F216 PUSH1 0xC0 SHL PUSH2 0x3A0 JUMP JUMPDEST PUSH1 0x1 PUSH1 0x2 PUSH1 0x0 DUP7 DUP2 MSTORE PUSH1 0x20 ADD SWAP1 DUP2 MSTORE PUSH1 0x20 ADD PUSH1 0x0 KECCAK256 PUSH1 0x0 CALLER PUSH20 0xFFFFFFFFFFFFFFFFFFFFFFFFFFFFFFFFFFFFFFFF AND PUSH20 0xFFFFFFFFFFFFFFFFFFFFFFFFFFFFFFFFFFFFFFFF AND DUP2 MSTORE PUSH1 0x20 ADD SWAP1 DUP2 MSTORE PUSH1 0x20 ADD PUSH1 0x0 KECCAK256 PUSH1 0x0 PUSH2 0x100 EXP DUP2 SLOAD DUP2 PUSH1 0xFF MUL NOT AND SWAP1 DUP4 ISZERO ISZERO MUL OR SWAP1 SSTORE POP PUSH2 0x936 PUSH8 0x8BF764929111DC7D PUSH1 0xC0 SHL PUSH2 0x3A0 JUMP JUMPDEST PUSH2 0x94A PUSH8 0xFC62074512B8EBB4 PUSH1 0xC0 SHL PUSH2 0x3A0 JUMP JUMPDEST PUSH1 0x0 PUSH1 0x3 DUP6 DUP2 SLOAD DUP2 LT PUSH2 0x960 JUMPI PUSH2 0x95F PUSH2 0x1B52 JUMP JUMPDEST JUMPDEST SWAP1 PUSH1 0x0 MSTORE PUSH1 0x20 PUSH1 0x0 KECCAK256 SWAP1 PUSH1 0x4 MUL ADD SWAP1 POP PUSH2 0x984 PUSH8 0x709B889EE35D606E PUSH1 0xC0 SHL PUSH2 0x3A0 JUMP JUMPDEST PUSH1 0x1 DUP2 PUSH1 0x2 ADD PUSH1 0x0 DUP3 DUP3 SLOAD PUSH2 0x999 SWAP2 SWAP1 PUSH2 0x1BB0 JUMP JUMPDEST SWAP3 POP POP DUP2 SWAP1 SSTORE POP PUSH2 0x9B4 PUSH8 0x8BD8217CE53CBAC0 PUSH1 0xC0 SHL PUSH2 0x3A0 JUMP JUMPDEST PUSH2 0x9C8 PUSH8 0xFDB5AD2891915E9C PUSH1 0xC0 SHL PUSH2 0x3A0 JUMP JUMPDEST PUSH32 0x0 DUP2 PUSH1 0x2 ADD SLOAD LT PUSH2 0xBF6 JUMPI PUSH2 0xA07 PUSH8 0x60474023EE365FF5 PUSH1 0xC0 SHL PUSH2 0x3A0 JUMP JUMPDEST PUSH2 0xA1B PUSH8 0x7F7993A7D58056D6 PUSH1 0xC0 SHL PUSH2 0x3A0 JUMP JUMPDEST PUSH1 0x1 DUP2 PUSH1 0x3 ADD PUSH1 0x0 PUSH2 0x100 EXP DUP2 SLOAD DUP2 PUSH1 0xFF MUL NOT AND SWAP1 DUP4 ISZERO ISZERO MUL OR SWAP1 SSTORE POP PUSH2 0xA4C PUSH8 0xE72C1CF26B8A6172 PUSH1 0xC0 SHL PUSH2 0x3A0 JUMP JUMPDEST PUSH2 0xA60 PUSH8 0xD09A9AC66074E8FB PUSH1 0xC0 SHL PUSH2 0x3A0 JUMP JUMPDEST PUSH1 0x0 DUP2 PUSH1 0x0 ADD PUSH1 0x0 SWAP1 SLOAD SWAP1 PUSH2 0x100 EXP SWAP1 DIV PUSH20 0xFFFFFFFFFFFFFFFFFFFFFFFFFFFFFFFFFFFFFFFF AND PUSH20 0xFFFFFFFFFFFFFFFFFFFFFFFFFFFFFFFFFFFFFFFF AND DUP3 PUSH1 0x1 ADD SLOAD PUSH1 0x40 MLOAD PUSH2 0xAAE SWAP1 PUSH2 0x1C15 JUMP JUMPDEST PUSH1 0x0 PUSH1 0x40 MLOAD DUP1 DUP4 SUB DUP2 DUP6 DUP8 GAS CALL SWAP3 POP POP POP RETURNDATASIZE DUP1 PUSH1 0x0 DUP2 EQ PUSH2 0xAEB JUMPI PUSH1 0x40 MLOAD SWAP2 POP PUSH1 0x1F NOT PUSH1 0x3F RETURNDATASIZE ADD AND DUP3 ADD PUSH1 0x40 MSTORE RETURNDATASIZE DUP3 MSTORE RETURNDATASIZE PUSH1 0x0 PUSH1 0x20 DUP5 ADD RETURNDATACOPY PUSH2 0xAF0 JUMP JUMPDEST PUSH1 0x60 SWAP2 POP JUMPDEST POP POP SWAP1 POP PUSH2 0xB08 PUSH8 0x97CE254BA0285801 PUSH1 0xC0 SHL PUSH2 0x3A0 JUMP JUMPDEST PUSH2 0xB1C PUSH8 0xC6C74AB7CD52ACD8 PUSH1 0xC0 SHL PUSH2 0x3A0 JUMP JUMPDEST PUSH2 0xB30 PUSH8 0xCD8D1834C9944FFF PUSH1 0xC0 SHL PUSH2 0x3A0 JUMP JUMPDEST DUP1 PUSH2 0xB70 JUMPI PUSH1 0x40 MLOAD PUSH32 0x8C379A000000000000000000000000000000000000000000000000000000000 DUP2 MSTORE PUSH1 0x4 ADD PUSH2 0xB67 SWAP1 PUSH2 0x1C76 JUMP JUMPDEST PUSH1 0x40 MLOAD DUP1 SWAP2 SUB SWAP1 REVERT JUMPDEST PUSH2 0xB84 PUSH8 0xC0EF0AA01B536280 PUSH1 0xC0 SHL PUSH2 0x3A0 JUMP JUMPDEST PUSH2 0xB98 PUSH8 0x5F298AA271CD10FA PUSH1 0xC0 SHL PUSH2 0x3A0 JUMP JUMPDEST PUSH2 0xBAC PUSH8 0x425E3458B838BFD2 PUSH1 0xC0 SHL PUSH2 0x3A0 JUMP JUMPDEST DUP6 CALLER PUSH20 0xFFFFFFFFFFFFFFFFFFFFFFFFFFFFFFFFFFFFFFFF AND PUSH32 0xE6266574C540A6EACE832E59BC4FA1D3C8A6C570042F03F6EB69C252CB713955 PUSH1 0x40 MLOAD PUSH1 0x40 MLOAD DUP1 SWAP2 SUB SWAP1 LOG3 POP PUSH2 0xC0B JUMP JUMPDEST PUSH2 0xC0A PUSH8 0x9526F48DEFDA0C85 PUSH1 0xC0 SHL PUSH2 0x3A0 JUMP JUMPDEST JUMPDEST POP POP POP POP POP JUMP JUMPDEST PUSH1 0x1 PUSH1 0x20 MSTORE DUP1 PUSH1 0x0 MSTORE PUSH1 0x40 PUSH1 0x0 KECCAK256 PUSH1 0x0 SWAP2 POP SLOAD SWAP1 PUSH2 0x100 EXP SWAP1 DIV PUSH1 0xFF AND DUP2 JUMP JUMPDEST PUSH2 0xC46 PUSH8 0x111BB068072AF3F0 PUSH1 0xC0 SHL PUSH2 0x3A0 JUMP JUMPDEST PUSH2 0xC5A PUSH8 0x7D2247673929FE96 PUSH1 0xC0 SHL PUSH2 0x3A0 JUMP JUMPDEST PUSH2 0xC6E PUSH8 0xCE8969155C4C0871 PUSH1 0xC0 SHL PUSH2 0x3A0 JUMP JUMPDEST PUSH2 0xC82 PUSH8 0x7547571930D53BE4 PUSH1 0xC0 SHL PUSH2 0x3A0 JUMP JUMPDEST PUSH2 0xC96 PUSH8 0x17ED5E91BA98B1B0 PUSH1 0xC0 SHL PUSH2 0x3A0 JUMP JUMPDEST PUSH1 0x1 ISZERO ISZERO PUSH1 0x1 PUSH1 0x0 CALLER PUSH20 0xFFFFFFFFFFFFFFFFFFFFFFFFFFFFFFFFFFFFFFFF AND PUSH20 0xFFFFFFFFFFFFFFFFFFFFFFFFFFFFFFFFFFFFFFFF AND DUP2 MSTORE PUSH1 0x20 ADD SWAP1 DUP2 MSTORE PUSH1 0x20 ADD PUSH1 0x0 KECCAK256 PUSH1 0x0 SWAP1 SLOAD SWAP1 PUSH2 0x100 EXP SWAP1 DIV PUSH1 0xFF AND ISZERO ISZERO EQ PUSH2 0xD29 JUMPI PUSH1 0x40 MLOAD PUSH32 0x8C379A000000000000000000000000000000000000000000000000000000000 DUP2 MSTORE PUSH1 0x4 ADD PUSH2 0xD20 SWAP1 PUSH2 0x1B32 JUMP JUMPDEST PUSH1 0x40 MLOAD DUP1 SWAP2 SUB SWAP1 REVERT JUMPDEST PUSH2 0xD3D PUSH8 0xEB1FFB9FB9D64F95 PUSH1 0xC0 SHL PUSH2 0x3A0 JUMP JUMPDEST PUSH2 0xD51 PUSH8 0xA1B3B05510F42AB4 PUSH1 0xC0 SHL PUSH2 0x3A0 JUMP JUMPDEST PUSH2 0xD65 PUSH8 0xFBBE4A7C13E3BEF0 PUSH1 0xC0 SHL PUSH2 0x3A0 JUMP JUMPDEST PUSH2 0xD79 PUSH8 0xBA0C5DE7D04434F5 PUSH1 0xC0 SHL PUSH2 0x3A0 JUMP JUMPDEST PUSH2 0xD8D PUSH8 0x58892319041E5857 PUSH1 0xC0 SHL PUSH2 0x3A0 JUMP JUMPDEST PUSH2 0xDA1 PUSH8 0x691440A331A105D3 PUSH1 0xC0 SHL PUSH2 0x3A0 JUMP JUMPDEST PUSH1 0x0 PUSH1 0x40 MLOAD DUP1 PUSH1 0x80 ADD PUSH1 0x40 MSTORE DUP1 DUP5 PUSH20 0xFFFFFFFFFFFFFFFFFFFFFFFFFFFFFFFFFFFFFFFF AND DUP2 MSTORE PUSH1 0x20 ADD DUP4 DUP2 MSTORE PUSH1 0x20 ADD PUSH1 0x0 DUP2 MSTORE PUSH1 0x20 ADD PUSH1 0x0 ISZERO ISZERO DUP2 MSTORE POP SWAP1 POP PUSH2 0xDF4 PUSH8 0x2DEBEE46E3BE1D22 PUSH1 0xC0 SHL PUSH2 0x3A0 JUMP JUMPDEST PUSH2 0xE08 PUSH8 0x89138A722B221DB4 PUSH1 0xC0 SHL PUSH2 0x3A0 JUMP JUMPDEST PUSH1 0x0 PUSH1 0x3 DUP1 SLOAD SWAP1 POP SWAP1 POP PUSH2 0xE26 PUSH8 0xD94955C84FF9831A PUSH1 0xC0 SHL PUSH2 0x3A0 JUMP JUMPDEST PUSH2 0xE3A PUSH8 0x2B20992C092B10AC PUSH1 0xC0 SHL PUSH2 0x3A0 JUMP JUMPDEST PUSH1 0x3 DUP3 SWAP1 DUP1 PUSH1 0x1 DUP2 SLOAD ADD DUP1 DUP3 SSTORE DUP1 SWAP2 POP POP PUSH1 0x1 SWAP1 SUB SWAP1 PUSH1 0x0 MSTORE PUSH1 0x20 PUSH1 0x0 KECCAK256 SWAP1 PUSH1 0x4 MUL ADD PUSH1 0x0 SWAP1 SWAP2 SWAP1 SWAP2 SWAP1 SWAP2 POP PUSH1 0x0 DUP3 ADD MLOAD DUP2 PUSH1 0x0 ADD PUSH1 0x0 PUSH2 0x100 EXP DUP2 SLOAD DUP2 PUSH20 0xFFFFFFFFFFFFFFFFFFFFFFFFFFFFFFFFFFFFFFFF MUL NOT AND SWAP1 DUP4 PUSH20 0xFFFFFFFFFFFFFFFFFFFFFFFFFFFFFFFFFFFFFFFF AND MUL OR SWAP1 SSTORE POP PUSH1 0x20 DUP3 ADD MLOAD DUP2 PUSH1 0x1 ADD SSTORE PUSH1 0x40 DUP3 ADD MLOAD DUP2 PUSH1 0x2 ADD SSTORE PUSH1 0x60 DUP3 ADD MLOAD DUP2 PUSH1 0x3 ADD PUSH1 0x0 PUSH2 0x100 EXP DUP2 SLOAD DUP2 PUSH1 0xFF MUL NOT AND SWAP1 DUP4 ISZERO ISZERO MUL OR SWAP1 SSTORE POP POP POP PUSH2 0xEF7 PUSH8 0x24DF23E7ECA3AF0A PUSH1 0xC0 SHL PUSH2 0x3A0 JUMP JUMPDEST PUSH2 0xF0B PUSH8 0x11152F9390F4B53C PUSH1 0xC0 SHL PUSH2 0x3A0 JUMP JUMPDEST DUP4 PUSH20 0xFFFFFFFFFFFFFFFFFFFFFFFFFFFFFFFFFFFFFFFF AND DUP2 CALLER PUSH20 0xFFFFFFFFFFFFFFFFFFFFFFFFFFFFFFFFFFFFFFFF AND PUSH32 0x101A85D062D4F96045D6889441DD96DDA5E818771DF426A14E74D54B0EE9E1CE DUP7 PUSH1 0x40 MLOAD PUSH2 0xF69 SWAP2 SWAP1 PUSH2 0x196F JUMP JUMPDEST PUSH1 0x40 MLOAD DUP1 SWAP2 SUB SWAP1 LOG4 POP POP POP POP JUMP JUMPDEST PUSH1 0x60 PUSH2 0xF8D PUSH8 0x3AF2B05AA8AEDB7F PUSH1 0xC0 SHL PUSH2 0x3A0 JUMP JUMPDEST PUSH2 0xFA1 PUSH8 0xC4B5A91F95D24DF2 PUSH1 0xC0 SHL PUSH2 0x3A0 JUMP JUMPDEST PUSH2 0xFB5 PUSH8 0x3B02F711F5ADF38E PUSH1 0xC0 SHL PUSH2 0x3A0 JUMP JUMPDEST PUSH1 0x3 DUP1 SLOAD DUP1 PUSH1 0x20 MUL PUSH1 0x20 ADD PUSH1 0x40 MLOAD SWAP1 DUP2 ADD PUSH1 0x40 MSTORE DUP1 SWAP3 SWAP2 SWAP1 DUP2 DUP2 MSTORE PUSH1 0x20 ADD PUSH1 0x0 SWAP1 JUMPDEST DUP3 DUP3 LT ISZERO PUSH2 0x108E JUMPI DUP4 DUP3 SWAP1 PUSH1 0x0 MSTORE PUSH1 0x20 PUSH1 0x0 KECCAK256 SWAP1 PUSH1 0x4 MUL ADD PUSH1 0x40 MLOAD DUP1 PUSH1 0x80 ADD PUSH1 0x40 MSTORE SWAP1 DUP2 PUSH1 0x0 DUP3 ADD PUSH1 0x0 SWAP1 SLOAD SWAP1 PUSH2 0x100 EXP SWAP1 DIV PUSH20 0xFFFFFFFFFFFFFFFFFFFFFFFFFFFFFFFFFFFFFFFF AND PUSH20 0xFFFFFFFFFFFFFFFFFFFFFFFFFFFFFFFFFFFFFFFF AND PUSH20 0xFFFFFFFFFFFFFFFFFFFFFFFFFFFFFFFFFFFFFFFF AND DUP2 MSTORE PUSH1 0x20 ADD PUSH1 0x1 DUP3 ADD SLOAD DUP2 MSTORE PUSH1 0x20 ADD PUSH1 0x2 DUP3 ADD SLOAD DUP2 MSTORE PUSH1 0x20 ADD PUSH1 0x3 DUP3 ADD PUSH1 0x0 SWAP1 SLOAD SWAP1 PUSH2 0x100 EXP SWAP1 DIV PUSH1 0xFF AND ISZERO ISZERO ISZERO ISZERO DUP2 MSTORE POP POP DUP2 MSTORE PUSH1 0x20 ADD SWAP1 PUSH1 0x1 ADD SWAP1 PUSH2 0xFD7 JUMP JUMPDEST POP POP POP POP SWAP1 POP SWAP1 JUMP JUMPDEST PUSH1 0x2 PUSH1 0x20 MSTORE DUP2 PUSH1 0x0 MSTORE PUSH1 0x40 PUSH1 0x0 KECCAK256 PUSH1 0x20 MSTORE DUP1 PUSH1 0x0 MSTORE PUSH1 0x40 PUSH1 0x0 KECCAK256 PUSH1 0x0 SWAP2 POP SWAP2 POP SWAP1 SLOAD SWAP1 PUSH2 0x100 EXP SWAP1 DIV PUSH1 0xFF AND DUP2 JUMP JUMPDEST PUSH1 0x3 DUP2 DUP2 SLOAD DUP2 LT PUSH2 0x10D6 JUMPI PUSH1 0x0 DUP1 REVERT JUMPDEST SWAP1 PUSH1 0x0 MSTORE PUSH1 0x20 PUSH1 0x0 KECCAK256 SWAP1 PUSH1 0x4 MUL ADD PUSH1 0x0 SWAP2 POP SWAP1 POP DUP1 PUSH1 0x0 ADD PUSH1 0x0 SWAP1 SLOAD SWAP1 PUSH2 0x100 EXP SWAP1 DIV PUSH20 0xFFFFFFFFFFFFFFFFFFFFFFFFFFFFFFFFFFFFFFFF AND SWAP1 DUP1 PUSH1 0x1 ADD SLOAD SWAP1 DUP1 PUSH1 0x2 ADD SLOAD SWAP1 DUP1 PUSH1 0x3 ADD PUSH1 0x0 SWAP1 SLOAD SWAP1 PUSH2 0x100 EXP SWAP1 DIV PUSH1 0xFF AND SWAP1 POP DUP5 JUMP JUMPDEST PUSH1 0x0 PUSH2 0x1149 PUSH8 0x7D361815F9D2B643 PUSH1 0xC0 SHL PUSH2 0x3A0 JUMP JUMPDEST PUSH2 0x115D PUSH8 0xD888B274CB304F0B PUSH1 0xC0 SHL PUSH2 0x3A0 JUMP JUMPDEST PUSH2 0x1171 PUSH8 0x6940FDCFC6A18BE2 PUSH1 0xC0 SHL PUSH2 0x3A0 JUMP JUMPDEST PUSH1 0x3 DUP1 SLOAD SWAP1 POP SWAP1 POP SWAP1 JUMP JUMPDEST PUSH1 0x0 PUSH2 0x1192 PUSH8 0x46CFCEC8799D054C PUSH1 0xC0 SHL PUSH2 0x3A0 JUMP JUMPDEST PUSH2 0x11A6 PUSH8 0x1759216998CDAB3F PUSH1 0xC0 SHL PUSH2 0x3A0 JUMP JUMPDEST PUSH2 0x11BA PUSH8 0x51088E030D9733B4 PUSH1 0xC0 SHL PUSH2 0x3A0 JUMP JUMPDEST SELFBALANCE SWAP1 POP SWAP1 JUMP JUMPDEST PUSH32 0x0 DUP2 JUMP JUMPDEST PUSH1 0x60 PUSH2 0x11FA PUSH8 0xDA52E8A71FA776CE PUSH1 0xC0 SHL PUSH2 0x3A0 JUMP JUMPDEST PUSH2 0x120E PUSH8 0xE2E4007BEC18EA2E PUSH1 0xC0 SHL PUSH2 0x3A0 JUMP JUMPDEST PUSH2 0x1222 PUSH8 0xEA1A2AFF73C6095E PUSH1 0xC0 SHL PUSH2 0x3A0 JUMP JUMPDEST PUSH1 0x0 DUP1 SLOAD DUP1 PUSH1 0x20 MUL PUSH1 0x20 ADD PUSH1 0x40 MLOAD SWAP1 DUP2 ADD PUSH1 0x40 MSTORE DUP1 SWAP3 SWAP2 SWAP1 DUP2 DUP2 MSTORE PUSH1 0x20 ADD DUP3 DUP1 SLOAD DUP1 ISZERO PUSH2 0x12A4 JUMPI PUSH1 0x20 MUL DUP3 ADD SWAP2 SWAP1 PUSH1 0x0 MSTORE PUSH1 0x20 PUSH1 0x0 KECCAK256 SWAP1 JUMPDEST DUP2 PUSH1 0x0 SWAP1 SLOAD SWAP1 PUSH2 0x100 EXP SWAP1 DIV PUSH20 0xFFFFFFFFFFFFFFFFFFFFFFFFFFFFFFFFFFFFFFFF AND PUSH20 0xFFFFFFFFFFFFFFFFFFFFFFFFFFFFFFFFFFFFFFFF AND DUP2 MSTORE PUSH1 0x20 ADD SWAP1 PUSH1 0x1 ADD SWAP1 DUP1 DUP4 GT PUSH2 0x125A JUMPI JUMPDEST POP POP POP POP POP SWAP1 POP SWAP1 JUMP JUMPDEST PUSH1 0x0 DUP1 PUSH1 0x0 DUP1 PUSH2 0x12C8 PUSH8 0x4DA793E8C23A84F0 PUSH1 0xC0 SHL PUSH2 0x3A0 JUMP JUMPDEST DUP5 PUSH2 0x12DD PUSH8 0x9DC26228891FB105 PUSH1 0xC0 SHL PUSH2 0x3A0 JUMP JUMPDEST PUSH2 0x12F1 PUSH8 0x720430045E880299 PUSH1 0xC0 SHL PUSH2 0x3A0 JUMP JUMPDEST PUSH2 0x1305 PUSH8 0x1431D3AAE02436D8 PUSH1 0xC0 SHL PUSH2 0x3A0 JUMP JUMPDEST PUSH1 0x3 DUP1 SLOAD SWAP1 POP DUP2 LT PUSH2 0x1376 JUMPI PUSH2 0x1325 PUSH8 0x75CE65A8CDA84754 PUSH1 0xC0 SHL PUSH2 0x3A0 JUMP JUMPDEST PUSH2 0x1339 PUSH8 0x19315068DB02C9C8 PUSH1 0xC0 SHL PUSH2 0x3A0 JUMP JUMPDEST DUP1 PUSH1 0x40 MLOAD PUSH32 0xCFCD3B3200000000000000000000000000000000000000000000000000000000 DUP2 MSTORE PUSH1 0x4 ADD PUSH2 0x136D SWAP2 SWAP1 PUSH2 0x196F JUMP JUMPDEST PUSH1 0x40 MLOAD DUP1 SWAP2 SUB SWAP1 REVERT JUMPDEST PUSH2 0x138A PUSH8 0x9F2C9CC2E721B41 PUSH1 0xC0 SHL PUSH2 0x3A0 JUMP JUMPDEST PUSH2 0x139E PUSH8 0xF193D53272E0E636 PUSH1 0xC0 SHL PUSH2 0x3A0 JUMP JUMPDEST PUSH2 0x13B2 PUSH8 0xF4CDC5D720A5B08F PUSH1 0xC0 SHL PUSH2 0x3A0 JUMP JUMPDEST PUSH2 0x13C6 PUSH8 0x5F237427DFA0D552 PUSH1 0xC0 SHL PUSH2 0x3A0 JUMP JUMPDEST PUSH2 0x13DA PUSH8 0x80D69DCD31AF7F0D PUSH1 0xC0 SHL PUSH2 0x3A0 JUMP JUMPDEST PUSH2 0x13EE PUSH8 0x1E8AB7496EF1D512 PUSH1 0xC0 SHL PUSH2 0x3A0 JUMP JUMPDEST PUSH1 0x0 PUSH1 0x3 DUP8 DUP2 SLOAD DUP2 LT PUSH2 0x1404 JUMPI PUSH2 0x1403 PUSH2 0x1B52 JUMP JUMPDEST JUMPDEST SWAP1 PUSH1 0x0 MSTORE PUSH1 0x20 PUSH1 0x0 KECCAK256 SWAP1 PUSH1 0x4 MUL ADD PUSH1 0x40 MLOAD DUP1 PUSH1 0x80 ADD PUSH1 0x40 MSTORE SWAP1 DUP2 PUSH1 0x0 DUP3 ADD PUSH1 0x0 SWAP1 SLOAD SWAP1 PUSH2 0x100 EXP SWAP1 DIV PUSH20 0xFFFFFFFFFFFFFFFFFFFFFFFFFFFFFFFFFFFFFFFF AND PUSH20 0xFFFFFFFFFFFFFFFFFFFFFFFFFFFFFFFFFFFFFFFF AND PUSH20 0xFFFFFFFFFFFFFFFFFFFFFFFFFFFFFFFFFFFFFFFF AND DUP2 MSTORE PUSH1 0x20 ADD PUSH1 0x1 DUP3 ADD SLOAD DUP2 MSTORE PUSH1 0x20 ADD PUSH1 0x2 DUP3 ADD SLOAD DUP2 MSTORE PUSH1 0x20 ADD PUSH1 0x3 DUP3 ADD PUSH1 0x0 SWAP1 SLOAD SWAP1 PUSH2 0x100 EXP SWAP1 DIV PUSH1 0xFF AND ISZERO ISZERO ISZERO ISZERO DUP2 MSTORE POP POP SWAP1 POP PUSH2 0x14B8 PUSH8 0xFE69A2C192E2C70F PUSH1 0xC0 SHL PUSH2 0x3A0 JUMP JUMPDEST PUSH2 0x14CC PUSH8 0x12557A5B360DF5D4 PUSH1 0xC0 SHL PUSH2 0x3A0 JUMP JUMPDEST DUP1 PUSH1 0x0 ADD MLOAD DUP2 PUSH1 0x20 ADD MLOAD DUP3 PUSH1 0x40 ADD MLOAD DUP4 PUSH1 0x60 ADD MLOAD SWAP6 POP SWAP6 POP SWAP6 POP SWAP6 POP POP POP SWAP2 SWAP4 POP SWAP2 SWAP4 JUMP JUMPDEST PUSH2 0x1505 PUSH8 0xE2958DE8621DA7CF PUSH1 0xC0 SHL PUSH2 0x3A0 JUMP JUMPDEST PUSH2 0x1519 PUSH8 0x8E37AE7586CFE302 PUSH1 0xC0 SHL PUSH2 0x3A0 JUMP JUMPDEST PUSH2 0x152D PUSH8 0x590EAAB18DE84095 PUSH1 0xC0 SHL PUSH2 0x3A0 JUMP JUMPDEST CALLER PUSH20 0xFFFFFFFFFFFFFFFFFFFFFFFFFFFFFFFFFFFFFFFF AND PUSH32 0x90890809C654F11D6E72A28FA60149770A0D11EC6C92319D6CEB2BB0A4EA1A15 CALLVALUE SELFBALANCE PUSH1 0x40 MLOAD PUSH2 0x1575 SWAP3 SWAP2 SWAP1 PUSH2 0x1598 JUMP JUMPDEST PUSH1 0x40 MLOAD DUP1 SWAP2 SUB SWAP1 LOG2 JUMP JUMPDEST PUSH1 0x0 DUP2 SWAP1 POP SWAP2 SWAP1 POP JUMP JUMPDEST PUSH2 0x1592 DUP2 PUSH2 0x157F JUMP JUMPDEST DUP3 MSTORE POP POP JUMP JUMPDEST PUSH1 0x0 PUSH1 0x40 DUP3 ADD SWAP1 POP PUSH2 0x15AD PUSH1 0x0 DUP4 ADD DUP6 PUSH2 0x1589 JUMP JUMPDEST PUSH2 0x15BA PUSH1 0x20 DUP4 ADD DUP5 PUSH2 0x1589 JUMP JUMPDEST SWAP4 SWAP3 POP POP POP JUMP JUMPDEST PUSH1 0x0 DUP1 REVERT JUMPDEST PUSH2 0x15CF DUP2 PUSH2 0x157F JUMP JUMPDEST DUP2 EQ PUSH2 0x15DA JUMPI PUSH1 0x0 DUP1 REVERT JUMPDEST POP JUMP JUMPDEST PUSH1 0x0 DUP2 CALLDATALOAD SWAP1 POP PUSH2 0x15EC DUP2 PUSH2 0x15C6 JUMP JUMPDEST SWAP3 SWAP2 POP POP JUMP JUMPDEST PUSH1 0x0 PUSH1 0x20 DUP3 DUP5 SUB SLT ISZERO PUSH2 0x1608 JUMPI PUSH2 0x1607 PUSH2 0x15C1 JUMP JUMPDEST JUMPDEST PUSH1 0x0 PUSH2 0x1616 DUP5 DUP3 DUP6 ADD PUSH2 0x15DD JUMP JUMPDEST SWAP2 POP POP SWAP3 SWAP2 POP POP JUMP JUMPDEST PUSH1 0x0 PUSH20 0xFFFFFFFFFFFFFFFFFFFFFFFFFFFFFFFFFFFFFFFF DUP3 AND SWAP1 POP SWAP2 SWAP1 POP JUMP JUMPDEST PUSH1 0x0 PUSH2 0x164A DUP3 PUSH2 0x161F JUMP JUMPDEST SWAP1 POP SWAP2 SWAP1 POP JUMP JUMPDEST PUSH2 0x165A DUP2 PUSH2 0x163F JUMP JUMPDEST DUP3 MSTORE POP POP JUMP JUMPDEST PUSH1 0x0 PUSH1 0x20 DUP3 ADD SWAP1 POP PUSH2 0x1675 PUSH1 0x0 DUP4 ADD DUP5 PUSH2 0x1651 JUMP JUMPDEST SWAP3 SWAP2 POP POP JUMP JUMPDEST PUSH2 0x1684 DUP2 PUSH2 0x163F JUMP JUMPDEST DUP2 EQ PUSH2 0x168F JUMPI PUSH1 0x0 DUP1 REVERT JUMPDEST POP JUMP JUMPDEST PUSH1 0x0 DUP2 CALLDATALOAD SWAP1 POP PUSH2 0x16A1 DUP2 PUSH2 0x167B JUMP JUMPDEST SWAP3 SWAP2 POP POP JUMP JUMPDEST PUSH1 0x0 PUSH1 0x20 DUP3 DUP5 SUB SLT ISZERO PUSH2 0x16BD JUMPI PUSH2 0x16BC PUSH2 0x15C1 JUMP JUMPDEST JUMPDEST PUSH1 0x0 PUSH2 0x16CB DUP5 DUP3 DUP6 ADD PUSH2 0x1692 JUMP JUMPDEST SWAP2 POP POP SWAP3 SWAP2 POP POP JUMP JUMPDEST PUSH1 0x0 DUP2 ISZERO ISZERO SWAP1 POP SWAP2 SWAP1 POP JUMP JUMPDEST PUSH2 0x16E9 DUP2 PUSH2 0x16D4 JUMP JUMPDEST DUP3 MSTORE POP POP JUMP JUMPDEST PUSH1 0x0 PUSH1 0x20 DUP3 ADD SWAP1 POP PUSH2 0x1704 PUSH1 0x0 DUP4 ADD DUP5 PUSH2 0x16E0 JUMP JUMPDEST SWAP3 SWAP2 POP POP JUMP JUMPDEST PUSH1 0x0 PUSH2 0x1715 DUP3 PUSH2 0x161F JUMP JUMPDEST SWAP1 POP SWAP2 SWAP1 POP JUMP JUMPDEST PUSH2 0x1725 DUP2 PUSH2 0x170A JUMP JUMPDEST DUP2 EQ PUSH2 0x1730 JUMPI PUSH1 0x0 DUP1 REVERT JUMPDEST POP JUMP JUMPDEST PUSH1 0x0 DUP2 CALLDATALOAD SWAP1 POP PUSH2 0x1742 DUP2 PUSH2 0x171C JUMP JUMPDEST SWAP3 SWAP2 POP POP JUMP JUMPDEST PUSH1 0x0 DUP1 PUSH1 0x40 DUP4 DUP6 SUB SLT ISZERO PUSH2 0x175F JUMPI PUSH2 0x175E PUSH2 0x15C1 JUMP JUMPDEST JUMPDEST PUSH1 0x0 PUSH2 0x176D DUP6 DUP3 DUP7 ADD PUSH2 0x1733 JUMP JUMPDEST SWAP3 POP POP PUSH1 0x20 PUSH2 0x177E DUP6 DUP3 DUP7 ADD PUSH2 0x15DD JUMP JUMPDEST SWAP2 POP POP SWAP3 POP SWAP3 SWAP1 POP JUMP JUMPDEST PUSH1 0x0 DUP2 MLOAD SWAP1 POP SWAP2 SWAP1 POP JUMP JUMPDEST PUSH1 0x0 DUP3 DUP3 MSTORE PUSH1 0x20 DUP3 ADD SWAP1 POP SWAP3 SWAP2 POP POP JUMP JUMPDEST PUSH1 0x0 DUP2 SWAP1 POP PUSH1 0x20 DUP3 ADD SWAP1 POP SWAP2 SWAP1 POP JUMP JUMPDEST PUSH2 0x17BD DUP2 PUSH2 0x170A JUMP JUMPDEST DUP3 MSTORE POP POP JUMP JUMPDEST PUSH2 0x17CC DUP2 PUSH2 0x157F JUMP JUMPDEST DUP3 MSTORE POP POP JUMP JUMPDEST PUSH2 0x17DB DUP2 PUSH2 0x16D4 JUMP JUMPDEST DUP3 MSTORE POP POP JUMP JUMPDEST PUSH1 0x80 DUP3 ADD PUSH1 0x0 DUP3 ADD MLOAD PUSH2 0x17F7 PUSH1 0x0 DUP6 ADD DUP3 PUSH2 0x17B4 JUMP JUMPDEST POP PUSH1 0x20 DUP3 ADD MLOAD PUSH2 0x180A PUSH1 0x20 DUP6 ADD DUP3 PUSH2 0x17C3 JUMP JUMPDEST POP PUSH1 0x40 DUP3 ADD MLOAD PUSH2 0x181D PUSH1 0x40 DUP6 ADD DUP3 PUSH2 0x17C3 JUMP JUMPDEST POP PUSH1 0x60 DUP3 ADD MLOAD PUSH2 0x1830 PUSH1 0x60 DUP6 ADD DUP3 PUSH2 0x17D2 JUMP JUMPDEST POP POP POP POP JUMP JUMPDEST PUSH1 0x0 PUSH2 0x1842 DUP4 DUP4 PUSH2 0x17E1 JUMP JUMPDEST PUSH1 0x80 DUP4 ADD SWAP1 POP SWAP3 SWAP2 POP POP JUMP JUMPDEST PUSH1 0x0 PUSH1 0x20 DUP3 ADD SWAP1 POP SWAP2 SWAP1 POP JUMP JUMPDEST PUSH1 0x0 PUSH2 0x1866 DUP3 PUSH2 0x1788 JUMP JUMPDEST PUSH2 0x1870 DUP2 DUP6 PUSH2 0x1793 JUMP JUMPDEST SWAP4 POP PUSH2 0x187B DUP4 PUSH2 0x17A4 JUMP JUMPDEST DUP1 PUSH1 0x0 JUMPDEST DUP4 DUP2 LT ISZERO PUSH2 0x18AC JUMPI DUP2 MLOAD PUSH2 0x1893 DUP9 DUP3 PUSH2 0x1836 JUMP JUMPDEST SWAP8 POP PUSH2 0x189E DUP4 PUSH2 0x184E JUMP JUMPDEST SWAP3 POP POP PUSH1 0x1 DUP2 ADD SWAP1 POP PUSH2 0x187F JUMP JUMPDEST POP DUP6 SWAP4 POP POP POP POP SWAP3 SWAP2 POP POP JUMP JUMPDEST PUSH1 0x0 PUSH1 0x20 DUP3 ADD SWAP1 POP DUP2 DUP2 SUB PUSH1 0x0 DUP4 ADD MSTORE PUSH2 0x18D3 DUP2 DUP5 PUSH2 0x185B JUMP JUMPDEST SWAP1 POP SWAP3 SWAP2 POP POP JUMP JUMPDEST PUSH1 0x0 DUP1 PUSH1 0x40 DUP4 DUP6 SUB SLT ISZERO PUSH2 0x18F2 JUMPI PUSH2 0x18F1 PUSH2 0x15C1 JUMP JUMPDEST JUMPDEST PUSH1 0x0 PUSH2 0x1900 DUP6 DUP3 DUP7 ADD PUSH2 0x15DD JUMP JUMPDEST SWAP3 POP POP PUSH1 0x20 PUSH2 0x1911 DUP6 DUP3 DUP7 ADD PUSH2 0x1692 JUMP JUMPDEST SWAP2 POP POP SWAP3 POP SWAP3 SWAP1 POP JUMP JUMPDEST PUSH2 0x1924 DUP2 PUSH2 0x170A JUMP JUMPDEST DUP3 MSTORE POP POP JUMP JUMPDEST PUSH1 0x0 PUSH1 0x80 DUP3 ADD SWAP1 POP PUSH2 0x193F PUSH1 0x0 DUP4 ADD DUP8 PUSH2 0x191B JUMP JUMPDEST PUSH2 0x194C PUSH1 0x20 DUP4 ADD DUP7 PUSH2 0x1589 JUMP JUMPDEST PUSH2 0x1959 PUSH1 0x40 DUP4 ADD DUP6 PUSH2 0x1589 JUMP JUMPDEST PUSH2 0x1966 PUSH1 0x60 DUP4 ADD DUP5 PUSH2 0x16E0 JUMP JUMPDEST SWAP6 SWAP5 POP POP POP POP POP JUMP JUMPDEST PUSH1 0x0 PUSH1 0x20 DUP3 ADD SWAP1 POP PUSH2 0x1984 PUSH1 0x0 DUP4 ADD DUP5 PUSH2 0x1589 JUMP JUMPDEST SWAP3 SWAP2 POP POP JUMP JUMPDEST PUSH1 0x0 DUP2 MLOAD SWAP1 POP SWAP2 SWAP1 POP JUMP JUMPDEST PUSH1 0x0 DUP3 DUP3 MSTORE PUSH1 0x20 DUP3 ADD SWAP1 POP SWAP3 SWAP2 POP POP JUMP JUMPDEST PUSH1 0x0 DUP2 SWAP1 POP PUSH1 0x20 DUP3 ADD SWAP1 POP SWAP2 SWAP1 POP JUMP JUMPDEST PUSH2 0x19BF DUP2 PUSH2 0x163F JUMP JUMPDEST DUP3 MSTORE POP POP JUMP JUMPDEST PUSH1 0x0 PUSH2 0x19D1 DUP4 DUP4 PUSH2 0x19B6 JUMP JUMPDEST PUSH1 0x20 DUP4 ADD SWAP1 POP SWAP3 SWAP2 POP POP JUMP JUMPDEST PUSH1 0x0 PUSH1 0x20 DUP3 ADD SWAP1 POP SWAP2 SWAP1 POP JUMP JUMPDEST PUSH1 0x0 PUSH2 0x19F5 DUP3 PUSH2 0x198A JUMP JUMPDEST PUSH2 0x19FF DUP2 DUP6 PUSH2 0x1995 JUMP JUMPDEST SWAP4 POP PUSH2 0x1A0A DUP4 PUSH2 0x19A6 JUMP JUMPDEST DUP1 PUSH1 0x0 JUMPDEST DUP4 DUP2 LT ISZERO PUSH2 0x1A3B JUMPI DUP2 MLOAD PUSH2 0x1A22 DUP9 DUP3 PUSH2 0x19C5 JUMP JUMPDEST SWAP8 POP PUSH2 0x1A2D DUP4 PUSH2 0x19DD JUMP JUMPDEST SWAP3 POP POP PUSH1 0x1 DUP2 ADD SWAP1 POP PUSH2 0x1A0E JUMP JUMPDEST POP DUP6 SWAP4 POP POP POP POP SWAP3 SWAP2 POP POP JUMP JUMPDEST PUSH1 0x0 PUSH1 0x20 DUP3 ADD SWAP1 POP DUP2 DUP2 SUB PUSH1 0x0 DUP4 ADD MSTORE PUSH2 0x1A62 DUP2 DUP5 PUSH2 0x19EA JUMP JUMPDEST SWAP1 POP SWAP3 SWAP2 POP POP JUMP JUMPDEST PUSH1 0x0 PUSH1 0x80 DUP3 ADD SWAP1 POP PUSH2 0x1A7F PUSH1 0x0 DUP4 ADD DUP8 PUSH2 0x1651 JUMP JUMPDEST PUSH2 0x1A8C PUSH1 0x20 DUP4 ADD DUP7 PUSH2 0x1589 JUMP JUMPDEST PUSH2 0x1A99 PUSH1 0x40 DUP4 ADD DUP6 PUSH2 0x1589 JUMP JUMPDEST PUSH2 0x1AA6 PUSH1 0x60 DUP4 ADD DUP5 PUSH2 0x16E0 JUMP JUMPDEST SWAP6 SWAP5 POP POP POP POP POP JUMP JUMPDEST PUSH1 0x0 DUP3 DUP3 MSTORE PUSH1 0x20 DUP3 ADD SWAP1 POP SWAP3 SWAP2 POP POP JUMP JUMPDEST PUSH32 0x41646472657373206D757374206265206F6E65206F6620746865206F776E6572 PUSH1 0x0 DUP3 ADD MSTORE PUSH32 0x7300000000000000000000000000000000000000000000000000000000000000 PUSH1 0x20 DUP3 ADD MSTORE POP JUMP JUMPDEST PUSH1 0x0 PUSH2 0x1B1C PUSH1 0x21 DUP4 PUSH2 0x1AAF JUMP JUMPDEST SWAP2 POP PUSH2 0x1B27 DUP3 PUSH2 0x1AC0 JUMP JUMPDEST PUSH1 0x40 DUP3 ADD SWAP1 POP SWAP2 SWAP1 POP JUMP JUMPDEST PUSH1 0x0 PUSH1 0x20 DUP3 ADD SWAP1 POP DUP2 DUP2 SUB PUSH1 0x0 DUP4 ADD MSTORE PUSH2 0x1B4B DUP2 PUSH2 0x1B0F JUMP JUMPDEST SWAP1 POP SWAP2 SWAP1 POP JUMP JUMPDEST PUSH32 0x4E487B7100000000000000000000000000000000000000000000000000000000 PUSH1 0x0 MSTORE PUSH1 0x32 PUSH1 0x4 MSTORE PUSH1 0x24 PUSH1 0x0 REVERT JUMPDEST PUSH32 0x4E487B7100000000000000000000000000000000000000000000000000000000 PUSH1 0x0 MSTORE PUSH1 0x11 PUSH1 0x4 MSTORE PUSH1 0x24 PUSH1 0x0 REVERT JUMPDEST PUSH1 0x0 PUSH2 0x1BBB DUP3 PUSH2 0x157F JUMP JUMPDEST SWAP2 POP PUSH2 0x1BC6 DUP4 PUSH2 0x157F JUMP JUMPDEST SWAP3 POP DUP3 DUP3 ADD SWAP1 POP DUP1 DUP3 GT ISZERO PUSH2 0x1BDE JUMPI PUSH2 0x1BDD PUSH2 0x1B81 JUMP JUMPDEST JUMPDEST SWAP3 SWAP2 POP POP JUMP JUMPDEST PUSH1 0x0 DUP2 SWAP1 POP SWAP3 SWAP2 POP POP JUMP JUMPDEST POP JUMP JUMPDEST PUSH1 0x0 PUSH2 0x1BFF PUSH1 0x0 DUP4 PUSH2 0x1BE4 JUMP JUMPDEST SWAP2 POP PUSH2 0x1C0A DUP3 PUSH2 0x1BEF JUMP JUMPDEST PUSH1 0x0 DUP3 ADD SWAP1 POP SWAP2 SWAP1 POP JUMP JUMPDEST PUSH1 0x0 PUSH2 0x1C20 DUP3 PUSH2 0x1BF2 JUMP JUMPDEST SWAP2 POP DUP2 SWAP1 POP SWAP2 SWAP1 POP JUMP JUMPDEST PUSH32 0x7472616E73616374696F6E206661696C65640000000000000000000000000000 PUSH1 0x0 DUP3 ADD MSTORE POP JUMP JUMPDEST PUSH1 0x0 PUSH2 0x1C60 PUSH1 0x12 DUP4 PUSH2 0x1AAF JUMP JUMPDEST SWAP2 POP PUSH2 0x1C6B DUP3 PUSH2 0x1C2A JUMP JUMPDEST PUSH1 0x20 DUP3 ADD SWAP1 POP SWAP2 SWAP1 POP JUMP JUMPDEST PUSH1 0x0 PUSH1 0x20 DUP3 ADD SWAP1 POP DUP2 DUP2 SUB PUSH1 0x0 DUP4 ADD MSTORE PUSH2 0x1C8F DUP2 PUSH2 0x1C53 JUMP JUMPDEST SWAP1 POP SWAP2 SWAP1 POP JUMP INVALID LOG2 PUSH5 0x6970667358 0x22 SLT KECCAK256 PUSH11 0xCDFC3692E4808FCCBF8BC CALLDATALOAD SWAP16 EXP JUMPI NUMBER MUL 0xAC 0xD3 SGT PUSH31 0xB6D7B50FF5E5B02D3E2E64736F6C63430008170033A2646970667358221220 0xAC 0xE7 SWAP13 STOP SGT DUP8 0xB2 SWAP3 PUSH14 0xECE0082FD7695CE57FE5F1CB025A 0x49 SWAP12 SAR EXTCODESIZE GASPRICE 0x4D SWAP11 CALLDATASIZE 0x4A PUSH5 0x736F6C6343 STOP ADDMOD OR STOP CALLER PUSH1 0xA0 PUSH1 0x40 MSTORE CALLVALUE DUP1 ISZERO PUSH3 0x11 JUMPI PUSH1 0x0 DUP1 REVERT JUMPDEST POP PUSH1 0x40 MLOAD PUSH3 0x2748 CODESIZE SUB DUP1 PUSH3 0x2748 DUP4 CODECOPY DUP2 DUP2 ADD PUSH1 0x40 MSTORE DUP2 ADD SWAP1 PUSH3 0x37 SWAP2 SWAP1 PUSH3 0x7C5 JUMP JUMPDEST PUSH3 0x53 PUSH8 0x9A3501C4F24D92F7 PUSH1 0xC0 SHL PUSH3 0x599 PUSH1 0x20 SHL PUSH1 0x20 SHR JUMP JUMPDEST PUSH3 0x6F PUSH8 0x9405006347C2BACF PUSH1 0xC0 SHL PUSH3 0x599 PUSH1 0x20 SHL PUSH1 0x20 SHR JUMP JUMPDEST PUSH3 0x8B PUSH8 0xFAFE303F6188DF2B PUSH1 0xC0 SHL PUSH3 0x599 PUSH1 0x20 SHL PUSH1 0x20 SHR JUMP JUMPDEST PUSH3 0xA7 PUSH8 0x4228DE60DC6CD395 PUSH1 0xC0 SHL PUSH3 0x599 PUSH1 0x20 SHL PUSH1 0x20 SHR JUMP JUMPDEST PUSH1 0x0 DUP3 MLOAD GT PUSH3 0xEE JUMPI PUSH1 0x40 MLOAD PUSH32 0x8C379A000000000000000000000000000000000000000000000000000000000 DUP2 MSTORE PUSH1 0x4 ADD PUSH3 0xE5 SWAP1 PUSH3 0x88C JUMP JUMPDEST PUSH1 0x40 MLOAD DUP1 SWAP2 SUB SWAP1 REVERT JUMPDEST PUSH3 0x10A PUSH8 0x9F41A444E3B48AC7 PUSH1 0xC0 SHL PUSH3 0x599 PUSH1 0x20 SHL PUSH1 0x20 SHR JUMP JUMPDEST PUSH3 0x126 PUSH8 0x1DEF365669992F01 PUSH1 0xC0 SHL PUSH3 0x599 PUSH1 0x20 SHL PUSH1 0x20 SHR JUMP JUMPDEST PUSH3 0x142 PUSH8 0xE1BF961522B60262 PUSH1 0xC0 SHL PUSH3 0x599 PUSH1 0x20 SHL PUSH1 0x20 SHR JUMP JUMPDEST PUSH3 0x15E PUSH8 0xDD40C59854E481D3 PUSH1 0xC0 SHL PUSH3 0x599 PUSH1 0x20 SHL PUSH1 0x20 SHR JUMP JUMPDEST PUSH1 0x0 DUP2 GT DUP1 ISZERO PUSH3 0x170 JUMPI POP DUP2 MLOAD DUP2 GT ISZERO JUMPDEST PUSH3 0x1B2 JUMPI PUSH1 0x40 MLOAD PUSH32 0x8C379A000000000000000000000000000000000000000000000000000000000 DUP2 MSTORE PUSH1 0x4 ADD PUSH3 0x1A9 SWAP1 PUSH3 0x924 JUMP JUMPDEST PUSH1 0x40 MLOAD DUP1 SWAP2 SUB SWAP1 REVERT JUMPDEST PUSH3 0x1CE PUSH8 0x4A04155B2440E39B PUSH1 0xC0 SHL PUSH3 0x599 PUSH1 0x20 SHL PUSH1 0x20 SHR JUMP JUMPDEST PUSH3 0x1EA PUSH8 0xC28B74028EA993E0 PUSH1 0xC0 SHL PUSH3 0x599 PUSH1 0x20 SHL PUSH1 0x20 SHR JUMP JUMPDEST PUSH3 0x206 PUSH8 0xE1FF14CB7ED2353E PUSH1 0xC0 SHL PUSH3 0x599 PUSH1 0x20 SHL PUSH1 0x20 SHR JUMP JUMPDEST PUSH1 0x0 JUMPDEST DUP3 MLOAD DUP2 LT ISZERO PUSH3 0x56C JUMPI PUSH3 0x22F PUSH8 0xDB9FACB5271C0B6C PUSH1 0xC0 SHL PUSH3 0x599 PUSH1 0x20 SHL PUSH1 0x20 SHR JUMP JUMPDEST PUSH3 0x24B PUSH8 0xB913A6CDB74CB2EC PUSH1 0xC0 SHL PUSH3 0x599 PUSH1 0x20 SHL PUSH1 0x20 SHR JUMP JUMPDEST PUSH1 0x0 DUP4 DUP3 DUP2 MLOAD DUP2 LT PUSH3 0x263 JUMPI PUSH3 0x262 PUSH3 0x946 JUMP JUMPDEST JUMPDEST PUSH1 0x20 MUL PUSH1 0x20 ADD ADD MLOAD SWAP1 POP PUSH3 0x289 PUSH8 0x138CCC31BFD89AF5 PUSH1 0xC0 SHL PUSH3 0x599 PUSH1 0x20 SHL PUSH1 0x20 SHR JUMP JUMPDEST PUSH3 0x2A5 PUSH8 0x2FB7E4FA97E8C651 PUSH1 0xC0 SHL PUSH3 0x599 PUSH1 0x20 SHL PUSH1 0x20 SHR JUMP JUMPDEST PUSH3 0x2C1 PUSH8 0x5311A44D1A96F28A PUSH1 0xC0 SHL PUSH3 0x599 PUSH1 0x20 SHL PUSH1 0x20 SHR JUMP JUMPDEST PUSH1 0x0 PUSH20 0xFFFFFFFFFFFFFFFFFFFFFFFFFFFFFFFFFFFFFFFF AND DUP2 PUSH20 0xFFFFFFFFFFFFFFFFFFFFFFFFFFFFFFFFFFFFFFFF AND SUB PUSH3 0x333 JUMPI PUSH1 0x40 MLOAD PUSH32 0x8C379A000000000000000000000000000000000000000000000000000000000 DUP2 MSTORE PUSH1 0x4 ADD PUSH3 0x32A SWAP1 PUSH3 0x9C5 JUMP JUMPDEST PUSH1 0x40 MLOAD DUP1 SWAP2 SUB SWAP1 REVERT JUMPDEST PUSH3 0x34F PUSH8 0xF43D6BA53857D6C8 PUSH1 0xC0 SHL PUSH3 0x599 PUSH1 0x20 SHL PUSH1 0x20 SHR JUMP JUMPDEST PUSH3 0x36B PUSH8 0x961A360982F5CEE9 PUSH1 0xC0 SHL PUSH3 0x599 PUSH1 0x20 SHL PUSH1 0x20 SHR JUMP JUMPDEST PUSH3 0x387 PUSH8 0x2EE30915E732C81F PUSH1 0xC0 SHL PUSH3 0x599 PUSH1 0x20 SHL PUSH1 0x20 SHR JUMP JUMPDEST PUSH3 0x3A3 PUSH8 0xE95BECE668636322 PUSH1 0xC0 SHL PUSH3 0x599 PUSH1 0x20 SHL PUSH1 0x20 SHR JUMP JUMPDEST PUSH1 0x1 PUSH1 0x0 DUP3 PUSH20 0xFFFFFFFFFFFFFFFFFFFFFFFFFFFFFFFFFFFFFFFF AND PUSH20 0xFFFFFFFFFFFFFFFFFFFFFFFFFFFFFFFFFFFFFFFF AND DUP2 MSTORE PUSH1 0x20 ADD SWAP1 DUP2 MSTORE PUSH1 0x20 ADD PUSH1 0x0 KECCAK256 PUSH1 0x0 SWAP1 SLOAD SWAP1 PUSH2 0x100 EXP SWAP1 DIV PUSH1 0xFF AND ISZERO PUSH3 0x433 JUMPI PUSH1 0x40 MLOAD PUSH32 0x8C379A000000000000000000000000000000000000000000000000000000000 DUP2 MSTORE PUSH1 0x4 ADD PUSH3 0x42A SWAP1 PUSH3 0xA37 JUMP JUMPDEST PUSH1 0x40 MLOAD DUP1 SWAP2 SUB SWAP1 REVERT JUMPDEST PUSH3 0x44F PUSH8 0x7E5E43438A7F78A3 PUSH1 0xC0 SHL PUSH3 0x599 PUSH1 0x20 SHL PUSH1 0x20 SHR JUMP JUMPDEST PUSH3 0x46B PUSH8 0x9ABCEA1ED140656B PUSH1 0xC0 SHL PUSH3 0x599 PUSH1 0x20 SHL PUSH1 0x20 SHR JUMP JUMPDEST PUSH1 0x1 DUP1 PUSH1 0x0 DUP4 PUSH20 0xFFFFFFFFFFFFFFFFFFFFFFFFFFFFFFFFFFFFFFFF AND PUSH20 0xFFFFFFFFFFFFFFFFFFFFFFFFFFFFFFFFFFFFFFFF AND DUP2 MSTORE PUSH1 0x20 ADD SWAP1 DUP2 MSTORE PUSH1 0x20 ADD PUSH1 0x0 KECCAK256 PUSH1 0x0 PUSH2 0x100 EXP DUP2 SLOAD DUP2 PUSH1 0xFF MUL NOT AND SWAP1 DUP4 ISZERO ISZERO MUL OR SWAP1 SSTORE POP PUSH3 0x4DE PUSH8 0x42AF4173FA3CE215 PUSH1 0xC0 SHL PUSH3 0x599 PUSH1 0x20 SHL PUSH1 0x20 SHR JUMP JUMPDEST PUSH3 0x4FA PUSH8 0xDEF054AC5E0E1D94 PUSH1 0xC0 SHL PUSH3 0x599 PUSH1 0x20 SHL PUSH1 0x20 SHR JUMP JUMPDEST PUSH1 0x0 DUP2 SWAP1 DUP1 PUSH1 0x1 DUP2 SLOAD ADD DUP1 DUP3 SSTORE DUP1 SWAP2 POP POP PUSH1 0x1 SWAP1 SUB SWAP1 PUSH1 0x0 MSTORE PUSH1 0x20 PUSH1 0x0 KECCAK256 ADD PUSH1 0x0 SWAP1 SWAP2 SWAP1 SWAP2 SWAP1 SWAP2 PUSH2 0x100 EXP DUP2 SLOAD DUP2 PUSH20 0xFFFFFFFFFFFFFFFFFFFFFFFFFFFFFFFFFFFFFFFF MUL NOT AND SWAP1 DUP4 PUSH20 0xFFFFFFFFFFFFFFFFFFFFFFFFFFFFFFFFFFFFFFFF AND MUL OR SWAP1 SSTORE POP POP DUP1 DUP1 PUSH1 0x1 ADD SWAP2 POP POP PUSH3 0x209 JUMP JUMPDEST POP PUSH3 0x589 PUSH8 0xBB4529980DE537E8 PUSH1 0xC0 SHL PUSH3 0x599 PUSH1 0x20 SHL PUSH1 0x20 SHR JUMP JUMPDEST DUP1 PUSH1 0x80 DUP2 DUP2 MSTORE POP POP POP POP PUSH3 0xA59 JUMP JUMPDEST POP JUMP JUMPDEST PUSH1 0x0 PUSH1 0x40 MLOAD SWAP1 POP SWAP1 JUMP JUMPDEST PUSH1 0x0 DUP1 REVERT JUMPDEST PUSH1 0x0 DUP1 REVERT JUMPDEST PUSH1 0x0 DUP1 REVERT JUMPDEST PUSH1 0x0 PUSH1 0x1F NOT PUSH1 0x1F DUP4 ADD AND SWAP1 POP SWAP2 SWAP1 POP JUMP JUMPDEST PUSH32 0x4E487B7100000000000000000000000000000000000000000000000000000000 PUSH1 0x0 MSTORE PUSH1 0x41 PUSH1 0x4 MSTORE PUSH1 0x24 PUSH1 0x0 REVERT JUMPDEST PUSH3 0x600 DUP3 PUSH3 0x5B5 JUMP JUMPDEST DUP2 ADD DUP2 DUP2 LT PUSH8 0xFFFFFFFFFFFFFFFF DUP3 GT OR ISZERO PUSH3 0x622 JUMPI PUSH3 0x621 PUSH3 0x5C6 JUMP JUMPDEST JUMPDEST DUP1 PUSH1 0x40 MSTORE POP POP POP JUMP JUMPDEST PUSH1 0x0 PUSH3 0x637 PUSH3 0x59C JUMP JUMPDEST SWAP1 POP PUSH3 0x645 DUP3 DUP3 PUSH3 0x5F5 JUMP JUMPDEST SWAP2 SWAP1 POP JUMP JUMPDEST PUSH1 0x0 PUSH8 0xFFFFFFFFFFFFFFFF DUP3 GT ISZERO PUSH3 0x668 JUMPI PUSH3 0x667 PUSH3 0x5C6 JUMP JUMPDEST JUMPDEST PUSH1 0x20 DUP3 MUL SWAP1 POP PUSH1 0x20 DUP2 ADD SWAP1 POP SWAP2 SWAP1 POP JUMP JUMPDEST PUSH1 0x0 DUP1 REVERT JUMPDEST PUSH1 0x0 PUSH20 0xFFFFFFFFFFFFFFFFFFFFFFFFFFFFFFFFFFFFFFFF DUP3 AND SWAP1 POP SWAP2 SWAP1 POP JUMP JUMPDEST PUSH1 0x0 PUSH3 0x6AB DUP3 PUSH3 0x67E JUMP JUMPDEST SWAP1 POP SWAP2 SWAP1 POP JUMP JUMPDEST PUSH3 0x6BD DUP2 PUSH3 0x69E JUMP JUMPDEST DUP2 EQ PUSH3 0x6C9 JUMPI PUSH1 0x0 DUP1 REVERT JUMPDEST POP JUMP JUMPDEST PUSH1 0x0 DUP2 MLOAD SWAP1 POP PUSH3 0x6DD DUP2 PUSH3 0x6B2 JUMP JUMPDEST SWAP3 SWAP2 POP POP JUMP JUMPDEST PUSH1 0x0 PUSH3 0x6FA PUSH3 0x6F4 DUP5 PUSH3 0x64A JUMP JUMPDEST PUSH3 0x62B JUMP JUMPDEST SWAP1 POP DUP1 DUP4 DUP3 MSTORE PUSH1 0x20 DUP3 ADD SWAP1 POP PUSH1 0x20 DUP5 MUL DUP4 ADD DUP6 DUP2 GT ISZERO PUSH3 0x720 JUMPI PUSH3 0x71F PUSH3 0x679 JUMP JUMPDEST JUMPDEST DUP4 JUMPDEST DUP2 DUP2 LT ISZERO PUSH3 0x74D JUMPI DUP1 PUSH3 0x738 DUP9 DUP3 PUSH3 0x6CC JUMP JUMPDEST DUP5 MSTORE PUSH1 0x20 DUP5 ADD SWAP4 POP POP PUSH1 0x20 DUP2 ADD SWAP1 POP PUSH3 0x722 JUMP JUMPDEST POP POP POP SWAP4 SWAP3 POP POP POP JUMP JUMPDEST PUSH1 0x0 DUP3 PUSH1 0x1F DUP4 ADD SLT PUSH3 0x76F JUMPI PUSH3 0x76E PUSH3 0x5B0 JUMP JUMPDEST JUMPDEST DUP2 MLOAD PUSH3 0x781 DUP5 DUP3 PUSH1 0x20 DUP7 ADD PUSH3 0x6E3 JUMP JUMPDEST SWAP2 POP POP SWAP3 SWAP2 POP POP JUMP JUMPDEST PUSH1 0x0 DUP2 SWAP1 POP SWAP2 SWAP1 POP JUMP JUMPDEST PUSH3 0x79F DUP2 PUSH3 0x78A JUMP JUMPDEST DUP2 EQ PUSH3 0x7AB JUMPI PUSH1 0x0 DUP1 REVERT JUMPDEST POP JUMP JUMPDEST PUSH1 0x0 DUP2 MLOAD SWAP1 POP PUSH3 0x7BF DUP2 PUSH3 0x794 JUMP JUMPDEST SWAP3 SWAP2 POP POP JUMP JUMPDEST PUSH1 0x0 DUP1 PUSH1 0x40 DUP4 DUP6 SUB SLT ISZERO PUSH3 0x7DF JUMPI PUSH3 0x7DE PUSH3 0x5A6 JUMP JUMPDEST JUMPDEST PUSH1 0x0 DUP4 ADD MLOAD PUSH8 0xFFFFFFFFFFFFFFFF DUP2 GT ISZERO PUSH3 0x800 JUMPI PUSH3 0x7FF PUSH3 0x5AB JUMP JUMPDEST JUMPDEST PUSH3 0x80E DUP6 DUP3 DUP7 ADD PUSH3 0x757 JUMP JUMPDEST SWAP3 POP POP PUSH1 0x20 PUSH3 0x821 DUP6 DUP3 DUP7 ADD PUSH3 0x7AE JUMP JUMPDEST SWAP2 POP POP SWAP3 POP SWAP3 SWAP1 POP JUMP JUMPDEST PUSH1 0x0 DUP3 DUP3 MSTORE PUSH1 0x20 DUP3 ADD SWAP1 POP SWAP3 SWAP2 POP POP JUMP JUMPDEST PUSH32 0x6F776E6572732072657175697265640000000000000000000000000000000000 PUSH1 0x0 DUP3 ADD MSTORE POP JUMP JUMPDEST PUSH1 0x0 PUSH3 0x874 PUSH1 0xF DUP4 PUSH3 0x82B JUMP JUMPDEST SWAP2 POP PUSH3 0x881 DUP3 PUSH3 0x83C JUMP JUMPDEST PUSH1 0x20 DUP3 ADD SWAP1 POP SWAP2 SWAP1 POP JUMP JUMPDEST PUSH1 0x0 PUSH1 0x20 DUP3 ADD SWAP1 POP DUP2 DUP2 SUB PUSH1 0x0 DUP4 ADD MSTORE PUSH3 0x8A7 DUP2 PUSH3 0x865 JUMP JUMPDEST SWAP1 POP SWAP2 SWAP1 POP JUMP JUMPDEST PUSH32 0x696E76616C6964206E756D626572206F662072657175697265642071756F7275 PUSH1 0x0 DUP3 ADD MSTORE PUSH32 0x6D00000000000000000000000000000000000000000000000000000000000000 PUSH1 0x20 DUP3 ADD MSTORE POP JUMP JUMPDEST PUSH1 0x0 PUSH3 0x90C PUSH1 0x21 DUP4 PUSH3 0x82B JUMP JUMPDEST SWAP2 POP PUSH3 0x919 DUP3 PUSH3 0x8AE JUMP JUMPDEST PUSH1 0x40 DUP3 ADD SWAP1 POP SWAP2 SWAP1 POP JUMP JUMPDEST PUSH1 0x0 PUSH1 0x20 DUP3 ADD SWAP1 POP DUP2 DUP2 SUB PUSH1 0x0 DUP4 ADD MSTORE PUSH3 0x93F DUP2 PUSH3 0x8FD JUMP JUMPDEST SWAP1 POP SWAP2 SWAP1 POP JUMP JUMPDEST PUSH32 0x4E487B7100000000000000000000000000000000000000000000000000000000 PUSH1 0x0 MSTORE PUSH1 0x32 PUSH1 0x4 MSTORE PUSH1 0x24 PUSH1 0x0 REVERT JUMPDEST PUSH32 0x696E76616C6964206F776E657200000000000000000000000000000000000000 PUSH1 0x0 DUP3 ADD MSTORE POP JUMP JUMPDEST PUSH1 0x0 PUSH3 0x9AD PUSH1 0xD DUP4 PUSH3 0x82B JUMP JUMPDEST SWAP2 POP PUSH3 0x9BA DUP3 PUSH3 0x975 JUMP JUMPDEST PUSH1 0x20 DUP3 ADD SWAP1 POP SWAP2 SWAP1 POP JUMP JUMPDEST PUSH1 0x0 PUSH1 0x20 DUP3 ADD SWAP1 POP DUP2 DUP2 SUB PUSH1 0x0 DUP4 ADD MSTORE PUSH3 0x9E0 DUP2 PUSH3 0x99E JUMP JUMPDEST SWAP1 POP SWAP2 SWAP1 POP JUMP JUMPDEST PUSH32 0x6F776E6572206E6F7420756E6971756500000000000000000000000000000000 PUSH1 0x0 DUP3 ADD MSTORE POP JUMP JUMPDEST PUSH1 0x0 PUSH3 0xA1F PUSH1 0x10 DUP4 PUSH3 0x82B JUMP JUMPDEST SWAP2 POP PUSH3 0xA2C DUP3 PUSH3 0x9E7 JUMP JUMPDEST PUSH1 0x20 DUP3 ADD SWAP1 POP SWAP2 SWAP1 POP JUMP JUMPDEST PUSH1 0x0 PUSH1 0x20 DUP3 ADD SWAP1 POP DUP2 DUP2 SUB PUSH1 0x0 DUP4 ADD MSTORE PUSH3 0xA52 DUP2 PUSH3 0xA10 JUMP JUMPDEST SWAP1 POP SWAP2 SWAP1 POP JUMP JUMPDEST PUSH1 0x80 MLOAD PUSH2 0x1CCC PUSH3 0xA7C PUSH1 0x0 CODECOPY PUSH1 0x0 DUP2 DUP2 PUSH2 0x9CA ADD MSTORE PUSH2 0x11C2 ADD MSTORE PUSH2 0x1CCC PUSH1 0x0 RETURN INVALID PUSH1 0x80 PUSH1 0x40 MSTORE PUSH1 0x4 CALLDATASIZE LT PUSH2 0xC6 JUMPI PUSH1 0x0 CALLDATALOAD PUSH1 0xE0 SHR DUP1 PUSH4 0x5CC07076 GT PUSH2 0x7F JUMPI DUP1 PUSH4 0x9522059C GT PUSH2 0x59 JUMPI DUP1 PUSH4 0x9522059C EQ PUSH2 0x300 JUMPI DUP1 PUSH4 0xA0E67E2B EQ PUSH2 0x32B JUMPI DUP1 PUSH4 0xA9D31066 EQ PUSH2 0x356 JUMPI DUP1 PUSH4 0xD0E30DB0 EQ PUSH2 0x396 JUMPI PUSH2 0x131 JUMP JUMPDEST DUP1 PUSH4 0x5CC07076 EQ PUSH2 0x26A JUMPI DUP1 PUSH4 0x6747DAD7 EQ PUSH2 0x2AA JUMPI DUP1 PUSH4 0x722713F7 EQ PUSH2 0x2D5 JUMPI PUSH2 0x131 JUMP JUMPDEST DUP1 PUSH4 0x25E7C27 EQ PUSH2 0x136 JUMPI DUP1 PUSH4 0x1B671A40 EQ PUSH2 0x173 JUMPI DUP1 PUSH4 0x2F54BF6E EQ PUSH2 0x19C JUMPI DUP1 PUSH4 0x3EBAE36F EQ PUSH2 0x1D9 JUMPI DUP1 PUSH4 0x4B465D74 EQ PUSH2 0x202 JUMPI DUP1 PUSH4 0x56C31637 EQ PUSH2 0x22D JUMPI PUSH2 0x131 JUMP JUMPDEST CALLDATASIZE PUSH2 0x131 JUMPI PUSH2 0xDF PUSH8 0xAFC2AAEF91CAFD94 PUSH1 0xC0 SHL PUSH2 0x3A0 JUMP JUMPDEST CALLER PUSH20 0xFFFFFFFFFFFFFFFFFFFFFFFFFFFFFFFFFFFFFFFF AND PUSH32 0x90890809C654F11D6E72A28FA60149770A0D11EC6C92319D6CEB2BB0A4EA1A15 CALLVALUE SELFBALANCE PUSH1 0x40 MLOAD PUSH2 0x127 SWAP3 SWAP2 SWAP1 PUSH2 0x1598 JUMP JUMPDEST PUSH1 0x40 MLOAD DUP1 SWAP2 SUB SWAP1 LOG2 STOP JUMPDEST PUSH1 0x0 DUP1 REVERT JUMPDEST CALLVALUE DUP1 ISZERO PUSH2 0x142 JUMPI PUSH1 0x0 DUP1 REVERT JUMPDEST POP PUSH2 0x15D PUSH1 0x4 DUP1 CALLDATASIZE SUB DUP2 ADD SWAP1 PUSH2 0x158 SWAP2 SWAP1 PUSH2 0x15F2 JUMP JUMPDEST PUSH2 0x3A3 JUMP JUMPDEST PUSH1 0x40 MLOAD PUSH2 0x16A SWAP2 SWAP1 PUSH2 0x1660 JUMP JUMPDEST PUSH1 0x40 MLOAD DUP1 SWAP2 SUB SWAP1 RETURN JUMPDEST CALLVALUE DUP1 ISZERO PUSH2 0x17F JUMPI PUSH1 0x0 DUP1 REVERT JUMPDEST POP PUSH2 0x19A PUSH1 0x4 DUP1 CALLDATASIZE SUB DUP2 ADD SWAP1 PUSH2 0x195 SWAP2 SWAP1 PUSH2 0x15F2 JUMP JUMPDEST PUSH2 0x3E2 JUMP JUMPDEST STOP JUMPDEST CALLVALUE DUP1 ISZERO PUSH2 0x1A8 JUMPI PUSH1 0x0 DUP1 REVERT JUMPDEST POP PUSH2 0x1C3 PUSH1 0x4 DUP1 CALLDATASIZE SUB DUP2 ADD SWAP1 PUSH2 0x1BE SWAP2 SWAP1 PUSH2 0x16A7 JUMP JUMPDEST PUSH2 0xC12 JUMP JUMPDEST PUSH1 0x40 MLOAD PUSH2 0x1D0 SWAP2 SWAP1 PUSH2 0x16EF JUMP JUMPDEST PUSH1 0x40 MLOAD DUP1 SWAP2 SUB SWAP1 RETURN JUMPDEST CALLVALUE DUP1 ISZERO PUSH2 0x1E5 JUMPI PUSH1 0x0 DUP1 REVERT JUMPDEST POP PUSH2 0x200 PUSH1 0x4 DUP1 CALLDATASIZE SUB DUP2 ADD SWAP1 PUSH2 0x1FB SWAP2 SWAP1 PUSH2 0x1748 JUMP JUMPDEST PUSH2 0xC32 JUMP JUMPDEST STOP JUMPDEST CALLVALUE DUP1 ISZERO PUSH2 0x20E JUMPI PUSH1 0x0 DUP1 REVERT JUMPDEST POP PUSH2 0x217 PUSH2 0xF77 JUMP JUMPDEST PUSH1 0x40 MLOAD PUSH2 0x224 SWAP2 SWAP1 PUSH2 0x18B9 JUMP JUMPDEST PUSH1 0x40 MLOAD DUP1 SWAP2 SUB SWAP1 RETURN JUMPDEST CALLVALUE DUP1 ISZERO PUSH2 0x239 JUMPI PUSH1 0x0 DUP1 REVERT JUMPDEST POP PUSH2 0x254 PUSH1 0x4 DUP1 CALLDATASIZE SUB DUP2 ADD SWAP1 PUSH2 0x24F SWAP2 SWAP1 PUSH2 0x18DB JUMP JUMPDEST PUSH2 0x1097 JUMP JUMPDEST PUSH1 0x40 MLOAD PUSH2 0x261 SWAP2 SWAP1 PUSH2 0x16EF JUMP JUMPDEST PUSH1 0x40 MLOAD DUP1 SWAP2 SUB SWAP1 RETURN JUMPDEST CALLVALUE DUP1 ISZERO PUSH2 0x276 JUMPI PUSH1 0x0 DUP1 REVERT JUMPDEST POP PUSH2 0x291 PUSH1 0x4 DUP1 CALLDATASIZE SUB DUP2 ADD SWAP1 PUSH2 0x28C SWAP2 SWAP1 PUSH2 0x15F2 JUMP JUMPDEST PUSH2 0x10C6 JUMP JUMPDEST PUSH1 0x40 MLOAD PUSH2 0x2A1 SWAP5 SWAP4 SWAP3 SWAP2 SWAP1 PUSH2 0x192A JUMP JUMPDEST PUSH1 0x40 MLOAD DUP1 SWAP2 SUB SWAP1 RETURN JUMPDEST CALLVALUE DUP1 ISZERO PUSH2 0x2B6 JUMPI PUSH1 0x0 DUP1 REVERT JUMPDEST POP PUSH2 0x2BF PUSH2 0x1133 JUMP JUMPDEST PUSH1 0x40 MLOAD PUSH2 0x2CC SWAP2 SWAP1 PUSH2 0x196F JUMP JUMPDEST PUSH1 0x40 MLOAD DUP1 SWAP2 SUB SWAP1 RETURN JUMPDEST CALLVALUE DUP1 ISZERO PUSH2 0x2E1 JUMPI PUSH1 0x0 DUP1 REVERT JUMPDEST POP PUSH2 0x2EA PUSH2 0x117C JUMP JUMPDEST PUSH1 0x40 MLOAD PUSH2 0x2F7 SWAP2 SWAP1 PUSH2 0x196F JUMP JUMPDEST PUSH1 0x40 MLOAD DUP1 SWAP2 SUB SWAP1 RETURN JUMPDEST CALLVALUE DUP1 ISZERO PUSH2 0x30C JUMPI PUSH1 0x0 DUP1 REVERT JUMPDEST POP PUSH2 0x315 PUSH2 0x11C0 JUMP JUMPDEST PUSH1 0x40 MLOAD PUSH2 0x322 SWAP2 SWAP1 PUSH2 0x196F JUMP JUMPDEST PUSH1 0x40 MLOAD DUP1 SWAP2 SUB SWAP1 RETURN JUMPDEST CALLVALUE DUP1 ISZERO PUSH2 0x337 JUMPI PUSH1 0x0 DUP1 REVERT JUMPDEST POP PUSH2 0x340 PUSH2 0x11E4 JUMP JUMPDEST PUSH1 0x40 MLOAD PUSH2 0x34D SWAP2 SWAP1 PUSH2 0x1A48 JUMP JUMPDEST PUSH1 0x40 MLOAD DUP1 SWAP2 SUB SWAP1 RETURN JUMPDEST CALLVALUE DUP1 ISZERO PUSH2 0x362 JUMPI PUSH1 0x0 DUP1 REVERT JUMPDEST POP PUSH2 0x37D PUSH1 0x4 DUP1 CALLDATASIZE SUB DUP2 ADD SWAP1 PUSH2 0x378 SWAP2 SWAP1 PUSH2 0x15F2 JUMP JUMPDEST PUSH2 0x12AE JUMP JUMPDEST PUSH1 0x40 MLOAD PUSH2 0x38D SWAP5 SWAP4 SWAP3 SWAP2 SWAP1 PUSH2 0x1A6A JUMP JUMPDEST PUSH1 0x40 MLOAD DUP1 SWAP2 SUB SWAP1 RETURN JUMPDEST PUSH2 0x39E PUSH2 0x14F1 JUMP JUMPDEST STOP JUMPDEST POP JUMP JUMPDEST PUSH1 0x0 DUP2 DUP2 SLOAD DUP2 LT PUSH2 0x3B3 JUMPI PUSH1 0x0 DUP1 REVERT JUMPDEST SWAP1 PUSH1 0x0 MSTORE PUSH1 0x20 PUSH1 0x0 KECCAK256 ADD PUSH1 0x0 SWAP2 POP SLOAD SWAP1 PUSH2 0x100 EXP SWAP1 DIV PUSH20 0xFFFFFFFFFFFFFFFFFFFFFFFFFFFFFFFFFFFFFFFF AND DUP2 JUMP JUMPDEST PUSH2 0x3F6 PUSH8 0xC6B0C37E7F2FCF88 PUSH1 0xC0 SHL PUSH2 0x3A0 JUMP JUMPDEST PUSH2 0x40A PUSH8 0x7D2247673929FE96 PUSH1 0xC0 SHL PUSH2 0x3A0 JUMP JUMPDEST PUSH2 0x41E PUSH8 0xCE8969155C4C0871 PUSH1 0xC0 SHL PUSH2 0x3A0 JUMP JUMPDEST PUSH2 0x432 PUSH8 0x7547571930D53BE4 PUSH1 0xC0 SHL PUSH2 0x3A0 JUMP JUMPDEST PUSH2 0x446 PUSH8 0x17ED5E91BA98B1B0 PUSH1 0xC0 SHL PUSH2 0x3A0 JUMP JUMPDEST PUSH1 0x1 ISZERO ISZERO PUSH1 0x1 PUSH1 0x0 CALLER PUSH20 0xFFFFFFFFFFFFFFFFFFFFFFFFFFFFFFFFFFFFFFFF AND PUSH20 0xFFFFFFFFFFFFFFFFFFFFFFFFFFFFFFFFFFFFFFFF AND DUP2 MSTORE PUSH1 0x20 ADD SWAP1 DUP2 MSTORE PUSH1 0x20 ADD PUSH1 0x0 KECCAK256 PUSH1 0x0 SWAP1 SLOAD SWAP1 PUSH2 0x100 EXP SWAP1 DIV PUSH1 0xFF AND ISZERO ISZERO EQ PUSH2 0x4D9 JUMPI PUSH1 0x40 MLOAD PUSH32 0x8C379A000000000000000000000000000000000000000000000000000000000 DUP2 MSTORE PUSH1 0x4 ADD PUSH2 0x4D0 SWAP1 PUSH2 0x1B32 JUMP JUMPDEST PUSH1 0x40 MLOAD DUP1 SWAP2 SUB SWAP1 REVERT JUMPDEST PUSH2 0x4ED PUSH8 0xEB1FFB9FB9D64F95 PUSH1 0xC0 SHL PUSH2 0x3A0 JUMP JUMPDEST PUSH2 0x501 PUSH8 0xA1B3B05510F42AB4 PUSH1 0xC0 SHL PUSH2 0x3A0 JUMP JUMPDEST PUSH2 0x514 PUSH7 0x8044BE119D3C39 PUSH1 0xC0 SHL PUSH2 0x3A0 JUMP JUMPDEST PUSH2 0x528 PUSH8 0x8B5386A65481E362 PUSH1 0xC0 SHL PUSH2 0x3A0 JUMP JUMPDEST DUP1 PUSH2 0x53D PUSH8 0x9DC26228891FB105 PUSH1 0xC0 SHL PUSH2 0x3A0 JUMP JUMPDEST PUSH2 0x551 PUSH8 0x720430045E880299 PUSH1 0xC0 SHL PUSH2 0x3A0 JUMP JUMPDEST PUSH2 0x565 PUSH8 0x1431D3AAE02436D8 PUSH1 0xC0 SHL PUSH2 0x3A0 JUMP JUMPDEST PUSH1 0x3 DUP1 SLOAD SWAP1 POP DUP2 LT PUSH2 0x5D6 JUMPI PUSH2 0x585 PUSH8 0x75CE65A8CDA84754 PUSH1 0xC0 SHL PUSH2 0x3A0 JUMP JUMPDEST PUSH2 0x599 PUSH8 0x19315068DB02C9C8 PUSH1 0xC0 SHL PUSH2 0x3A0 JUMP JUMPDEST DUP1 PUSH1 0x40 MLOAD PUSH32 0xCFCD3B3200000000000000000000000000000000000000000000000000000000 DUP2 MSTORE PUSH1 0x4 ADD PUSH2 0x5CD SWAP2 SWAP1 PUSH2 0x196F JUMP JUMPDEST PUSH1 0x40 MLOAD DUP1 SWAP2 SUB SWAP1 REVERT JUMPDEST PUSH2 0x5EA PUSH8 0x9F2C9CC2E721B41 PUSH1 0xC0 SHL PUSH2 0x3A0 JUMP JUMPDEST PUSH2 0x5FE PUSH8 0xF193D53272E0E636 PUSH1 0xC0 SHL PUSH2 0x3A0 JUMP JUMPDEST PUSH2 0x612 PUSH8 0xB61F24B317E00770 PUSH1 0xC0 SHL PUSH2 0x3A0 JUMP JUMPDEST PUSH2 0x626 PUSH8 0x89040D3B58CEA1B9 PUSH1 0xC0 SHL PUSH2 0x3A0 JUMP JUMPDEST DUP2 PUSH2 0x63B PUSH8 0x8F22E625DC1CA2FB PUSH1 0xC0 SHL PUSH2 0x3A0 JUMP JUMPDEST PUSH2 0x64F PUSH8 0xF5B3A09FEEE5C376 PUSH1 0xC0 SHL PUSH2 0x3A0 JUMP JUMPDEST PUSH2 0x663 PUSH8 0x9AF7B94A2D1FA3A9 PUSH1 0xC0 SHL PUSH2 0x3A0 JUMP JUMPDEST PUSH1 0x2 PUSH1 0x0 DUP3 DUP2 MSTORE PUSH1 0x20 ADD SWAP1 DUP2 MSTORE PUSH1 0x20 ADD PUSH1 0x0 KECCAK256 PUSH1 0x0 CALLER PUSH20 0xFFFFFFFFFFFFFFFFFFFFFFFFFFFFFFFFFFFFFFFF AND PUSH20 0xFFFFFFFFFFFFFFFFFFFFFFFFFFFFFFFFFFFFFFFF AND DUP2 MSTORE PUSH1 0x20 ADD SWAP1 DUP2 MSTORE PUSH1 0x20 ADD PUSH1 0x0 KECCAK256 PUSH1 0x0 SWAP1 SLOAD SWAP1 PUSH2 0x100 EXP SWAP1 DIV PUSH1 0xFF AND ISZERO PUSH2 0x72B JUMPI PUSH2 0x6DA PUSH8 0x89C40505EC4AA275 PUSH1 0xC0 SHL PUSH2 0x3A0 JUMP JUMPDEST PUSH2 0x6EE PUSH8 0x273FFDC4931358DC PUSH1 0xC0 SHL PUSH2 0x3A0 JUMP JUMPDEST DUP1 PUSH1 0x40 MLOAD PUSH32 0x6B771E4A00000000000000000000000000000000000000000000000000000000 DUP2 MSTORE PUSH1 0x4 ADD PUSH2 0x722 SWAP2 SWAP1 PUSH2 0x196F JUMP JUMPDEST PUSH1 0x40 MLOAD DUP1 SWAP2 SUB SWAP1 REVERT JUMPDEST PUSH2 0x73F PUSH8 0x759299B6559043E6 PUSH1 0xC0 SHL PUSH2 0x3A0 JUMP JUMPDEST PUSH2 0x753 PUSH8 0x93C54A18C55F9F0C PUSH1 0xC0 SHL PUSH2 0x3A0 JUMP JUMPDEST PUSH2 0x767 PUSH8 0x5951F49DF5B7110E PUSH1 0xC0 SHL PUSH2 0x3A0 JUMP JUMPDEST PUSH2 0x77B PUSH8 0x32F07A969FA42044 PUSH1 0xC0 SHL PUSH2 0x3A0 JUMP JUMPDEST DUP3 PUSH2 0x790 PUSH8 0xE6792A28689A2B3C PUSH1 0xC0 SHL PUSH2 0x3A0 JUMP JUMPDEST PUSH2 0x7A4 PUSH8 0x24FB0C5E1C263F42 PUSH1 0xC0 SHL PUSH2 0x3A0 JUMP JUMPDEST PUSH2 0x7B8 PUSH8 0x4A33164225922154 PUSH1 0xC0 SHL PUSH2 0x3A0 JUMP JUMPDEST PUSH1 0x3 DUP2 DUP2 SLOAD DUP2 LT PUSH2 0x7CC JUMPI PUSH2 0x7CB PUSH2 0x1B52 JUMP JUMPDEST JUMPDEST SWAP1 PUSH1 0x0 MSTORE PUSH1 0x20 PUSH1 0x0 KECCAK256 SWAP1 PUSH1 0x4 MUL ADD PUSH1 0x3 ADD PUSH1 0x0 SWAP1 SLOAD SWAP1 PUSH2 0x100 EXP SWAP1 DIV PUSH1 0xFF AND ISZERO PUSH2 0x855 JUMPI PUSH2 0x804 PUSH8 0x1CD09CE961156097 PUSH1 0xC0 SHL PUSH2 0x3A0 JUMP JUMPDEST PUSH2 0x818 PUSH8 0xA8B33037CFB8F882 PUSH1 0xC0 SHL PUSH2 0x3A0 JUMP JUMPDEST DUP1 PUSH1 0x40 MLOAD PUSH32 0x1B344EE700000000000000000000000000000000000000000000000000000000 DUP2 MSTORE PUSH1 0x4 ADD PUSH2 0x84C SWAP2 SWAP1 PUSH2 0x196F JUMP JUMPDEST PUSH1 0x40 MLOAD DUP1 SWAP2 SUB SWAP1 REVERT JUMPDEST PUSH2 0x869 PUSH8 0x99F0DC1AAB79328E PUSH1 0xC0 SHL PUSH2 0x3A0 JUMP JUMPDEST PUSH2 0x87D PUSH8 0x8EEE2854D646A7F PUSH1 0xC0 SHL PUSH2 0x3A0 JUMP JUMPDEST PUSH2 0x891 PUSH8 0x41C1C36B83B977B7 PUSH1 0xC0 SHL PUSH2 0x3A0 JUMP JUMPDEST PUSH2 0x8A5 PUSH8 0x778DCE6CE0B6591B PUSH1 0xC0 SHL PUSH2 0x3A0 JUMP JUMPDEST PUSH2 0x8B9 PUSH8 0xD3AB07BC4045F216 PUSH1 0xC0 SHL PUSH2 0x3A0 JUMP JUMPDEST PUSH1 0x1 PUSH1 0x2 PUSH1 0x0 DUP7 DUP2 MSTORE PUSH1 0x20 ADD SWAP1 DUP2 MSTORE PUSH1 0x20 ADD PUSH1 0x0 KECCAK256 PUSH1 0x0 CALLER PUSH20 0xFFFFFFFFFFFFFFFFFFFFFFFFFFFFFFFFFFFFFFFF AND PUSH20 0xFFFFFFFFFFFFFFFFFFFFFFFFFFFFFFFFFFFFFFFF AND DUP2 MSTORE PUSH1 0x20 ADD SWAP1 DUP2 MSTORE PUSH1 0x20 ADD PUSH1 0x0 KECCAK256 PUSH1 0x0 PUSH2 0x100 EXP DUP2 SLOAD DUP2 PUSH1 0xFF MUL NOT AND SWAP1 DUP4 ISZERO ISZERO MUL OR SWAP1 SSTORE POP PUSH2 0x936 PUSH8 0x8BF764929111DC7D PUSH1 0xC0 SHL PUSH2 0x3A0 JUMP JUMPDEST PUSH2 0x94A PUSH8 0xFC62074512B8EBB4 PUSH1 0xC0 SHL PUSH2 0x3A0 JUMP JUMPDEST PUSH1 0x0 PUSH1 0x3 DUP6 DUP2 SLOAD DUP2 LT PUSH2 0x960 JUMPI PUSH2 0x95F PUSH2 0x1B52 JUMP JUMPDEST JUMPDEST SWAP1 PUSH1 0x0 MSTORE PUSH1 0x20 PUSH1 0x0 KECCAK256 SWAP1 PUSH1 0x4 MUL ADD SWAP1 POP PUSH2 0x984 PUSH8 0x709B889EE35D606E PUSH1 0xC0 SHL PUSH2 0x3A0 JUMP JUMPDEST PUSH1 0x1 DUP2 PUSH1 0x2 ADD PUSH1 0x0 DUP3 DUP3 SLOAD PUSH2 0x999 SWAP2 SWAP1 PUSH2 0x1BB0 JUMP JUMPDEST SWAP3 POP POP DUP2 SWAP1 SSTORE POP PUSH2 0x9B4 PUSH8 0x8BD8217CE53CBAC0 PUSH1 0xC0 SHL PUSH2 0x3A0 JUMP JUMPDEST PUSH2 0x9C8 PUSH8 0xFDB5AD2891915E9C PUSH1 0xC0 SHL PUSH2 0x3A0 JUMP JUMPDEST PUSH32 0x0 DUP2 PUSH1 0x2 ADD SLOAD LT PUSH2 0xBF6 JUMPI PUSH2 0xA07 PUSH8 0x60474023EE365FF5 PUSH1 0xC0 SHL PUSH2 0x3A0 JUMP JUMPDEST PUSH2 0xA1B PUSH8 0x7F7993A7D58056D6 PUSH1 0xC0 SHL PUSH2 0x3A0 JUMP JUMPDEST PUSH1 0x1 DUP2 PUSH1 0x3 ADD PUSH1 0x0 PUSH2 0x100 EXP DUP2 SLOAD DUP2 PUSH1 0xFF MUL NOT AND SWAP1 DUP4 ISZERO ISZERO MUL OR SWAP1 SSTORE POP PUSH2 0xA4C PUSH8 0xE72C1CF26B8A6172 PUSH1 0xC0 SHL PUSH2 0x3A0 JUMP JUMPDEST PUSH2 0xA60 PUSH8 0xD09A9AC66074E8FB PUSH1 0xC0 SHL PUSH2 0x3A0 JUMP JUMPDEST PUSH1 0x0 DUP2 PUSH1 0x0 ADD PUSH1 0x0 SWAP1 SLOAD SWAP1 PUSH2 0x100 EXP SWAP1 DIV PUSH20 0xFFFFFFFFFFFFFFFFFFFFFFFFFFFFFFFFFFFFFFFF AND PUSH20 0xFFFFFFFFFFFFFFFFFFFFFFFFFFFFFFFFFFFFFFFF AND DUP3 PUSH1 0x1 ADD SLOAD PUSH1 0x40 MLOAD PUSH2 0xAAE SWAP1 PUSH2 0x1C15 JUMP JUMPDEST PUSH1 0x0 PUSH1 0x40 MLOAD DUP1 DUP4 SUB DUP2 DUP6 DUP8 GAS CALL SWAP3 POP POP POP RETURNDATASIZE DUP1 PUSH1 0x0 DUP2 EQ PUSH2 0xAEB JUMPI PUSH1 0x40 MLOAD SWAP2 POP PUSH1 0x1F NOT PUSH1 0x3F RETURNDATASIZE ADD AND DUP3 ADD PUSH1 0x40 MSTORE RETURNDATASIZE DUP3 MSTORE RETURNDATASIZE PUSH1 0x0 PUSH1 0x20 DUP5 ADD RETURNDATACOPY PUSH2 0xAF0 JUMP JUMPDEST PUSH1 0x60 SWAP2 POP JUMPDEST POP POP SWAP1 POP PUSH2 0xB08 PUSH8 0x97CE254BA0285801 PUSH1 0xC0 SHL PUSH2 0x3A0 JUMP JUMPDEST PUSH2 0xB1C PUSH8 0xC6C74AB7CD52ACD8 PUSH1 0xC0 SHL PUSH2 0x3A0 JUMP JUMPDEST PUSH2 0xB30 PUSH8 0xCD8D1834C9944FFF PUSH1 0xC0 SHL PUSH2 0x3A0 JUMP JUMPDEST DUP1 PUSH2 0xB70 JUMPI PUSH1 0x40 MLOAD PUSH32 0x8C379A000000000000000000000000000000000000000000000000000000000 DUP2 MSTORE PUSH1 0x4 ADD PUSH2 0xB67 SWAP1 PUSH2 0x1C76 JUMP JUMPDEST PUSH1 0x40 MLOAD DUP1 SWAP2 SUB SWAP1 REVERT JUMPDEST PUSH2 0xB84 PUSH8 0xC0EF0AA01B536280 PUSH1 0xC0 SHL PUSH2 0x3A0 JUMP JUMPDEST PUSH2 0xB98 PUSH8 0x5F298AA271CD10FA PUSH1 0xC0 SHL PUSH2 0x3A0 JUMP JUMPDEST PUSH2 0xBAC PUSH8 0x425E3458B838BFD2 PUSH1 0xC0 SHL PUSH2 0x3A0 JUMP JUMPDEST DUP6 CALLER PUSH20 0xFFFFFFFFFFFFFFFFFFFFFFFFFFFFFFFFFFFFFFFF AND PUSH32 0xE6266574C540A6EACE832E59BC4FA1D3C8A6C570042F03F6EB69C252CB713955 PUSH1 0x40 MLOAD PUSH1 0x40 MLOAD DUP1 SWAP2 SUB SWAP1 LOG3 POP PUSH2 0xC0B JUMP JUMPDEST PUSH2 0xC0A PUSH8 0x9526F48DEFDA0C85 PUSH1 0xC0 SHL PUSH2 0x3A0 JUMP JUMPDEST JUMPDEST POP POP POP POP POP JUMP JUMPDEST PUSH1 0x1 PUSH1 0x20 MSTORE DUP1 PUSH1 0x0 MSTORE PUSH1 0x40 PUSH1 0x0 KECCAK256 PUSH1 0x0 SWAP2 POP SLOAD SWAP1 PUSH2 0x100 EXP SWAP1 DIV PUSH1 0xFF AND DUP2 JUMP JUMPDEST PUSH2 0xC46 PUSH8 0x111BB068072AF3F0 PUSH1 0xC0 SHL PUSH2 0x3A0 JUMP JUMPDEST PUSH2 0xC5A PUSH8 0x7D2247673929FE96 PUSH1 0xC0 SHL PUSH2 0x3A0 JUMP JUMPDEST PUSH2 0xC6E PUSH8 0xCE8969155C4C0871 PUSH1 0xC0 SHL PUSH2 0x3A0 JUMP JUMPDEST PUSH2 0xC82 PUSH8 0x7547571930D53BE4 PUSH1 0xC0 SHL PUSH2 0x3A0 JUMP JUMPDEST PUSH2 0xC96 PUSH8 0x17ED5E91BA98B1B0 PUSH1 0xC0 SHL PUSH2 0x3A0 JUMP JUMPDEST PUSH1 0x1 ISZERO ISZERO PUSH1 0x1 PUSH1 0x0 CALLER PUSH20 0xFFFFFFFFFFFFFFFFFFFFFFFFFFFFFFFFFFFFFFFF AND PUSH20 0xFFFFFFFFFFFFFFFFFFFFFFFFFFFFFFFFFFFFFFFF AND DUP2 MSTORE PUSH1 0x20 ADD SWAP1 DUP2 MSTORE PUSH1 0x20 ADD PUSH1 0x0 KECCAK256 PUSH1 0x0 SWAP1 SLOAD SWAP1 PUSH2 0x100 EXP SWAP1 DIV PUSH1 0xFF AND ISZERO ISZERO EQ PUSH2 0xD29 JUMPI PUSH1 0x40 MLOAD PUSH32 0x8C379A000000000000000000000000000000000000000000000000000000000 DUP2 MSTORE PUSH1 0x4 ADD PUSH2 0xD20 SWAP1 PUSH2 0x1B32 JUMP JUMPDEST PUSH1 0x40 MLOAD DUP1 SWAP2 SUB SWAP1 REVERT JUMPDEST PUSH2 0xD3D PUSH8 0xEB1FFB9FB9D64F95 PUSH1 0xC0 SHL PUSH2 0x3A0 JUMP JUMPDEST PUSH2 0xD51 PUSH8 0xA1B3B05510F42AB4 PUSH1 0xC0 SHL PUSH2 0x3A0 JUMP JUMPDEST PUSH2 0xD65 PUSH8 0xFBBE4A7C13E3BEF0 PUSH1 0xC0 SHL PUSH2 0x3A0 JUMP JUMPDEST PUSH2 0xD79 PUSH8 0xBA0C5DE7D04434F5 PUSH1 0xC0 SHL PUSH2 0x3A0 JUMP JUMPDEST PUSH2 0xD8D PUSH8 0x58892319041E5857 PUSH1 0xC0 SHL PUSH2 0x3A0 JUMP JUMPDEST PUSH2 0xDA1 PUSH8 0x691440A331A105D3 PUSH1 0xC0 SHL PUSH2 0x3A0 JUMP JUMPDEST PUSH1 0x0 PUSH1 0x40 MLOAD DUP1 PUSH1 0x80 ADD PUSH1 0x40 MSTORE DUP1 DUP5 PUSH20 0xFFFFFFFFFFFFFFFFFFFFFFFFFFFFFFFFFFFFFFFF AND DUP2 MSTORE PUSH1 0x20 ADD DUP4 DUP2 MSTORE PUSH1 0x20 ADD PUSH1 0x0 DUP2 MSTORE PUSH1 0x20 ADD PUSH1 0x0 ISZERO ISZERO DUP2 MSTORE POP SWAP1 POP PUSH2 0xDF4 PUSH8 0x2DEBEE46E3BE1D22 PUSH1 0xC0 SHL PUSH2 0x3A0 JUMP JUMPDEST PUSH2 0xE08 PUSH8 0x89138A722B221DB4 PUSH1 0xC0 SHL PUSH2 0x3A0 JUMP JUMPDEST PUSH1 0x0 PUSH1 0x3 DUP1 SLOAD SWAP1 POP SWAP1 POP PUSH2 0xE26 PUSH8 0xD94955C84FF9831A PUSH1 0xC0 SHL PUSH2 0x3A0 JUMP JUMPDEST PUSH2 0xE3A PUSH8 0x2B20992C092B10AC PUSH1 0xC0 SHL PUSH2 0x3A0 JUMP JUMPDEST PUSH1 0x3 DUP3 SWAP1 DUP1 PUSH1 0x1 DUP2 SLOAD ADD DUP1 DUP3 SSTORE DUP1 SWAP2 POP POP PUSH1 0x1 SWAP1 SUB SWAP1 PUSH1 0x0 MSTORE PUSH1 0x20 PUSH1 0x0 KECCAK256 SWAP1 PUSH1 0x4 MUL ADD PUSH1 0x0 SWAP1 SWAP2 SWAP1 SWAP2 SWAP1 SWAP2 POP PUSH1 0x0 DUP3 ADD MLOAD DUP2 PUSH1 0x0 ADD PUSH1 0x0 PUSH2 0x100 EXP DUP2 SLOAD DUP2 PUSH20 0xFFFFFFFFFFFFFFFFFFFFFFFFFFFFFFFFFFFFFFFF MUL NOT AND SWAP1 DUP4 PUSH20 0xFFFFFFFFFFFFFFFFFFFFFFFFFFFFFFFFFFFFFFFF AND MUL OR SWAP1 SSTORE POP PUSH1 0x20 DUP3 ADD MLOAD DUP2 PUSH1 0x1 ADD SSTORE PUSH1 0x40 DUP3 ADD MLOAD DUP2 PUSH1 0x2 ADD SSTORE PUSH1 0x60 DUP3 ADD MLOAD DUP2 PUSH1 0x3 ADD PUSH1 0x0 PUSH2 0x100 EXP DUP2 SLOAD DUP2 PUSH1 0xFF MUL NOT AND SWAP1 DUP4 ISZERO ISZERO MUL OR SWAP1 SSTORE POP POP POP PUSH2 0xEF7 PUSH8 0x24DF23E7ECA3AF0A PUSH1 0xC0 SHL PUSH2 0x3A0 JUMP JUMPDEST PUSH2 0xF0B PUSH8 0x11152F9390F4B53C PUSH1 0xC0 SHL PUSH2 0x3A0 JUMP JUMPDEST DUP4 PUSH20 0xFFFFFFFFFFFFFFFFFFFFFFFFFFFFFFFFFFFFFFFF AND DUP2 CALLER PUSH20 0xFFFFFFFFFFFFFFFFFFFFFFFFFFFFFFFFFFFFFFFF AND PUSH32 0x101A85D062D4F96045D6889441DD96DDA5E818771DF426A14E74D54B0EE9E1CE DUP7 PUSH1 0x40 MLOAD PUSH2 0xF69 SWAP2 SWAP1 PUSH2 0x196F JUMP JUMPDEST PUSH1 0x40 MLOAD DUP1 SWAP2 SUB SWAP1 LOG4 POP POP POP POP JUMP JUMPDEST PUSH1 0x60 PUSH2 0xF8D PUSH8 0x3AF2B05AA8AEDB7F PUSH1 0xC0 SHL PUSH2 0x3A0 JUMP JUMPDEST PUSH2 0xFA1 PUSH8 0xC4B5A91F95D24DF2 PUSH1 0xC0 SHL PUSH2 0x3A0 JUMP JUMPDEST PUSH2 0xFB5 PUSH8 0x3B02F711F5ADF38E PUSH1 0xC0 SHL PUSH2 0x3A0 JUMP JUMPDEST PUSH1 0x3 DUP1 SLOAD DUP1 PUSH1 0x20 MUL PUSH1 0x20 ADD PUSH1 0x40 MLOAD SWAP1 DUP2 ADD PUSH1 0x40 MSTORE DUP1 SWAP3 SWAP2 SWAP1 DUP2 DUP2 MSTORE PUSH1 0x20 ADD PUSH1 0x0 SWAP1 JUMPDEST DUP3 DUP3 LT ISZERO PUSH2 0x108E JUMPI DUP4 DUP3 SWAP1 PUSH1 0x0 MSTORE PUSH1 0x20 PUSH1 0x0 KECCAK256 SWAP1 PUSH1 0x4 MUL ADD PUSH1 0x40 MLOAD DUP1 PUSH1 0x80 ADD PUSH1 0x40 MSTORE SWAP1 DUP2 PUSH1 0x0 DUP3 ADD PUSH1 0x0 SWAP1 SLOAD SWAP1 PUSH2 0x100 EXP SWAP1 DIV PUSH20 0xFFFFFFFFFFFFFFFFFFFFFFFFFFFFFFFFFFFFFFFF AND PUSH20 0xFFFFFFFFFFFFFFFFFFFFFFFFFFFFFFFFFFFFFFFF AND PUSH20 0xFFFFFFFFFFFFFFFFFFFFFFFFFFFFFFFFFFFFFFFF AND DUP2 MSTORE PUSH1 0x20 ADD PUSH1 0x1 DUP3 ADD SLOAD DUP2 MSTORE PUSH1 0x20 ADD PUSH1 0x2 DUP3 ADD SLOAD DUP2 MSTORE PUSH1 0x20 ADD PUSH1 0x3 DUP3 ADD PUSH1 0x0 SWAP1 SLOAD SWAP1 PUSH2 0x100 EXP SWAP1 DIV PUSH1 0xFF AND ISZERO ISZERO ISZERO ISZERO DUP2 MSTORE POP POP DUP2 MSTORE PUSH1 0x20 ADD SWAP1 PUSH1 0x1 ADD SWAP1 PUSH2 0xFD7 JUMP JUMPDEST POP POP POP POP SWAP1 POP SWAP1 JUMP JUMPDEST PUSH1 0x2 PUSH1 0x20 MSTORE DUP2 PUSH1 0x0 MSTORE PUSH1 0x40 PUSH1 0x0 KECCAK256 PUSH1 0x20 MSTORE DUP1 PUSH1 0x0 MSTORE PUSH1 0x40 PUSH1 0x0 KECCAK256 PUSH1 0x0 SWAP2 POP SWAP2 POP SWAP1 SLOAD SWAP1 PUSH2 0x100 EXP SWAP1 DIV PUSH1 0xFF AND DUP2 JUMP JUMPDEST PUSH1 0x3 DUP2 DUP2 SLOAD DUP2 LT PUSH2 0x10D6 JUMPI PUSH1 0x0 DUP1 REVERT JUMPDEST SWAP1 PUSH1 0x0 MSTORE PUSH1 0x20 PUSH1 0x0 KECCAK256 SWAP1 PUSH1 0x4 MUL ADD PUSH1 0x0 SWAP2 POP SWAP1 POP DUP1 PUSH1 0x0 ADD PUSH1 0x0 SWAP1 SLOAD SWAP1 PUSH2 0x100 EXP SWAP1 DIV PUSH20 0xFFFFFFFFFFFFFFFFFFFFFFFFFFFFFFFFFFFFFFFF AND SWAP1 DUP1 PUSH1 0x1 ADD SLOAD SWAP1 DUP1 PUSH1 0x2 ADD SLOAD SWAP1 DUP1 PUSH1 0x3 ADD PUSH1 0x0 SWAP1 SLOAD SWAP1 PUSH2 0x100 EXP SWAP1 DIV PUSH1 0xFF AND SWAP1 POP DUP5 JUMP JUMPDEST PUSH1 0x0 PUSH2 0x1149 PUSH8 0x7D361815F9D2B643 PUSH1 0xC0 SHL PUSH2 0x3A0 JUMP JUMPDEST PUSH2 0x115D PUSH8 0xD888B274CB304F0B PUSH1 0xC0 SHL PUSH2 0x3A0 JUMP JUMPDEST PUSH2 0x1171 PUSH8 0x6940FDCFC6A18BE2 PUSH1 0xC0 SHL PUSH2 0x3A0 JUMP JUMPDEST PUSH1 0x3 DUP1 SLOAD SWAP1 POP SWAP1 POP SWAP1 JUMP JUMPDEST PUSH1 0x0 PUSH2 0x1192 PUSH8 0x46CFCEC8799D054C PUSH1 0xC0 SHL PUSH2 0x3A0 JUMP JUMPDEST PUSH2 0x11A6 PUSH8 0x1759216998CDAB3F PUSH1 0xC0 SHL PUSH2 0x3A0 JUMP JUMPDEST PUSH2 0x11BA PUSH8 0x51088E030D9733B4 PUSH1 0xC0 SHL PUSH2 0x3A0 JUMP JUMPDEST SELFBALANCE SWAP1 POP SWAP1 JUMP JUMPDEST PUSH32 0x0 DUP2 JUMP JUMPDEST PUSH1 0x60 PUSH2 0x11FA PUSH8 0xDA52E8A71FA776CE PUSH1 0xC0 SHL PUSH2 0x3A0 JUMP JUMPDEST PUSH2 0x120E PUSH8 0xE2E4007BEC18EA2E PUSH1 0xC0 SHL PUSH2 0x3A0 JUMP JUMPDEST PUSH2 0x1222 PUSH8 0xEA1A2AFF73C6095E PUSH1 0xC0 SHL PUSH2 0x3A0 JUMP JUMPDEST PUSH1 0x0 DUP1 SLOAD DUP1 PUSH1 0x20 MUL PUSH1 0x20 ADD PUSH1 0x40 MLOAD SWAP1 DUP2 ADD PUSH1 0x40 MSTORE DUP1 SWAP3 SWAP2 SWAP1 DUP2 DUP2 MSTORE PUSH1 0x20 ADD DUP3 DUP1 SLOAD DUP1 ISZERO PUSH2 0x12A4 JUMPI PUSH1 0x20 MUL DUP3 ADD SWAP2 SWAP1 PUSH1 0x0 MSTORE PUSH1 0x20 PUSH1 0x0 KECCAK256 SWAP1 JUMPDEST DUP2 PUSH1 0x0 SWAP1 SLOAD SWAP1 PUSH2 0x100 EXP SWAP1 DIV PUSH20 0xFFFFFFFFFFFFFFFFFFFFFFFFFFFFFFFFFFFFFFFF AND PUSH20 0xFFFFFFFFFFFFFFFFFFFFFFFFFFFFFFFFFFFFFFFF AND DUP2 MSTORE PUSH1 0x20 ADD SWAP1 PUSH1 0x1 ADD SWAP1 DUP1 DUP4 GT PUSH2 0x125A JUMPI JUMPDEST POP POP POP POP POP SWAP1 POP SWAP1 JUMP JUMPDEST PUSH1 0x0 DUP1 PUSH1 0x0 DUP1 PUSH2 0x12C8 PUSH8 0x4DA793E8C23A84F0 PUSH1 0xC0 SHL PUSH2 0x3A0 JUMP JUMPDEST DUP5 PUSH2 0x12DD PUSH8 0x9DC26228891FB105 PUSH1 0xC0 SHL PUSH2 0x3A0 JUMP JUMPDEST PUSH2 0x12F1 PUSH8 0x720430045E880299 PUSH1 0xC0 SHL PUSH2 0x3A0 JUMP JUMPDEST PUSH2 0x1305 PUSH8 0x1431D3AAE02436D8 PUSH1 0xC0 SHL PUSH2 0x3A0 JUMP JUMPDEST PUSH1 0x3 DUP1 SLOAD SWAP1 POP DUP2 LT PUSH2 0x1376 JUMPI PUSH2 0x1325 PUSH8 0x75CE65A8CDA84754 PUSH1 0xC0 SHL PUSH2 0x3A0 JUMP JUMPDEST PUSH2 0x1339 PUSH8 0x19315068DB02C9C8 PUSH1 0xC0 SHL PUSH2 0x3A0 JUMP JUMPDEST DUP1 PUSH1 0x40 MLOAD PUSH32 0xCFCD3B3200000000000000000000000000000000000000000000000000000000 DUP2 MSTORE PUSH1 0x4 ADD PUSH2 0x136D SWAP2 SWAP1 PUSH2 0x196F JUMP JUMPDEST PUSH1 0x40 MLOAD DUP1 SWAP2 SUB SWAP1 REVERT JUMPDEST PUSH2 0x138A PUSH8 0x9F2C9CC2E721B41 PUSH1 0xC0 SHL PUSH2 0x3A0 JUMP JUMPDEST PUSH2 0x139E PUSH8 0xF193D53272E0E636 PUSH1 0xC0 SHL PUSH2 0x3A0 JUMP JUMPDEST PUSH2 0x13B2 PUSH8 0xF4CDC5D720A5B08F PUSH1 0xC0 SHL PUSH2 0x3A0 JUMP JUMPDEST PUSH2 0x13C6 PUSH8 0x5F237427DFA0D552 PUSH1 0xC0 SHL PUSH2 0x3A0 JUMP JUMPDEST PUSH2 0x13DA PUSH8 0x80D69DCD31AF7F0D PUSH1 0xC0 SHL PUSH2 0x3A0 JUMP JUMPDEST PUSH2 0x13EE PUSH8 0x1E8AB7496EF1D512 PUSH1 0xC0 SHL PUSH2 0x3A0 JUMP JUMPDEST PUSH1 0x0 PUSH1 0x3 DUP8 DUP2 SLOAD DUP2 LT PUSH2 0x1404 JUMPI PUSH2 0x1403 PUSH2 0x1B52 JUMP JUMPDEST JUMPDEST SWAP1 PUSH1 0x0 MSTORE PUSH1 0x20 PUSH1 0x0 KECCAK256 SWAP1 PUSH1 0x4 MUL ADD PUSH1 0x40 MLOAD DUP1 PUSH1 0x80 ADD PUSH1 0x40 MSTORE SWAP1 DUP2 PUSH1 0x0 DUP3 ADD PUSH1 0x0 SWAP1 SLOAD SWAP1 PUSH2 0x100 EXP SWAP1 DIV PUSH20 0xFFFFFFFFFFFFFFFFFFFFFFFFFFFFFFFFFFFFFFFF AND PUSH20 0xFFFFFFFFFFFFFFFFFFFFFFFFFFFFFFFFFFFFFFFF AND PUSH20 0xFFFFFFFFFFFFFFFFFFFFFFFFFFFFFFFFFFFFFFFF AND DUP2 MSTORE PUSH1 0x20 ADD PUSH1 0x1 DUP3 ADD SLOAD DUP2 MSTORE PUSH1 0x20 ADD PUSH1 0x2 DUP3 ADD SLOAD DUP2 MSTORE PUSH1 0x20 ADD PUSH1 0x3 DUP3 ADD PUSH1 0x0 SWAP1 SLOAD SWAP1 PUSH2 0x100 EXP SWAP1 DIV PUSH1 0xFF AND ISZERO ISZERO ISZERO ISZERO DUP2 MSTORE POP POP SWAP1 POP PUSH2 0x14B8 PUSH8 0xFE69A2C192E2C70F PUSH1 0xC0 SHL PUSH2 0x3A0 JUMP JUMPDEST PUSH2 0x14CC PUSH8 0x12557A5B360DF5D4 PUSH1 0xC0 SHL PUSH2 0x3A0 JUMP JUMPDEST DUP1 PUSH1 0x0 ADD MLOAD DUP2 PUSH1 0x20 ADD MLOAD DUP3 PUSH1 0x40 ADD MLOAD DUP4 PUSH1 0x60 ADD MLOAD SWAP6 POP SWAP6 POP SWAP6 POP SWAP6 POP POP POP SWAP2 SWAP4 POP SWAP2 SWAP4 JUMP JUMPDEST PUSH2 0x1505 PUSH8 0xE2958DE8621DA7CF PUSH1 0xC0 SHL PUSH2 0x3A0 JUMP JUMPDEST PUSH2 0x1519 PUSH8 0x8E37AE7586CFE302 PUSH1 0xC0 SHL PUSH2 0x3A0 JUMP JUMPDEST PUSH2 0x152D PUSH8 0x590EAAB18DE84095 PUSH1 0xC0 SHL PUSH2 0x3A0 JUMP JUMPDEST CALLER PUSH20 0xFFFFFFFFFFFFFFFFFFFFFFFFFFFFFFFFFFFFFFFF AND PUSH32 0x90890809C654F11D6E72A28FA60149770A0D11EC6C92319D6CEB2BB0A4EA1A15 CALLVALUE SELFBALANCE PUSH1 0x40 MLOAD PUSH2 0x1575 SWAP3 SWAP2 SWAP1 PUSH2 0x1598 JUMP JUMPDEST PUSH1 0x40 MLOAD DUP1 SWAP2 SUB SWAP1 LOG2 JUMP JUMPDEST PUSH1 0x0 DUP2 SWAP1 POP SWAP2 SWAP1 POP JUMP JUMPDEST PUSH2 0x1592 DUP2 PUSH2 0x157F JUMP JUMPDEST DUP3 MSTORE POP POP JUMP JUMPDEST PUSH1 0x0 PUSH1 0x40 DUP3 ADD SWAP1 POP PUSH2 0x15AD PUSH1 0x0 DUP4 ADD DUP6 PUSH2 0x1589 JUMP JUMPDEST PUSH2 0x15BA PUSH1 0x20 DUP4 ADD DUP5 PUSH2 0x1589 JUMP JUMPDEST SWAP4 SWAP3 POP POP POP JUMP JUMPDEST PUSH1 0x0 DUP1 REVERT JUMPDEST PUSH2 0x15CF DUP2 PUSH2 0x157F JUMP JUMPDEST DUP2 EQ PUSH2 0x15DA JUMPI PUSH1 0x0 DUP1 REVERT JUMPDEST POP JUMP JUMPDEST PUSH1 0x0 DUP2 CALLDATALOAD SWAP1 POP PUSH2 0x15EC DUP2 PUSH2 0x15C6 JUMP JUMPDEST SWAP3 SWAP2 POP POP JUMP JUMPDEST PUSH1 0x0 PUSH1 0x20 DUP3 DUP5 SUB SLT ISZERO PUSH2 0x1608 JUMPI PUSH2 0x1607 PUSH2 0x15C1 JUMP JUMPDEST JUMPDEST PUSH1 0x0 PUSH2 0x1616 DUP5 DUP3 DUP6 ADD PUSH2 0x15DD JUMP JUMPDEST SWAP2 POP POP SWAP3 SWAP2 POP POP JUMP JUMPDEST PUSH1 0x0 PUSH20 0xFFFFFFFFFFFFFFFFFFFFFFFFFFFFFFFFFFFFFFFF DUP3 AND SWAP1 POP SWAP2 SWAP1 POP JUMP JUMPDEST PUSH1 0x0 PUSH2 0x164A DUP3 PUSH2 0x161F JUMP JUMPDEST SWAP1 POP SWAP2 SWAP1 POP JUMP JUMPDEST PUSH2 0x165A DUP2 PUSH2 0x163F JUMP JUMPDEST DUP3 MSTORE POP POP JUMP JUMPDEST PUSH1 0x0 PUSH1 0x20 DUP3 ADD SWAP1 POP PUSH2 0x1675 PUSH1 0x0 DUP4 ADD DUP5 PUSH2 0x1651 JUMP JUMPDEST SWAP3 SWAP2 POP POP JUMP JUMPDEST PUSH2 0x1684 DUP2 PUSH2 0x163F JUMP JUMPDEST DUP2 EQ PUSH2 0x168F JUMPI PUSH1 0x0 DUP1 REVERT JUMPDEST POP JUMP JUMPDEST PUSH1 0x0 DUP2 CALLDATALOAD SWAP1 POP PUSH2 0x16A1 DUP2 PUSH2 0x167B JUMP JUMPDEST SWAP3 SWAP2 POP POP JUMP JUMPDEST PUSH1 0x0 PUSH1 0x20 DUP3 DUP5 SUB SLT ISZERO PUSH2 0x16BD JUMPI PUSH2 0x16BC PUSH2 0x15C1 JUMP JUMPDEST JUMPDEST PUSH1 0x0 PUSH2 0x16CB DUP5 DUP3 DUP6 ADD PUSH2 0x1692 JUMP JUMPDEST SWAP2 POP POP SWAP3 SWAP2 POP POP JUMP JUMPDEST PUSH1 0x0 DUP2 ISZERO ISZERO SWAP1 POP SWAP2 SWAP1 POP JUMP JUMPDEST PUSH2 0x16E9 DUP2 PUSH2 0x16D4 JUMP JUMPDEST DUP3 MSTORE POP POP JUMP JUMPDEST PUSH1 0x0 PUSH1 0x20 DUP3 ADD SWAP1 POP PUSH2 0x1704 PUSH1 0x0 DUP4 ADD DUP5 PUSH2 0x16E0 JUMP JUMPDEST SWAP3 SWAP2 POP POP JUMP JUMPDEST PUSH1 0x0 PUSH2 0x1715 DUP3 PUSH2 0x161F JUMP JUMPDEST SWAP1 POP SWAP2 SWAP1 POP JUMP JUMPDEST PUSH2 0x1725 DUP2 PUSH2 0x170A JUMP JUMPDEST DUP2 EQ PUSH2 0x1730 JUMPI PUSH1 0x0 DUP1 REVERT JUMPDEST POP JUMP JUMPDEST PUSH1 0x0 DUP2 CALLDATALOAD SWAP1 POP PUSH2 0x1742 DUP2 PUSH2 0x171C JUMP JUMPDEST SWAP3 SWAP2 POP POP JUMP JUMPDEST PUSH1 0x0 DUP1 PUSH1 0x40 DUP4 DUP6 SUB SLT ISZERO PUSH2 0x175F JUMPI PUSH2 0x175E PUSH2 0x15C1 JUMP JUMPDEST JUMPDEST PUSH1 0x0 PUSH2 0x176D DUP6 DUP3 DUP7 ADD PUSH2 0x1733 JUMP JUMPDEST SWAP3 POP POP PUSH1 0x20 PUSH2 0x177E DUP6 DUP3 DUP7 ADD PUSH2 0x15DD JUMP JUMPDEST SWAP2 POP POP SWAP3 POP SWAP3 SWAP1 POP JUMP JUMPDEST PUSH1 0x0 DUP2 MLOAD SWAP1 POP SWAP2 SWAP1 POP JUMP JUMPDEST PUSH1 0x0 DUP3 DUP3 MSTORE PUSH1 0x20 DUP3 ADD SWAP1 POP SWAP3 SWAP2 POP POP JUMP JUMPDEST PUSH1 0x0 DUP2 SWAP1 POP PUSH1 0x20 DUP3 ADD SWAP1 POP SWAP2 SWAP1 POP JUMP JUMPDEST PUSH2 0x17BD DUP2 PUSH2 0x170A JUMP JUMPDEST DUP3 MSTORE POP POP JUMP JUMPDEST PUSH2 0x17CC DUP2 PUSH2 0x157F JUMP JUMPDEST DUP3 MSTORE POP POP JUMP JUMPDEST PUSH2 0x17DB DUP2 PUSH2 0x16D4 JUMP JUMPDEST DUP3 MSTORE POP POP JUMP JUMPDEST PUSH1 0x80 DUP3 ADD PUSH1 0x0 DUP3 ADD MLOAD PUSH2 0x17F7 PUSH1 0x0 DUP6 ADD DUP3 PUSH2 0x17B4 JUMP JUMPDEST POP PUSH1 0x20 DUP3 ADD MLOAD PUSH2 0x180A PUSH1 0x20 DUP6 ADD DUP3 PUSH2 0x17C3 JUMP JUMPDEST POP PUSH1 0x40 DUP3 ADD MLOAD PUSH2 0x181D PUSH1 0x40 DUP6 ADD DUP3 PUSH2 0x17C3 JUMP JUMPDEST POP PUSH1 0x60 DUP3 ADD MLOAD PUSH2 0x1830 PUSH1 0x60 DUP6 ADD DUP3 PUSH2 0x17D2 JUMP JUMPDEST POP POP POP POP JUMP JUMPDEST PUSH1 0x0 PUSH2 0x1842 DUP4 DUP4 PUSH2 0x17E1 JUMP JUMPDEST PUSH1 0x80 DUP4 ADD SWAP1 POP SWAP3 SWAP2 POP POP JUMP JUMPDEST PUSH1 0x0 PUSH1 0x20 DUP3 ADD SWAP1 POP SWAP2 SWAP1 POP JUMP JUMPDEST PUSH1 0x0 PUSH2 0x1866 DUP3 PUSH2 0x1788 JUMP JUMPDEST PUSH2 0x1870 DUP2 DUP6 PUSH2 0x1793 JUMP JUMPDEST SWAP4 POP PUSH2 0x187B DUP4 PUSH2 0x17A4 JUMP JUMPDEST DUP1 PUSH1 0x0 JUMPDEST DUP4 DUP2 LT ISZERO PUSH2 0x18AC JUMPI DUP2 MLOAD PUSH2 0x1893 DUP9 DUP3 PUSH2 0x1836 JUMP JUMPDEST SWAP8 POP PUSH2 0x189E DUP4 PUSH2 0x184E JUMP JUMPDEST SWAP3 POP POP PUSH1 0x1 DUP2 ADD SWAP1 POP PUSH2 0x187F JUMP JUMPDEST POP DUP6 SWAP4 POP POP POP POP SWAP3 SWAP2 POP POP JUMP JUMPDEST PUSH1 0x0 PUSH1 0x20 DUP3 ADD SWAP1 POP DUP2 DUP2 SUB PUSH1 0x0 DUP4 ADD MSTORE PUSH2 0x18D3 DUP2 DUP5 PUSH2 0x185B JUMP JUMPDEST SWAP1 POP SWAP3 SWAP2 POP POP JUMP JUMPDEST PUSH1 0x0 DUP1 PUSH1 0x40 DUP4 DUP6 SUB SLT ISZERO PUSH2 0x18F2 JUMPI PUSH2 0x18F1 PUSH2 0x15C1 JUMP JUMPDEST JUMPDEST PUSH1 0x0 PUSH2 0x1900 DUP6 DUP3 DUP7 ADD PUSH2 0x15DD JUMP JUMPDEST SWAP3 POP POP PUSH1 0x20 PUSH2 0x1911 DUP6 DUP3 DUP7 ADD PUSH2 0x1692 JUMP JUMPDEST SWAP2 POP POP SWAP3 POP SWAP3 SWAP1 POP JUMP JUMPDEST PUSH2 0x1924 DUP2 PUSH2 0x170A JUMP JUMPDEST DUP3 MSTORE POP POP JUMP JUMPDEST PUSH1 0x0 PUSH1 0x80 DUP3 ADD SWAP1 POP PUSH2 0x193F PUSH1 0x0 DUP4 ADD DUP8 PUSH2 0x191B JUMP JUMPDEST PUSH2 0x194C PUSH1 0x20 DUP4 ADD DUP7 PUSH2 0x1589 JUMP JUMPDEST PUSH2 0x1959 PUSH1 0x40 DUP4 ADD DUP6 PUSH2 0x1589 JUMP JUMPDEST PUSH2 0x1966 PUSH1 0x60 DUP4 ADD DUP5 PUSH2 0x16E0 JUMP JUMPDEST SWAP6 SWAP5 POP POP POP POP POP JUMP JUMPDEST PUSH1 0x0 PUSH1 0x20 DUP3 ADD SWAP1 POP PUSH2 0x1984 PUSH1 0x0 DUP4 ADD DUP5 PUSH2 0x1589 JUMP JUMPDEST SWAP3 SWAP2 POP POP JUMP JUMPDEST PUSH1 0x0 DUP2 MLOAD SWAP1 POP SWAP2 SWAP1 POP JUMP JUMPDEST PUSH1 0x0 DUP3 DUP3 MSTORE PUSH1 0x20 DUP3 ADD SWAP1 POP SWAP3 SWAP2 POP POP JUMP JUMPDEST PUSH1 0x0 DUP2 SWAP1 POP PUSH1 0x20 DUP3 ADD SWAP1 POP SWAP2 SWAP1 POP JUMP JUMPDEST PUSH2 0x19BF DUP2 PUSH2 0x163F JUMP JUMPDEST DUP3 MSTORE POP POP JUMP JUMPDEST PUSH1 0x0 PUSH2 0x19D1 DUP4 DUP4 PUSH2 0x19B6 JUMP JUMPDEST PUSH1 0x20 DUP4 ADD SWAP1 POP SWAP3 SWAP2 POP POP JUMP JUMPDEST PUSH1 0x0 PUSH1 0x20 DUP3 ADD SWAP1 POP SWAP2 SWAP1 POP JUMP JUMPDEST PUSH1 0x0 PUSH2 0x19F5 DUP3 PUSH2 0x198A JUMP JUMPDEST PUSH2 0x19FF DUP2 DUP6 PUSH2 0x1995 JUMP JUMPDEST SWAP4 POP PUSH2 0x1A0A DUP4 PUSH2 0x19A6 JUMP JUMPDEST DUP1 PUSH1 0x0 JUMPDEST DUP4 DUP2 LT ISZERO PUSH2 0x1A3B JUMPI DUP2 MLOAD PUSH2 0x1A22 DUP9 DUP3 PUSH2 0x19C5 JUMP JUMPDEST SWAP8 POP PUSH2 0x1A2D DUP4 PUSH2 0x19DD JUMP JUMPDEST SWAP3 POP POP PUSH1 0x1 DUP2 ADD SWAP1 POP PUSH2 0x1A0E JUMP JUMPDEST POP DUP6 SWAP4 POP POP POP POP SWAP3 SWAP2 POP POP JUMP JUMPDEST PUSH1 0x0 PUSH1 0x20 DUP3 ADD SWAP1 POP DUP2 DUP2 SUB PUSH1 0x0 DUP4 ADD MSTORE PUSH2 0x1A62 DUP2 DUP5 PUSH2 0x19EA JUMP JUMPDEST SWAP1 POP SWAP3 SWAP2 POP POP JUMP JUMPDEST PUSH1 0x0 PUSH1 0x80 DUP3 ADD SWAP1 POP PUSH2 0x1A7F PUSH1 0x0 DUP4 ADD DUP8 PUSH2 0x1651 JUMP JUMPDEST PUSH2 0x1A8C PUSH1 0x20 DUP4 ADD DUP7 PUSH2 0x1589 JUMP JUMPDEST PUSH2 0x1A99 PUSH1 0x40 DUP4 ADD DUP6 PUSH2 0x1589 JUMP JUMPDEST PUSH2 0x1AA6 PUSH1 0x60 DUP4 ADD DUP5 PUSH2 0x16E0 JUMP JUMPDEST SWAP6 SWAP5 POP POP POP POP POP JUMP JUMPDEST PUSH1 0x0 DUP3 DUP3 MSTORE PUSH1 0x20 DUP3 ADD SWAP1 POP SWAP3 SWAP2 POP POP JUMP JUMPDEST PUSH32 0x41646472657373206D757374206265206F6E65206F6620746865206F776E6572 PUSH1 0x0 DUP3 ADD MSTORE PUSH32 0x7300000000000000000000000000000000000000000000000000000000000000 PUSH1 0x20 DUP3 ADD MSTORE POP JUMP JUMPDEST PUSH1 0x0 PUSH2 0x1B1C PUSH1 0x21 DUP4 PUSH2 0x1AAF JUMP JUMPDEST SWAP2 POP PUSH2 0x1B27 DUP3 PUSH2 0x1AC0 JUMP JUMPDEST PUSH1 0x40 DUP3 ADD SWAP1 POP SWAP2 SWAP1 POP JUMP JUMPDEST PUSH1 0x0 PUSH1 0x20 DUP3 ADD SWAP1 POP DUP2 DUP2 SUB PUSH1 0x0 DUP4 ADD MSTORE PUSH2 0x1B4B DUP2 PUSH2 0x1B0F JUMP JUMPDEST SWAP1 POP SWAP2 SWAP1 POP JUMP JUMPDEST PUSH32 0x4E487B7100000000000000000000000000000000000000000000000000000000 PUSH1 0x0 MSTORE PUSH1 0x32 PUSH1 0x4 MSTORE PUSH1 0x24 PUSH1 0x0 REVERT JUMPDEST PUSH32 0x4E487B7100000000000000000000000000000000000000000000000000000000 PUSH1 0x0 MSTORE PUSH1 0x11 PUSH1 0x4 MSTORE PUSH1 0x24 PUSH1 0x0 REVERT JUMPDEST PUSH1 0x0 PUSH2 0x1BBB DUP3 PUSH2 0x157F JUMP JUMPDEST SWAP2 POP PUSH2 0x1BC6 DUP4 PUSH2 0x157F JUMP JUMPDEST SWAP3 POP DUP3 DUP3 ADD SWAP1 POP DUP1 DUP3 GT ISZERO PUSH2 0x1BDE JUMPI PUSH2 0x1BDD PUSH2 0x1B81 JUMP JUMPDEST JUMPDEST SWAP3 SWAP2 POP POP JUMP JUMPDEST PUSH1 0x0 DUP2 SWAP1 POP SWAP3 SWAP2 POP POP JUMP JUMPDEST POP JUMP JUMPDEST PUSH1 0x0 PUSH2 0x1BFF PUSH1 0x0 DUP4 PUSH2 0x1BE4 JUMP JUMPDEST SWAP2 POP PUSH2 0x1C0A DUP3 PUSH2 0x1BEF JUMP JUMPDEST PUSH1 0x0 DUP3 ADD SWAP1 POP SWAP2 SWAP1 POP JUMP JUMPDEST PUSH1 0x0 PUSH2 0x1C20 DUP3 PUSH2 0x1BF2 JUMP JUMPDEST SWAP2 POP DUP2 SWAP1 POP SWAP2 SWAP1 POP JUMP JUMPDEST PUSH32 0x7472616E73616374696F6E206661696C65640000000000000000000000000000 PUSH1 0x0 DUP3 ADD MSTORE POP JUMP JUMPDEST PUSH1 0x0 PUSH2 0x1C60 PUSH1 0x12 DUP4 PUSH2 0x1AAF JUMP JUMPDEST SWAP2 POP PUSH2 0x1C6B DUP3 PUSH2 0x1C2A JUMP JUMPDEST PUSH1 0x20 DUP3 ADD SWAP1 POP SWAP2 SWAP1 POP JUMP JUMPDEST PUSH1 0x0 PUSH1 0x20 DUP3 ADD SWAP1 POP DUP2 DUP2 SUB PUSH1 0x0 DUP4 ADD MSTORE PUSH2 0x1C8F DUP2 PUSH2 0x1C53 JUMP JUMPDEST SWAP1 POP SWAP2 SWAP1 POP JUMP INVALID LOG2 PUSH5 0x6970667358 0x22 SLT KECCAK256 PUSH11 0xCDFC3692E4808FCCBF8BC CALLDATALOAD SWAP16 EXP JUMPI NUMBER MUL 0xAC 0xD3 SGT PUSH31 0xB6D7B50FF5E5B02D3E2E64736F6C6343000817003300000000000000000000 "},"methodIdentifiers":{"createNewWallet(address[],uint256)":"cebac5e3","getWalletCount()":"745bd5a2","getWalletList()":"fc9ffe02","walletArray(uint256)":"d2de5072"}}}}}