{
  "_format": "hh-sol-artifact-1",
  "contractName": "Factory",
  "sourceName": "contracts/Factory.sol",
  "abi": [
    {
      "inputs": [
        {
          "internalType": "address[]",
          "name": "_addresses",
          "type": "address[]"
        },
        {
          "internalType": "uint256",
          "name": "_quorem",
          "type": "uint256"
        }
      ],
      "stateMutability": "nonpayable",
      "type": "constructor"
    },
    {
      "anonymous": false,
      "inputs": [
        {
          "indexed": false,
          "internalType": "uint256",
          "name": "index",
          "type": "uint256"
        },
        {
          "indexed": true,
          "internalType": "address",
          "name": "sender",
          "type": "address"
        }
      ],
      "name": "WalletCreated",
      "type": "event"
    },
    {
      "inputs": [
        {
          "internalType": "address[]",
          "name": "_addresses",
          "type": "address[]"
        },
        {
          "internalType": "uint256",
          "name": "_quorem",
          "type": "uint256"
        }
      ],
      "name": "createNewWallet",
      "outputs": [],
      "stateMutability": "nonpayable",
      "type": "function"
    },
    {
      "inputs": [],
      "name": "getWalletCount",
      "outputs": [
        {
          "internalType": "uint256",
          "name": "",
          "type": "uint256"
        }
      ],
      "stateMutability": "view",
      "type": "function"
    },
    {
      "inputs": [],
      "name": "getWalletList",
      "outputs": [
        {
          "internalType": "address[]",
          "name": "",
          "type": "address[]"
        }
      ],
      "stateMutability": "view",
      "type": "function"
    },
    {
      "inputs": [
        {
          "internalType": "uint256",
          "name": "",
          "type": "uint256"
        }
      ],
      "name": "walletArray",
      "outputs": [
        {
          "internalType": "contract MultiSigWallet",
          "name": "",
          "type": "address"
        }
      ],
      "stateMutability": "view",
      "type": "function"
    }
  ],
  "bytecode": "0x60806040523480156200001157600080fd5b50604051620046f1380380620046f1833981810160405281019062000037919062000389565b6200004982826200005160201b60201c565b50506200051f565b60008282604051620000639062000152565b62000070929190620004ce565b604051809103906000f0801580156200008d573d6000803e3d6000fd5b5090506000808054905090506000829080600181540180825580915050600190039060005260206000200160009091909190916101000a81548173ffffffffffffffffffffffffffffffffffffffff021916908373ffffffffffffffffffffffffffffffffffffffff1602179055503373ffffffffffffffffffffffffffffffffffffffff167f470292d5e9c87e6d5a100a14c56a434c9f25e9e2be1d5efa70c3b5f9aeda505f8260405162000144919062000502565b60405180910390a250505050565b611cb28062002a3f83390190565b6000604051905090565b600080fd5b600080fd5b600080fd5b6000601f19601f8301169050919050565b7f4e487b7100000000000000000000000000000000000000000000000000000000600052604160045260246000fd5b620001c48262000179565b810181811067ffffffffffffffff82111715620001e657620001e56200018a565b5b80604052505050565b6000620001fb62000160565b9050620002098282620001b9565b919050565b600067ffffffffffffffff8211156200022c576200022b6200018a565b5b602082029050602081019050919050565b600080fd5b600073ffffffffffffffffffffffffffffffffffffffff82169050919050565b60006200026f8262000242565b9050919050565b620002818162000262565b81146200028d57600080fd5b50565b600081519050620002a18162000276565b92915050565b6000620002be620002b8846200020e565b620001ef565b90508083825260208201905060208402830185811115620002e457620002e36200023d565b5b835b81811015620003115780620002fc888262000290565b845260208401935050602081019050620002e6565b5050509392505050565b600082601f83011262000333576200033262000174565b5b815162000345848260208601620002a7565b91505092915050565b6000819050919050565b62000363816200034e565b81146200036f57600080fd5b50565b600081519050620003838162000358565b92915050565b60008060408385031215620003a357620003a26200016a565b5b600083015167ffffffffffffffff811115620003c457620003c36200016f565b5b620003d2858286016200031b565b9250506020620003e58582860162000372565b9150509250929050565b600081519050919050565b600082825260208201905092915050565b6000819050602082019050919050565b620004268162000262565b82525050565b60006200043a83836200041b565b60208301905092915050565b6000602082019050919050565b60006200046082620003ef565b6200046c8185620003fa565b935062000479836200040b565b8060005b83811015620004b05781516200049488826200042c565b9750620004a18362000446565b9250506001810190506200047d565b5085935050505092915050565b620004c8816200034e565b82525050565b60006040820190508181036000830152620004ea818562000453565b9050620004fb6020830184620004bd565b9392505050565b6000602082019050620005196000830184620004bd565b92915050565b612510806200052f6000396000f3fe60806040523480156200001157600080fd5b5060043610620000525760003560e01c8063745bd5a21462000057578063cebac5e31462000079578063d2de50721462000099578063fc9ffe0214620000cf575b600080fd5b62000061620000f1565b60405162000070919062000377565b60405180910390f35b620000976004803603810190620000919190620005b3565b620000fd565b005b620000b76004803603810190620000b1919062000619565b620001fe565b604051620000c69190620006b6565b60405180910390f35b620000d96200023e565b604051620000e89190620007a1565b60405180910390f35b60008080549050905090565b600082826040516200010f906200034e565b6200011c929190620007c5565b604051809103906000f08015801562000139573d6000803e3d6000fd5b5090506000808054905090506000829080600181540180825580915050600190039060005260206000200160009091909190916101000a81548173ffffffffffffffffffffffffffffffffffffffff021916908373ffffffffffffffffffffffffffffffffffffffff1602179055503373ffffffffffffffffffffffffffffffffffffffff167f470292d5e9c87e6d5a100a14c56a434c9f25e9e2be1d5efa70c3b5f9aeda505f82604051620001f0919062000377565b60405180910390a250505050565b600081815481106200020f57600080fd5b906000526020600020016000915054906101000a900473ffffffffffffffffffffffffffffffffffffffff1681565b60606000808054905067ffffffffffffffff811115620002635762000262620003be565b5b604051908082528060200260200182016040528015620002925781602001602082028036833780820191505090505b50905060005b600080549050811015620003465760008181548110620002bd57620002bc620007f9565b5b9060005260206000200160009054906101000a900473ffffffffffffffffffffffffffffffffffffffff16828281518110620002fe57620002fd620007f9565b5b602002602001019073ffffffffffffffffffffffffffffffffffffffff16908173ffffffffffffffffffffffffffffffffffffffff1681525050808060010191505062000298565b508091505090565b611cb2806200082983390190565b6000819050919050565b62000371816200035c565b82525050565b60006020820190506200038e600083018462000366565b92915050565b6000604051905090565b600080fd5b600080fd5b600080fd5b6000601f19601f8301169050919050565b7f4e487b7100000000000000000000000000000000000000000000000000000000600052604160045260246000fd5b620003f882620003ad565b810181811067ffffffffffffffff821117156200041a5762000419620003be565b5b80604052505050565b60006200042f62000394565b90506200043d8282620003ed565b919050565b600067ffffffffffffffff82111562000460576200045f620003be565b5b602082029050602081019050919050565b600080fd5b600073ffffffffffffffffffffffffffffffffffffffff82169050919050565b6000620004a38262000476565b9050919050565b620004b58162000496565b8114620004c157600080fd5b50565b600081359050620004d581620004aa565b92915050565b6000620004f2620004ec8462000442565b62000423565b9050808382526020820190506020840283018581111562000518576200051762000471565b5b835b81811015620005455780620005308882620004c4565b8452602084019350506020810190506200051a565b5050509392505050565b600082601f830112620005675762000566620003a8565b5b813562000579848260208601620004db565b91505092915050565b6200058d816200035c565b81146200059957600080fd5b50565b600081359050620005ad8162000582565b92915050565b60008060408385031215620005cd57620005cc6200039e565b5b600083013567ffffffffffffffff811115620005ee57620005ed620003a3565b5b620005fc858286016200054f565b92505060206200060f858286016200059c565b9150509250929050565b6000602082840312156200063257620006316200039e565b5b600062000642848285016200059c565b91505092915050565b6000819050919050565b600062000676620006706200066a8462000476565b6200064b565b62000476565b9050919050565b60006200068a8262000655565b9050919050565b60006200069e826200067d565b9050919050565b620006b08162000691565b82525050565b6000602082019050620006cd6000830184620006a5565b92915050565b600081519050919050565b600082825260208201905092915050565b6000819050602082019050919050565b6200070a8162000496565b82525050565b60006200071e8383620006ff565b60208301905092915050565b6000602082019050919050565b60006200074482620006d3565b620007508185620006de565b93506200075d83620006ef565b8060005b838110156200079457815162000778888262000710565b975062000785836200072a565b92505060018101905062000761565b5085935050505092915050565b60006020820190508181036000830152620007bd818462000737565b905092915050565b60006040820190508181036000830152620007e1818562000737565b9050620007f2602083018462000366565b9392505050565b7f4e487b7100000000000000000000000000000000000000000000000000000000600052603260045260246000fdfe60a06040523480156200001157600080fd5b5060405162001cb238038062001cb2833981810160405281019062000037919062000506565b60008251116200007e576040517f08c379a00000000000000000000000000000000000000000000000000000000081526004016200007590620005cd565b60405180910390fd5b60008111801562000090575081518111155b620000d2576040517f08c379a0000000000000000000000000000000000000000000000000000000008152600401620000c99062000665565b60405180910390fd5b60005b8251811015620002cc576000838281518110620000f757620000f662000687565b5b60200260200101519050600073ffffffffffffffffffffffffffffffffffffffff168173ffffffffffffffffffffffffffffffffffffffff160362000173576040517f08c379a00000000000000000000000000000000000000000000000000000000081526004016200016a9062000706565b60405180910390fd5b600160008273ffffffffffffffffffffffffffffffffffffffff1673ffffffffffffffffffffffffffffffffffffffff16815260200190815260200160002060009054906101000a900460ff161562000203576040517f08c379a0000000000000000000000000000000000000000000000000000000008152600401620001fa9062000778565b60405180910390fd5b60018060008373ffffffffffffffffffffffffffffffffffffffff1673ffffffffffffffffffffffffffffffffffffffff16815260200190815260200160002060006101000a81548160ff0219169083151502179055506000819080600181540180825580915050600190039060005260206000200160009091909190916101000a81548173ffffffffffffffffffffffffffffffffffffffff021916908373ffffffffffffffffffffffffffffffffffffffff160217905550508080600101915050620000d5565b50806080818152505050506200079a565b6000604051905090565b600080fd5b600080fd5b600080fd5b6000601f19601f8301169050919050565b7f4e487b7100000000000000000000000000000000000000000000000000000000600052604160045260246000fd5b6200034182620002f6565b810181811067ffffffffffffffff8211171562000363576200036262000307565b5b80604052505050565b600062000378620002dd565b905062000386828262000336565b919050565b600067ffffffffffffffff821115620003a957620003a862000307565b5b602082029050602081019050919050565b600080fd5b600073ffffffffffffffffffffffffffffffffffffffff82169050919050565b6000620003ec82620003bf565b9050919050565b620003fe81620003df565b81146200040a57600080fd5b50565b6000815190506200041e81620003f3565b92915050565b60006200043b62000435846200038b565b6200036c565b90508083825260208201905060208402830185811115620004615762000460620003ba565b5b835b818110156200048e57806200047988826200040d565b84526020840193505060208101905062000463565b5050509392505050565b600082601f830112620004b057620004af620002f1565b5b8151620004c284826020860162000424565b91505092915050565b6000819050919050565b620004e081620004cb565b8114620004ec57600080fd5b50565b6000815190506200050081620004d5565b92915050565b6000806040838503121562000520576200051f620002e7565b5b600083015167ffffffffffffffff811115620005415762000540620002ec565b5b6200054f8582860162000498565b92505060206200056285828601620004ef565b9150509250929050565b600082825260208201905092915050565b7f6f776e6572732072657175697265640000000000000000000000000000000000600082015250565b6000620005b5600f836200056c565b9150620005c2826200057d565b602082019050919050565b60006020820190508181036000830152620005e881620005a6565b9050919050565b7f696e76616c6964206e756d626572206f662072657175697265642071756f727560008201527f6d00000000000000000000000000000000000000000000000000000000000000602082015250565b60006200064d6021836200056c565b91506200065a82620005ef565b604082019050919050565b6000602082019050818103600083015262000680816200063e565b9050919050565b7f4e487b7100000000000000000000000000000000000000000000000000000000600052603260045260246000fd5b7f696e76616c6964206f776e657200000000000000000000000000000000000000600082015250565b6000620006ee600d836200056c565b9150620006fb82620006b6565b602082019050919050565b600060208201905081810360008301526200072181620006df565b9050919050565b7f6f776e6572206e6f7420756e6971756500000000000000000000000000000000600082015250565b6000620007606010836200056c565b91506200076d8262000728565b602082019050919050565b60006020820190508181036000830152620007938162000751565b9050919050565b6080516114f5620007bd6000396000818161066c0152610b7b01526114f56000f3fe6080604052600436106100c65760003560e01c80635cc070761161007f5780639522059c116100595780639522059c146102ec578063a0e67e2b14610317578063a9d3106614610342578063d0e30db0146103825761011d565b80635cc07076146102565780636747dad714610296578063722713f7146102c15761011d565b8063025e7c27146101225780631b671a401461015f5780632f54bf6e146101885780633ebae36f146101c55780634b465d74146101ee57806356c31637146102195761011d565b3661011d573373ffffffffffffffffffffffffffffffffffffffff167f90890809c654f11d6e72a28fa60149770a0d11ec6c92319d6ceb2bb0a4ea1a153447604051610113929190610dc1565b60405180910390a2005b600080fd5b34801561012e57600080fd5b5061014960048036038101906101449190610e1b565b61038c565b6040516101569190610e89565b60405180910390f35b34801561016b57600080fd5b5061018660048036038101906101819190610e1b565b6103cb565b005b34801561019457600080fd5b506101af60048036038101906101aa9190610ed0565b6107d3565b6040516101bc9190610f18565b60405180910390f35b3480156101d157600080fd5b506101ec60048036038101906101e79190610f71565b6107f3565b005b3480156101fa57600080fd5b506102036109e4565b60405161021091906110e2565b60405180910390f35b34801561022557600080fd5b50610240600480360381019061023b9190611104565b610ac8565b60405161024d9190610f18565b60405180910390f35b34801561026257600080fd5b5061027d60048036038101906102789190610e1b565b610af7565b60405161028d9493929190611153565b60405180910390f35b3480156102a257600080fd5b506102ab610b64565b6040516102b89190611198565b60405180910390f35b3480156102cd57600080fd5b506102d6610b71565b6040516102e39190611198565b60405180910390f35b3480156102f857600080fd5b50610301610b79565b60405161030e9190611198565b60405180910390f35b34801561032357600080fd5b5061032c610b9d565b6040516103399190611271565b60405180910390f35b34801561034e57600080fd5b5061036960048036038101906103649190610e1b565b610c2b565b6040516103799493929190611293565b60405180910390f35b61038a610d56565b005b6000818154811061039c57600080fd5b906000526020600020016000915054906101000a900473ffffffffffffffffffffffffffffffffffffffff1681565b60011515600160003373ffffffffffffffffffffffffffffffffffffffff1673ffffffffffffffffffffffffffffffffffffffff16815260200190815260200160002060009054906101000a900460ff1615151461045e576040517f08c379a00000000000000000000000000000000000000000000000000000000081526004016104559061135b565b60405180910390fd5b8060038054905081106104a857806040517fcfcd3b3200000000000000000000000000000000000000000000000000000000815260040161049f9190611198565b60405180910390fd5b816002600082815260200190815260200160002060003373ffffffffffffffffffffffffffffffffffffffff1673ffffffffffffffffffffffffffffffffffffffff16815260200190815260200160002060009054906101000a900460ff161561054957806040517f6b771e4a0000000000000000000000000000000000000000000000000000000081526004016105409190611198565b60405180910390fd5b826003818154811061055e5761055d61137b565b5b906000526020600020906004020160030160009054906101000a900460ff16156105bf57806040517f1b344ee70000000000000000000000000000000000000000000000000000000081526004016105b69190611198565b60405180910390fd5b60016002600086815260200190815260200160002060003373ffffffffffffffffffffffffffffffffffffffff1673ffffffffffffffffffffffffffffffffffffffff16815260200190815260200160002060006101000a81548160ff02191690831515021790555060006003858154811061063e5761063d61137b565b5b90600052602060002090600402019050600181600201600082825461066391906113d9565b925050819055507f00000000000000000000000000000000000000000000000000000000000000008160020154106107cc5760018160030160006101000a81548160ff02191690831515021790555060008160000160009054906101000a900473ffffffffffffffffffffffffffffffffffffffff1673ffffffffffffffffffffffffffffffffffffffff1682600101546040516107009061143e565b60006040518083038185875af1925050503d806000811461073d576040519150601f19603f3d011682016040523d82523d6000602084013e610742565b606091505b5050905080610786576040517f08c379a000000000000000000000000000000000000000000000000000000000815260040161077d9061149f565b60405180910390fd5b853373ffffffffffffffffffffffffffffffffffffffff167fe6266574c540a6eace832e59bc4fa1d3c8a6c570042f03f6eb69c252cb71395560405160405180910390a3505b5050505050565b60016020528060005260406000206000915054906101000a900460ff1681565b60011515600160003373ffffffffffffffffffffffffffffffffffffffff1673ffffffffffffffffffffffffffffffffffffffff16815260200190815260200160002060009054906101000a900460ff16151514610886576040517f08c379a000000000000000000000000000000000000000000000000000000000815260040161087d9061135b565b60405180910390fd5b600060405180608001604052808473ffffffffffffffffffffffffffffffffffffffff1681526020018381526020016000815260200160001515815250905060006003805490509050600382908060018154018082558091505060019003906000526020600020906004020160009091909190915060008201518160000160006101000a81548173ffffffffffffffffffffffffffffffffffffffff021916908373ffffffffffffffffffffffffffffffffffffffff160217905550602082015181600101556040820151816002015560608201518160030160006101000a81548160ff02191690831515021790555050508373ffffffffffffffffffffffffffffffffffffffff16813373ffffffffffffffffffffffffffffffffffffffff167f101a85d062d4f96045d6889441dd96dda5e818771df426a14e74d54b0ee9e1ce866040516109d69190611198565b60405180910390a450505050565b60606003805480602002602001604051908101604052809291908181526020016000905b82821015610abf57838290600052602060002090600402016040518060800160405290816000820160009054906101000a900473ffffffffffffffffffffffffffffffffffffffff1673ffffffffffffffffffffffffffffffffffffffff1673ffffffffffffffffffffffffffffffffffffffff16815260200160018201548152602001600282015481526020016003820160009054906101000a900460ff16151515158152505081526020019060010190610a08565b50505050905090565b60026020528160005260406000206020528060005260406000206000915091509054906101000a900460ff1681565b60038181548110610b0757600080fd5b90600052602060002090600402016000915090508060000160009054906101000a900473ffffffffffffffffffffffffffffffffffffffff16908060010154908060020154908060030160009054906101000a900460ff16905084565b6000600380549050905090565b600047905090565b7f000000000000000000000000000000000000000000000000000000000000000081565b60606000805480602002602001604051908101604052809291908181526020018280548015610c2157602002820191906000526020600020905b8160009054906101000a900473ffffffffffffffffffffffffffffffffffffffff1673ffffffffffffffffffffffffffffffffffffffff1681526020019060010190808311610bd7575b5050505050905090565b600080600080846003805490508110610c7b57806040517fcfcd3b32000000000000000000000000000000000000000000000000000000008152600401610c729190611198565b60405180910390fd5b600060038781548110610c9157610c9061137b565b5b90600052602060002090600402016040518060800160405290816000820160009054906101000a900473ffffffffffffffffffffffffffffffffffffffff1673ffffffffffffffffffffffffffffffffffffffff1673ffffffffffffffffffffffffffffffffffffffff16815260200160018201548152602001600282015481526020016003820160009054906101000a900460ff16151515158152505090508060000151816020015182604001518360600151955095509550955050509193509193565b3373ffffffffffffffffffffffffffffffffffffffff167f90890809c654f11d6e72a28fa60149770a0d11ec6c92319d6ceb2bb0a4ea1a153447604051610d9e929190610dc1565b60405180910390a2565b6000819050919050565b610dbb81610da8565b82525050565b6000604082019050610dd66000830185610db2565b610de36020830184610db2565b9392505050565b600080fd5b610df881610da8565b8114610e0357600080fd5b50565b600081359050610e1581610def565b92915050565b600060208284031215610e3157610e30610dea565b5b6000610e3f84828501610e06565b91505092915050565b600073ffffffffffffffffffffffffffffffffffffffff82169050919050565b6000610e7382610e48565b9050919050565b610e8381610e68565b82525050565b6000602082019050610e9e6000830184610e7a565b92915050565b610ead81610e68565b8114610eb857600080fd5b50565b600081359050610eca81610ea4565b92915050565b600060208284031215610ee657610ee5610dea565b5b6000610ef484828501610ebb565b91505092915050565b60008115159050919050565b610f1281610efd565b82525050565b6000602082019050610f2d6000830184610f09565b92915050565b6000610f3e82610e48565b9050919050565b610f4e81610f33565b8114610f5957600080fd5b50565b600081359050610f6b81610f45565b92915050565b60008060408385031215610f8857610f87610dea565b5b6000610f9685828601610f5c565b9250506020610fa785828601610e06565b9150509250929050565b600081519050919050565b600082825260208201905092915050565b6000819050602082019050919050565b610fe681610f33565b82525050565b610ff581610da8565b82525050565b61100481610efd565b82525050565b6080820160008201516110206000850182610fdd565b5060208201516110336020850182610fec565b5060408201516110466040850182610fec565b5060608201516110596060850182610ffb565b50505050565b600061106b838361100a565b60808301905092915050565b6000602082019050919050565b600061108f82610fb1565b6110998185610fbc565b93506110a483610fcd565b8060005b838110156110d55781516110bc888261105f565b97506110c783611077565b9250506001810190506110a8565b5085935050505092915050565b600060208201905081810360008301526110fc8184611084565b905092915050565b6000806040838503121561111b5761111a610dea565b5b600061112985828601610e06565b925050602061113a85828601610ebb565b9150509250929050565b61114d81610f33565b82525050565b60006080820190506111686000830187611144565b6111756020830186610db2565b6111826040830185610db2565b61118f6060830184610f09565b95945050505050565b60006020820190506111ad6000830184610db2565b92915050565b600081519050919050565b600082825260208201905092915050565b6000819050602082019050919050565b6111e881610e68565b82525050565b60006111fa83836111df565b60208301905092915050565b6000602082019050919050565b600061121e826111b3565b61122881856111be565b9350611233836111cf565b8060005b8381101561126457815161124b88826111ee565b975061125683611206565b925050600181019050611237565b5085935050505092915050565b6000602082019050818103600083015261128b8184611213565b905092915050565b60006080820190506112a86000830187610e7a565b6112b56020830186610db2565b6112c26040830185610db2565b6112cf6060830184610f09565b95945050505050565b600082825260208201905092915050565b7f41646472657373206d757374206265206f6e65206f6620746865206f776e657260008201527f7300000000000000000000000000000000000000000000000000000000000000602082015250565b60006113456021836112d8565b9150611350826112e9565b604082019050919050565b6000602082019050818103600083015261137481611338565b9050919050565b7f4e487b7100000000000000000000000000000000000000000000000000000000600052603260045260246000fd5b7f4e487b7100000000000000000000000000000000000000000000000000000000600052601160045260246000fd5b60006113e482610da8565b91506113ef83610da8565b9250828201905080821115611407576114066113aa565b5b92915050565b600081905092915050565b50565b600061142860008361140d565b915061143382611418565b600082019050919050565b60006114498261141b565b9150819050919050565b7f7472616e73616374696f6e206661696c65640000000000000000000000000000600082015250565b60006114896012836112d8565b915061149482611453565b602082019050919050565b600060208201905081810360008301526114b88161147c565b905091905056fea2646970667358221220bf625e2da6831aa5b1c43a180799d2c4ffdfb4f62f886525e63b028c64c1a32e64736f6c63430008170033a264697066735822122048e4d888712c720c818fa48323e3d4dfa392c0933321b27f5e82075ec1d4986c64736f6c6343000817003360a06040523480156200001157600080fd5b5060405162001cb238038062001cb2833981810160405281019062000037919062000506565b60008251116200007e576040517f08c379a00000000000000000000000000000000000000000000000000000000081526004016200007590620005cd565b60405180910390fd5b60008111801562000090575081518111155b620000d2576040517f08c379a0000000000000000000000000000000000000000000000000000000008152600401620000c99062000665565b60405180910390fd5b60005b8251811015620002cc576000838281518110620000f757620000f662000687565b5b60200260200101519050600073ffffffffffffffffffffffffffffffffffffffff168173ffffffffffffffffffffffffffffffffffffffff160362000173576040517f08c379a00000000000000000000000000000000000000000000000000000000081526004016200016a9062000706565b60405180910390fd5b600160008273ffffffffffffffffffffffffffffffffffffffff1673ffffffffffffffffffffffffffffffffffffffff16815260200190815260200160002060009054906101000a900460ff161562000203576040517f08c379a0000000000000000000000000000000000000000000000000000000008152600401620001fa9062000778565b60405180910390fd5b60018060008373ffffffffffffffffffffffffffffffffffffffff1673ffffffffffffffffffffffffffffffffffffffff16815260200190815260200160002060006101000a81548160ff0219169083151502179055506000819080600181540180825580915050600190039060005260206000200160009091909190916101000a81548173ffffffffffffffffffffffffffffffffffffffff021916908373ffffffffffffffffffffffffffffffffffffffff160217905550508080600101915050620000d5565b50806080818152505050506200079a565b6000604051905090565b600080fd5b600080fd5b600080fd5b6000601f19601f8301169050919050565b7f4e487b7100000000000000000000000000000000000000000000000000000000600052604160045260246000fd5b6200034182620002f6565b810181811067ffffffffffffffff8211171562000363576200036262000307565b5b80604052505050565b600062000378620002dd565b905062000386828262000336565b919050565b600067ffffffffffffffff821115620003a957620003a862000307565b5b602082029050602081019050919050565b600080fd5b600073ffffffffffffffffffffffffffffffffffffffff82169050919050565b6000620003ec82620003bf565b9050919050565b620003fe81620003df565b81146200040a57600080fd5b50565b6000815190506200041e81620003f3565b92915050565b60006200043b62000435846200038b565b6200036c565b90508083825260208201905060208402830185811115620004615762000460620003ba565b5b835b818110156200048e57806200047988826200040d565b84526020840193505060208101905062000463565b5050509392505050565b600082601f830112620004b057620004af620002f1565b5b8151620004c284826020860162000424565b91505092915050565b6000819050919050565b620004e081620004cb565b8114620004ec57600080fd5b50565b6000815190506200050081620004d5565b92915050565b6000806040838503121562000520576200051f620002e7565b5b600083015167ffffffffffffffff811115620005415762000540620002ec565b5b6200054f8582860162000498565b92505060206200056285828601620004ef565b9150509250929050565b600082825260208201905092915050565b7f6f776e6572732072657175697265640000000000000000000000000000000000600082015250565b6000620005b5600f836200056c565b9150620005c2826200057d565b602082019050919050565b60006020820190508181036000830152620005e881620005a6565b9050919050565b7f696e76616c6964206e756d626572206f662072657175697265642071756f727560008201527f6d00000000000000000000000000000000000000000000000000000000000000602082015250565b60006200064d6021836200056c565b91506200065a82620005ef565b604082019050919050565b6000602082019050818103600083015262000680816200063e565b9050919050565b7f4e487b7100000000000000000000000000000000000000000000000000000000600052603260045260246000fd5b7f696e76616c6964206f776e657200000000000000000000000000000000000000600082015250565b6000620006ee600d836200056c565b9150620006fb82620006b6565b602082019050919050565b600060208201905081810360008301526200072181620006df565b9050919050565b7f6f776e6572206e6f7420756e6971756500000000000000000000000000000000600082015250565b6000620007606010836200056c565b91506200076d8262000728565b602082019050919050565b60006020820190508181036000830152620007938162000751565b9050919050565b6080516114f5620007bd6000396000818161066c0152610b7b01526114f56000f3fe6080604052600436106100c65760003560e01c80635cc070761161007f5780639522059c116100595780639522059c146102ec578063a0e67e2b14610317578063a9d3106614610342578063d0e30db0146103825761011d565b80635cc07076146102565780636747dad714610296578063722713f7146102c15761011d565b8063025e7c27146101225780631b671a401461015f5780632f54bf6e146101885780633ebae36f146101c55780634b465d74146101ee57806356c31637146102195761011d565b3661011d573373ffffffffffffffffffffffffffffffffffffffff167f90890809c654f11d6e72a28fa60149770a0d11ec6c92319d6ceb2bb0a4ea1a153447604051610113929190610dc1565b60405180910390a2005b600080fd5b34801561012e57600080fd5b5061014960048036038101906101449190610e1b565b61038c565b6040516101569190610e89565b60405180910390f35b34801561016b57600080fd5b5061018660048036038101906101819190610e1b565b6103cb565b005b34801561019457600080fd5b506101af60048036038101906101aa9190610ed0565b6107d3565b6040516101bc9190610f18565b60405180910390f35b3480156101d157600080fd5b506101ec60048036038101906101e79190610f71565b6107f3565b005b3480156101fa57600080fd5b506102036109e4565b60405161021091906110e2565b60405180910390f35b34801561022557600080fd5b50610240600480360381019061023b9190611104565b610ac8565b60405161024d9190610f18565b60405180910390f35b34801561026257600080fd5b5061027d60048036038101906102789190610e1b565b610af7565b60405161028d9493929190611153565b60405180910390f35b3480156102a257600080fd5b506102ab610b64565b6040516102b89190611198565b60405180910390f35b3480156102cd57600080fd5b506102d6610b71565b6040516102e39190611198565b60405180910390f35b3480156102f857600080fd5b50610301610b79565b60405161030e9190611198565b60405180910390f35b34801561032357600080fd5b5061032c610b9d565b6040516103399190611271565b60405180910390f35b34801561034e57600080fd5b5061036960048036038101906103649190610e1b565b610c2b565b6040516103799493929190611293565b60405180910390f35b61038a610d56565b005b6000818154811061039c57600080fd5b906000526020600020016000915054906101000a900473ffffffffffffffffffffffffffffffffffffffff1681565b60011515600160003373ffffffffffffffffffffffffffffffffffffffff1673ffffffffffffffffffffffffffffffffffffffff16815260200190815260200160002060009054906101000a900460ff1615151461045e576040517f08c379a00000000000000000000000000000000000000000000000000000000081526004016104559061135b565b60405180910390fd5b8060038054905081106104a857806040517fcfcd3b3200000000000000000000000000000000000000000000000000000000815260040161049f9190611198565b60405180910390fd5b816002600082815260200190815260200160002060003373ffffffffffffffffffffffffffffffffffffffff1673ffffffffffffffffffffffffffffffffffffffff16815260200190815260200160002060009054906101000a900460ff161561054957806040517f6b771e4a0000000000000000000000000000000000000000000000000000000081526004016105409190611198565b60405180910390fd5b826003818154811061055e5761055d61137b565b5b906000526020600020906004020160030160009054906101000a900460ff16156105bf57806040517f1b344ee70000000000000000000000000000000000000000000000000000000081526004016105b69190611198565b60405180910390fd5b60016002600086815260200190815260200160002060003373ffffffffffffffffffffffffffffffffffffffff1673ffffffffffffffffffffffffffffffffffffffff16815260200190815260200160002060006101000a81548160ff02191690831515021790555060006003858154811061063e5761063d61137b565b5b90600052602060002090600402019050600181600201600082825461066391906113d9565b925050819055507f00000000000000000000000000000000000000000000000000000000000000008160020154106107cc5760018160030160006101000a81548160ff02191690831515021790555060008160000160009054906101000a900473ffffffffffffffffffffffffffffffffffffffff1673ffffffffffffffffffffffffffffffffffffffff1682600101546040516107009061143e565b60006040518083038185875af1925050503d806000811461073d576040519150601f19603f3d011682016040523d82523d6000602084013e610742565b606091505b5050905080610786576040517f08c379a000000000000000000000000000000000000000000000000000000000815260040161077d9061149f565b60405180910390fd5b853373ffffffffffffffffffffffffffffffffffffffff167fe6266574c540a6eace832e59bc4fa1d3c8a6c570042f03f6eb69c252cb71395560405160405180910390a3505b5050505050565b60016020528060005260406000206000915054906101000a900460ff1681565b60011515600160003373ffffffffffffffffffffffffffffffffffffffff1673ffffffffffffffffffffffffffffffffffffffff16815260200190815260200160002060009054906101000a900460ff16151514610886576040517f08c379a000000000000000000000000000000000000000000000000000000000815260040161087d9061135b565b60405180910390fd5b600060405180608001604052808473ffffffffffffffffffffffffffffffffffffffff1681526020018381526020016000815260200160001515815250905060006003805490509050600382908060018154018082558091505060019003906000526020600020906004020160009091909190915060008201518160000160006101000a81548173ffffffffffffffffffffffffffffffffffffffff021916908373ffffffffffffffffffffffffffffffffffffffff160217905550602082015181600101556040820151816002015560608201518160030160006101000a81548160ff02191690831515021790555050508373ffffffffffffffffffffffffffffffffffffffff16813373ffffffffffffffffffffffffffffffffffffffff167f101a85d062d4f96045d6889441dd96dda5e818771df426a14e74d54b0ee9e1ce866040516109d69190611198565b60405180910390a450505050565b60606003805480602002602001604051908101604052809291908181526020016000905b82821015610abf57838290600052602060002090600402016040518060800160405290816000820160009054906101000a900473ffffffffffffffffffffffffffffffffffffffff1673ffffffffffffffffffffffffffffffffffffffff1673ffffffffffffffffffffffffffffffffffffffff16815260200160018201548152602001600282015481526020016003820160009054906101000a900460ff16151515158152505081526020019060010190610a08565b50505050905090565b60026020528160005260406000206020528060005260406000206000915091509054906101000a900460ff1681565b60038181548110610b0757600080fd5b90600052602060002090600402016000915090508060000160009054906101000a900473ffffffffffffffffffffffffffffffffffffffff16908060010154908060020154908060030160009054906101000a900460ff16905084565b6000600380549050905090565b600047905090565b7f000000000000000000000000000000000000000000000000000000000000000081565b60606000805480602002602001604051908101604052809291908181526020018280548015610c2157602002820191906000526020600020905b8160009054906101000a900473ffffffffffffffffffffffffffffffffffffffff1673ffffffffffffffffffffffffffffffffffffffff1681526020019060010190808311610bd7575b5050505050905090565b600080600080846003805490508110610c7b57806040517fcfcd3b32000000000000000000000000000000000000000000000000000000008152600401610c729190611198565b60405180910390fd5b600060038781548110610c9157610c9061137b565b5b90600052602060002090600402016040518060800160405290816000820160009054906101000a900473ffffffffffffffffffffffffffffffffffffffff1673ffffffffffffffffffffffffffffffffffffffff1673ffffffffffffffffffffffffffffffffffffffff16815260200160018201548152602001600282015481526020016003820160009054906101000a900460ff16151515158152505090508060000151816020015182604001518360600151955095509550955050509193509193565b3373ffffffffffffffffffffffffffffffffffffffff167f90890809c654f11d6e72a28fa60149770a0d11ec6c92319d6ceb2bb0a4ea1a153447604051610d9e929190610dc1565b60405180910390a2565b6000819050919050565b610dbb81610da8565b82525050565b6000604082019050610dd66000830185610db2565b610de36020830184610db2565b9392505050565b600080fd5b610df881610da8565b8114610e0357600080fd5b50565b600081359050610e1581610def565b92915050565b600060208284031215610e3157610e30610dea565b5b6000610e3f84828501610e06565b91505092915050565b600073ffffffffffffffffffffffffffffffffffffffff82169050919050565b6000610e7382610e48565b9050919050565b610e8381610e68565b82525050565b6000602082019050610e9e6000830184610e7a565b92915050565b610ead81610e68565b8114610eb857600080fd5b50565b600081359050610eca81610ea4565b92915050565b600060208284031215610ee657610ee5610dea565b5b6000610ef484828501610ebb565b91505092915050565b60008115159050919050565b610f1281610efd565b82525050565b6000602082019050610f2d6000830184610f09565b92915050565b6000610f3e82610e48565b9050919050565b610f4e81610f33565b8114610f5957600080fd5b50565b600081359050610f6b81610f45565b92915050565b60008060408385031215610f8857610f87610dea565b5b6000610f9685828601610f5c565b9250506020610fa785828601610e06565b9150509250929050565b600081519050919050565b600082825260208201905092915050565b6000819050602082019050919050565b610fe681610f33565b82525050565b610ff581610da8565b82525050565b61100481610efd565b82525050565b6080820160008201516110206000850182610fdd565b5060208201516110336020850182610fec565b5060408201516110466040850182610fec565b5060608201516110596060850182610ffb565b50505050565b600061106b838361100a565b60808301905092915050565b6000602082019050919050565b600061108f82610fb1565b6110998185610fbc565b93506110a483610fcd565b8060005b838110156110d55781516110bc888261105f565b97506110c783611077565b9250506001810190506110a8565b5085935050505092915050565b600060208201905081810360008301526110fc8184611084565b905092915050565b6000806040838503121561111b5761111a610dea565b5b600061112985828601610e06565b925050602061113a85828601610ebb565b9150509250929050565b61114d81610f33565b82525050565b60006080820190506111686000830187611144565b6111756020830186610db2565b6111826040830185610db2565b61118f6060830184610f09565b95945050505050565b60006020820190506111ad6000830184610db2565b92915050565b600081519050919050565b600082825260208201905092915050565b6000819050602082019050919050565b6111e881610e68565b82525050565b60006111fa83836111df565b60208301905092915050565b6000602082019050919050565b600061121e826111b3565b61122881856111be565b9350611233836111cf565b8060005b8381101561126457815161124b88826111ee565b975061125683611206565b925050600181019050611237565b5085935050505092915050565b6000602082019050818103600083015261128b8184611213565b905092915050565b60006080820190506112a86000830187610e7a565b6112b56020830186610db2565b6112c26040830185610db2565b6112cf6060830184610f09565b95945050505050565b600082825260208201905092915050565b7f41646472657373206d757374206265206f6e65206f6620746865206f776e657260008201527f7300000000000000000000000000000000000000000000000000000000000000602082015250565b60006113456021836112d8565b9150611350826112e9565b604082019050919050565b6000602082019050818103600083015261137481611338565b9050919050565b7f4e487b7100000000000000000000000000000000000000000000000000000000600052603260045260246000fd5b7f4e487b7100000000000000000000000000000000000000000000000000000000600052601160045260246000fd5b60006113e482610da8565b91506113ef83610da8565b9250828201905080821115611407576114066113aa565b5b92915050565b600081905092915050565b50565b600061142860008361140d565b915061143382611418565b600082019050919050565b60006114498261141b565b9150819050919050565b7f7472616e73616374696f6e206661696c65640000000000000000000000000000600082015250565b60006114896012836112d8565b915061149482611453565b602082019050919050565b600060208201905081810360008301526114b88161147c565b905091905056fea2646970667358221220bf625e2da6831aa5b1c43a180799d2c4ffdfb4f62f886525e63b028c64c1a32e64736f6c63430008170033",
  "linkReferences": {},
  "deployedLinkReferences": {}
}